:100000000C94F1020C940E030C940E030C940E034A
:100010000C940E030C940E030C940E030C940E031C
:100020000C940E030C940E030C9407280C94DB28FC
:100030000C944A220C940E030C940E030C940E03A1
:100040000C940E030C940E030C940E030C940E03EC
:100050000C940E030C94D0220C940E030C940E03FB
:100060000C940E030C940E030C940E030C940E03CC
:100070000C940E030C940E030C940E030C940E03BC
:100080000C940E030C940E030C940E030C940E03AC
:100090000C940E030C940E030C940E030C940E039C
:1000A0000C940E030C940E030C940E0314001A000F
:1000B0000800150017001C0018000C0012001300A7
:1000C00004001600070009000A000B000D000E00D6
:1000D0000F001D001B000600190005001100100094
:1000E0002C000100010001000100010001000100DD
:1000F00001000100010001000100010001000100F8
:1001000001000100010001000100010001000100E7
:1001100001000100010001000100010001000100D7
:1001200001000100010001000100010001000100C7
:1001300001000100010001000100010001000100B7
:1001400001000100010001000100010001000100A7
:100150000100010001000100010001000100010097
:100160000100010001000100010001000100010087
:100170000100010001000100010001000100010077
:100180000100010000000000000000002A2B2800F0
:100190000000000000000000000000000000002936
:1001A000000000002C1E3420212224342627252E76
:1001B000362D3738271E1F202122232425263333AE
:1001C000362E37381F0405060708090A0B0C0D0EDA
:1001D0000F101112131415161718191A1B1C1D2FA6
:1001E0003130232D350405060708090A0B0C0D0EC6
:1001F0000F101112131415161718191A1B1C1D2F86
:100200003130354C0000000000000000000000000C
:1002100000000000000000000000000000000000DE
:1002200000000000000000007E0F00D4FFFFFFC7A9
:10023000000000781E140A052223252628292A2CCE
:100240002D2F3032333536383A3B3D3E4042434520
:1002500047494A4C4E5051535557595A5C5E60625B
:10026000646668696B6D6F71737577797B7D7F816B
:10027000838587898A8C8E90929496989A9C9E9F6B
:10028000A1A3A5A7A8AAACAEAFB1B3B4B6B8B9BB89
:10029000BCBEBFC1C2C3C5C6C7C9CACBCCCDCED0F8
:1002A000D1D2D2D3D4D5D6D7D7D8D9D9DADADBDBE5
:1002B000DBDCDCDCDCDCDDDDDDDDDCDCDCDCDCDB7C
:1002C000DBDBDADAD9D9D8D7D7D6D5D4D3D2D2D1C5
:1002D000D0CECDCCCBCAC9C7C6C5C3C2C1BFBEBCB8
:1002E000BBB9B8B6B4B3B1AFAEACAAA8A7A5A3A129
:1002F0009F9E9C9A98969492908E8C8A89878583EB
:10030000817F7D7B79777573716F6D6B69686664CA
:1003100062605E5C5A5957555351504E4C4A49479A
:10032000454342403E3D3B3A3836353332302F2D3F
:100330002C2A29282625232200010101010101017F
:10034000010102020202020202020203030303038A
:100350000303030404040404040405050505050659
:100360000606060607070707070808080809090917
:10037000090A0A0A0B0B0B0C0C0C0D0D0D0E0E0EC0
:100380000F0F0F1010111111121213131414151551
:1003900016161717181819191A1A1B1B1C1D1D1EC3
:1003A0001E1F202021222223242425262627282917
:1003B000292A2B2C2D2D2E2F303132323334353645
:1003C0003738393A3B3C3D3E3F4041424344454645
:1003D0004748494A4C4D4E4F505153545556585921
:1003E0005A5B5D5E5F616264656668696B6C6D6FC8
:1003F0007072737577787A7B7D7E8082838587883B
:100400008A8C8E8F91939596989A9C9EA0A2A3A574
:10041000A7A9ABADAFB1B3B5B7BABCBEC0C2C4C675
:10042000C9CBCDCFD1D4D6D8DBDDDFE2E4E7E9EB31
:10043000EEF0F3F5F8FAFDFF0E03500061006900DD
:100440006E003200370000000E0355007500750085
:1004500070006100680000000403090409025B00E9
:10046000030100A0FA0904000001030101000921B1
:100470001101000122400007058103080001090461
:1004800001000203000000092111010001222200E5
:10049000070582032000010705030320000109046A
:1004A0000200010300000009211101000122B60031
:1004B000070584032000011201000200000008ED7E
:1004C000FE37132220010200010660FF0961A1012D
:1004D0000962150026FF0095207508810209631541
:1004E0000026FF00952075089102C005010902A1B0
:1004F0000185020901A10005091901290815002536
:100500000195087501810205010930093115812520
:100510007F95027508810609381581257F9501753B
:10052000088106050C0A38021581257F950175089A
:100530008106C0C005010980A101850319012AB700
:1005400000150126B700950175108100C0050C0942
:1005500001A101850419012AA002150126A0029516
:100560000175108100C005010906A1018506050776
:1005700019E029E715002501950875018102050795
:10058000190029EF1500250195F075018102050874
:1005900019012905950575019102950175039101D0
:1005A000C005010906A101050719E029E715002585
:1005B00001950875018102950175088101050719EA
:1005C0000029FF150026FF00950675088100050823
:1005D0001901290595057501910295017503910190
:1005E000C00011241FBECFEFDAE0DEBFCDBF11E0A7
:1005F000A0E0B1E0E6E3F7E502C005900D92A23A73
:10060000B107D9F722E0A2EAB1E001C01D92AB3CEC
:10061000B207E1F70E949B120C94702B0C9400001F
:100620000895089581E0089581E008950C941203DF
:1006300008950C9418031F93CF93DF9300D000D03C
:100640000F92CDB7DEB749835A836B833091A501F2
:1006500089819A8131111DC06623B9F02223A9F046
:100660000E945C09182F682F89819A810E940809CD
:1006700069817A81812F0F900F900F900F900F90CA
:10068000DF91CF911F910C94391F0E943409182FCC
:10069000EFCF0E945C0969817A81EDCFFC01262FA2
:1006A000408151816281738184810C941B0381E0BC
:1006B0000895CF93DF93EC0160E00E944E03BE01EA
:1006C000DF91CF910C941903E1E0F0E0DF0102C06B
:1006D000AA0FBB1F6A95E2F7BD01DF0102C0AA0F96
:1006E000BB1F4A95E2F76A2B01C0EE0F2A95EAF785
:1006F000962F9823961302C08E2B0895E0958E2393
:100700000895242F462F682F8091B2010E94640320
:100710000C94C5080C943F110C94411108950E944B
:1007200061080E948E032FEF84E39CE021508040FB
:100730009040E1F700C000000C94F4220F931F9347
:10074000CF93DF938C0161E00E944E03EC01B8016E
:100750000E94AF1B882309F448C0B801CE010E9453
:100760001603882309F441C0B801CE010E94351A4E
:100770008823D9F1B801CE010E949A208823A9F1DB
:10078000B801CE010E94361D882379F1B801CE014F
:100790000E940420882349F1B801CE010E94CE189E
:1007A000882319F1F8018281882361F0CA35FDE5BB
:1007B000DF0721F170F4C115ECE5DE07A1F0CE3DB5
:1007C000DC45C9F0C801DF91CF911F910F910C94C6
:1007D0001403CB358DE5D807A1F0CC35DD4591F775
:1007E0000E947C0DEFCF0E948F0380E0DF91CF91BC
:1007F0001F910F9108950E94350EF7CF0E94850D2D
:10080000E1CF0E94880DDECF0E942E2280E00E9460
:100810006A1A0E940A050C949A170E946A190E948B
:100820000D050E9466180C943222DF92EF92FF921F
:100830000F931F93CF93DF93E82FF0E0EC57FE4F19
:10084000D490282F26952695269530E0F901EC5D69
:10085000FD4F0491877010E0082E02C01595079592
:100860000A94E2F701701127F901EC5EFD4FE49064
:10087000F12C082E02C0F594E7940A94E2F791E077
:10088000E922FF24F901EC5FFD4FC491D0E002C0E2
:10089000D595C7958A95E2F7C170DD270115110539
:1008A00019F081EE0E945F05E114F10419F086EE63
:1008B0000E945F058D2D0E94F305EF2819F086EE4A
:1008C0000E94AD05012B19F081EE0E94AD05CD2BE4
:1008D00051F08CE2DF91CF911F910F91FF90EF903B
:1008E000DF900C94F305DF91CF911F910F91FF9052
:1008F000EF90DF900895EF92FF920F931F93CF93A5
:10090000DF93EC01162F0AE08881882309F454C094
:10091000813009F04EC08981813099F47E0122E056
:10092000E20EF11C8A810E94F305E7012196812FD6
:10093000815050F3EFE9FFE03197F1F700C000007C
:10094000F7CF823041F47E0182E0E80EF11C8A810B
:100950000E945F05EACF833041F47E01E2E0EE0EB3
:10096000F11C8A810E94AD05E0CF843011F0219600
:10097000DDCF2A81229690E080E0AE014F5F5F4F8D
:100980002053330B2A30310548F0019778F2EFE914
:10099000FFE03197F1F700C00000F7CF089FB001EA
:1009A000099F700D1124C901860F971F2981EA0143
:1009B000E4CF0E941504BACFDF91CF911F910F9120
:1009C000FF90EF90089560E00C947B0408950C94E0
:1009D000E60481E00895CF93C82F0E94E90488239C
:1009E00031F0C0FF06C02E9AC1FF05C0589ACF91C2
:1009F00008952E98F9CF5898FACF269A2E98509AA3
:100A000058980895CF93C82F0E94E7048C2FCF9158
:100A10000C94EB0480E00C9402050E94F6200C94E8
:100A200002050E94F6209091A401981721F080936E
:100A3000A4010C9402050895CF93DF93CDB7DEB7E0
:100A40002B970FB6F894DEBF0FBECDBF4F835887EC
:100A500069877A878B8761110E94CA0C1E821D826A
:100A600085E0FE013796DE01119601900D928A9580
:100A7000E1F78C819D81892B89F449815A816B81B1
:100A80007C818D819E810E94EB0B2B960FB6F89492
:100A9000DEBF0FBECDBFDF91CF91089589819A81CE
:100AA00089238F3F51F3CE0101960E945703811194
:100AB000E4CFEBCFFC01808191810C948909CF9325
:100AC000C82F882309F447C08CEF8C0F813AA0F41B
:100AD0006C2F80910201909103010E946A2188236A
:100AE00029F08C2F0E948C0C0E94EA0C8C2F0E9403
:100AF000850CCF910C94EA0C80E28C0F883048F47E
:100B0000C77081E001C0880FCA95EAF70E94AD0C5A
:100B1000F0CFEBE5EC0FE33040F4F0E0E35BFE4FA9
:100B2000808190E0CF910C942A21E8E5EC0FE73129
:100B300050F4F0E0EE0FFF1FE15EFE4F80819181E7
:100B4000CF910C944021C03F30F08C2F0E941F1396
:100B5000CF910C94F213CF910895882361F19CEF0B
:100B6000980F913A20F40E948C0C0C94EA0C90E2BD
:100B7000980F983050F4877091E001C0990F8A95D2
:100B8000EAF7892F0E94B30CF0CF9BE5980F9330C2
:100B900020F490E080E00C942A2198E5980F97319A
:100BA00020F490E080E00C944021803F20F00E94EF
:100BB00079130C94F21308951F93CF93DF93182F9A
:100BC000EB010E945F05209731F4812FDF91CF91D7
:100BD0001F910C94AD058FE99FE00197F1F700C0DC
:100BE00000002197F0CF70E060E0893311F460E5F8
:100BF00070E00C94DC05882321F00E94AD0C0C946D
:100C0000EA0C0895882321F00E94B30C0C94EA0C9E
:100C10000895BF92CF92DF92EF92FF920F931F93AE
:100C2000CF93DF936C01D62FC72FFC011281F58083
:100C3000F2949FE0F9220E94A30CE82E8823B9F0D9
:100C4000E12E1123A1F08C2F807F803421F080E2EF
:100C50008D0F8830D0F080918C0282FD16C082E02A
:100C60000E944B0D0E94A30C91E0E82EE926BC2EB9
:100C7000B2948FE0B822FBE0FB1508F468C0EB2DBE
:100C8000F0E0EE58F44D0C94E72AE12CF0CF0C2F55
:100C90000F70C07F11F00295007F112399F000239F
:100CA00059F080E28D0F883010F0D11107C0802FED
:100CB0000E94AD0C0E94EA0C8D2F41C0802F0E9433
:100CC000BD0CF8CF8D2F0E94AD05002309F43FC065
:100CD00080E28D0F883010F0D11104C0802F0E9467
:100CE000B30C03C0802F0E94C30C0E94EA0C2FC0DB
:100CF0000C2F0F70C07FC03211F00295007FDD23F2
:100D000081F0D13009F469C0112309F473C0FF20C8
:100D100009F469C0F601858180FFCECF8F7085838D
:100D200062C080918C0282FF38C0112359F00023E9
:100D300029F0802F0E94AD0C0E94EA0C80E00E94F6
:100D40005F0505C080E00E94AD050111C7CFEB2D06
:100D5000E850FF0B349720F40E94F6200E94020511
:100D6000EE2009F44DC10E949F0C80FD49C1F6019F
:100D700012820E94990C0E94D608C6010E94210886
:100D80000E94990CDF91CF911F910F91FF90EF90EE
:100D9000DF90CF90BF900C94E108112389F0F110FF
:100DA00006C00E94CD0C802B0E94FB05D0CF21E015
:100DB000F212F7CF0E94CD0C802B0E94D30CC7CF2C
:100DC000F11006C00E94E00C802F0E940206BFCFE7
:100DD00031E0F31609F4BBCFF5CF112331F085E0F4
:100DE0008F1508F4B4CF802FDFCF94E09F1508F45F
:100DF000AECFEACFFF2041F3D93349F4FFEF27EE1E
:100E000033E0F15020403040E1F700C000008D2F6A
:100E10000E94AD059CCF8C2F86958695837069F0D6
:100E2000813009F094CF8D2F9C2F9370111102C047
:100E300090E080E00E9440218ACF8D2F9C2F9370FC
:100E4000111102C090E080E00E942A2180CF8D2FF6
:100E5000112329F00E941F130E94F21378CF0E94E1
:100E60007913FACF8C2F837079F5111170CF4D2F34
:100E7000429546954770440F440F8D2F8F70042E76
:100E800001C0880F0A94EAF72D2F2071D4FF07C004
:100E90002FE030E001C0220F4A95EAF72095C69571
:100EA000C695C370822BC23049F058F4C13019F096
:100EB0000E94B7084CCF0E94B20849CF0E94BC08DC
:100EC00046CF0E94B00843CF8695112311F08C2F96
:100ED0008170882309F43BCF4D2F4295469547708A
:100EE000440F440F8D2F8F70042E01C0880F0A9479
:100EF000EAF72D2F2071D4FF07C02FE030E001C0AA
:100F0000220F4A95EAF72095C695C695C370822BA5
:100F1000C23049F058F4C13019F00E94FD0817CFD3
:100F20000E94F80814CF0E94020911CF0E94C50840
:100F30000ECFCF70112329F08C2F0E94D6088D2F51
:100F400033CF8D2F0E9402068C2F0E94E108FFCE26
:100F5000D23F51F160F4D03FB9F0D13F81F011237D
:100F600009F449C0F110A8CE8C2F8F7121C0D33F56
:100F700011F1D43FA1F780918C0282FF26C08C2F03
:100F80008F71112311F314C0112349F084E08F15E0
:100F900008F4DDCE8C2F8F710E94ED08D8CE95E03D
:100FA0009F1508F4D4CEF6CF8C2F8F711111CDCFB1
:100FB0000E94D608CCCE112329F08C2F8F710E946D
:100FC000CE08C5CE0E94CB08C2CE112349F0CF7106
:100FD0008C2F0E94D60863E08C2F0E94300DB7CE74
:100FE00081E00E944B0DE1E0EF1508F0B0CE82E009
:100FF0000E944B0DACCEF110FFCE8C2F8F71A5CF80
:10100000DF91CF911F910F91FF90EF90DF90CF90E4
:10101000BF9008950F931F93CF93DF93EC016881E6
:1010200079818A810E9493098C010E9407090E949C
:10103000AF08B801CE01DF91CF911F910F910C94B1
:101040000906CF93DF93EC018B819C81892B29F0DA
:101050008881998189238F3F59F4DF91CF91089539
:10106000CE010E940A08CE01DF91CF910C94590362
:10107000CE010E949E038111F3CF0E94A30C88230E
:1010800061F38A81882349F380918C0282FDE5CF48
:1010900082E0DF91CF910C944B0D90E080E00E94B4
:1010A0002A2190E080E00E9440210E94CA0C0E9408
:1010B000EA0C0E9419150C94F2130E94930C0C94E4
:1010C0004D080E94BA0C0C945D0892959F70963062
:1010D00091F058F4925F9F70923058F4803F19F06D
:1010E00030F4883E30F481E008959A5FF4CF843F75
:1010F000D1F380E00895883EB0F3813FD1F7F3CF7C
:10110000FC01808191810E9489090C946508CF932C
:10111000DF9300D000D00F92CDB7DEB70F900F90C5
:101120000F900F900F90DF91CF910895CF93DF93A1
:1011300000D000D000D0CDB7DEB726960FB6F89419
:10114000DEBF0FBECDBFDF91CF91089508950C94FF
:10115000A6080E94A7088093B3010C944D08089537
:101160000C94A9089091B301892B0C94A908909133
:10117000B30189230C94A9089091B30189270C9499
:10118000A9080C94A6080C94C1080E94C308809377
:10119000B2010C944D0880E00C94C50891E001C0A8
:1011A000990F8A95EAF7892F0C94C50821E030E061
:1011B00001C0220F8A95EAF78091B201822B0C942C
:1011C000C50821E030E001C0220F8A95EAF720959A
:1011D0008091B20182230C94C50821E030E001C067
:1011E000220F8A95EAF78091B20182270C94C508F4
:1011F0009091B201892B0C94C5089091B20189237A
:101200000C94C5089091B20189270C94C5080895E3
:1012100029E0929F800D1124982F977041E001C022
:10122000440F9A95EAF786958695869593E0899F6F
:10123000F0011124EA55FE4F90E080E070E05191FA
:10124000DF0111979B01082E02C0369527950A945D
:10125000E2F7217021952527242325272C93019639
:101260008330910561F7089529E0929F800D112444
:10127000982F977086958695869523E0829FF0013A
:101280001124EA55FE4F50E040E080E0219130E02B
:10129000092E02C0369527950A94E2F7217033276C
:1012A000042E01C0220F0A94EAF7822B4F5F5F4F92
:1012B0004330510559F70895CF92DF92FF920F9373
:1012C0001F93CF93DF936C010091B2018091B30122
:1012D000082BC7E0D0E010E0FC2EC8010C2E02C0A5
:1012E000959587950A94E2F780FD0CC02197A0F7A9
:1012F000F12C8F2DDF91CF911F910F91FF90DF90F7
:10130000CF900895B6018C2F0E942A10019771F397
:10131000F0CFCF93DF93EC010E945C09BE01DF9117
:10132000CF910C942A101F93CF93DF93EB019091F0
:10133000A501992331F0CB01DF91CF911F910C943E
:101340008909882379F0CB010E945C09182F682F46
:10135000CE010E940809BE01812FDF91CF911F911C
:101360000C942A10CB010E943409182FF4CF1F933C
:10137000CF93DF93C091B40116E08091B5018C1337
:1013800004C0DF91CF911F910895D0E01C9FF00120
:101390001D9FF00D1124EA54FE4F4081518162815E
:1013A0007381848195810E9496082196C770E5CF4C
:1013B0004091E6015091E7016091E8017091E901E7
:1013C0008091EA019091EB010C949608FF920F93A3
:1013D0001F93CF93DF938091EB01807FD1F48091B5
:1013E000E8018823B1F08091B4011091B5016091BA
:1013F000E6017091E701A091E901B091EA01062FA1
:101400000723C0910001D091010196E0F92E181335
:1014100006C0DF91CF911F910F91FF90089590E04A
:10142000109711F00F3F19F401968770F0CFF89ED6
:101430009001F99E300D1124F901EA54FE4F4181CB
:101440004713F2CF40814613EFCF42814111ECCFD9
:10145000438154814A1B5B0B4C175D0728F7809131
:10146000EB018F7080618093EB01F901E554FE4F31
:1014700080818F708061808386EE91E00E942108D8
:10148000DF91CF911F910F91FF900C94B709AF920C
:10149000BF92CF92DF92EF92FF920F931F93CF9361
:1014A000DF93CDB7DEB761970FB6F894DEBF0FBEFE
:1014B000CDBF8C0185E0F801DE011D9601900D92F3
:1014C0008A95E1F7F801E28086EEC82E81E0D82EF9
:1014D0006091E9017091EA016115710509F45FC13C
:1014E0009091E6012091E701892F82238F3F09F433
:1014F00056C140815181A380B480F090E801F5018C
:10150000E61BF70BBF01E0910001F0910101FF2004
:1015100009F4F6C08091EB01382F307F6E177F07FA
:1015200008F0AFC0311179C0FE2C251323C09413ED
:1015300021C0E1101FC08F7080618093EB010E9479
:10154000D809C6010E9421088091EB01F80185832A
:101550008F2D61960FB6F894DEBF0FBECDBFDF9121
:10156000CF911F910F91FF90EF90DF90CF90BF90A0
:10157000AF900895AB2829F0842F85238F3F09F081
:1015800027C180E0F82FF170DF2E80FF3CC08091F2
:10159000B4012091B50136E0821315C04D875E87F6
:1015A0008D859E850E948909292F22952F702230D2
:1015B000F0F0243018F59F70F1F0F8019581907FDC
:1015C000D1F4D12C1EC090E0389FF001399FF00D6E
:1015D0001124EA54FE4F6181651306C060816413D3
:1015E00003C062816E110FC001968770D5CF9F70C6
:1015F00011F0882331F3805E883018F3C8010E940F
:101600002108FD2CA5CFEE2009F4A2CF8091EB019B
:1016100081608093EB01F12C9BCF251306C09413BE
:1016200004C0F801EE2009F487C0C8010E948008B8
:10163000882319F1EE2009F18091EB01803270F0DE
:101640002091E6013091E70138872F831986BB8608
:10165000AA868C87CE0107960E94210886E0F801B1
:10166000A6EEB1E001900D928A95E1F70E94E6099D
:101670000E94D809FF24F3946BCFC8010E9421086F
:10168000F9CF311113C07A2DB98AA88A6E2D8989B4
:101690000E94870886EE91E00E94210886E0F6010C
:1016A00011928A95E9F70E94D809B5CF25130FC08A
:1016B00094130DC0E1100BC0F8018583C8010E948E
:1016C000210886E0F60111928A95E9F741CFC80119
:1016D0000E948008882389F2EE2079F28091EB0144
:1016E000803208F4BBCF2091E6013091E7013A83C4
:1016F00029831B82BD82AC828E83CE010196ACCF42
:101700006E177F0708F03EC0FE2CEE2009F4B5CF1F
:1017100025132AC0941328C08091EB0180FD1BC0C3
:10172000982F907FC1F0F8018583903F31F0982F7A
:10173000907F905F8F70892B8583C8010E9421085C
:1017400086E0F801A6EEB1E001900D928A95E1F7EE
:101750000E94D809FDCE86E0F801A6EEB1E0019026
:101760000D928A95E1F7F4CEC8010E94800881119C
:1017700075CF8091EB0181608093EB01C8010E94DD
:101780002108E6CE7A2DB98AA88A6E2D89890E9411
:10179000870886E0F60111928A95E9F7D9CFEE2005
:1017A00009F46BCFC8010E948008F82E882309F441
:1017B00064CF86E0F801A6EEB1E001900D928A9523
:1017C000E1F786EE91E00E945A050E94E609C0CF3B
:1017D00081E08E25D7CE1F93CF93DF93CDB7DEB7B1
:1017E0002C970FB6F894DEBF0FBECDBF4F8358873E
:1017F00069877A878B879C87CE0107960E94470A64
:10180000882369F08A859B85892B39F04F8158851B
:10181000842F85238F3F09F071C016E05FC086E0FA
:10182000FE013796DE01119601900D928A95E1F73F
:101830008A859B85892B89F38F81988589238F3FA2
:1018400061F32091B50130E0C901019687709927B5
:101850004091B4014817190671F40E946108109272
:10186000B5011092B40186E0E6EEF1E0DF011D92D1
:101870008A95E9F7D2CF96E0929FD001939FB00D61
:101880001124AA54BE4FFE01319601900D929A95F3
:10189000E1F78093B5010E94B709BFCF819FC001D6
:1018A00011248A549E4F0E94470A8823E9F0E09150
:1018B000B4011E9FF0011124EA54FE4F4081518172
:1018C00062817381848195810E9496088091B40120
:1018D00090E00196877099278093B4018091B401BC
:1018E0009091B5018913DACF2C960FB6F894DEBF2C
:1018F0000FBECDBFDF91CF911F91089569857A8585
:101900008B859C850E94960888CF682F8091020164
:10191000909103010C94EA21682F8091020190912B
:1019200003010C94F52180910201909103010C9424
:10193000002280910C02859585958595089580916A
:101940000C028770089590910C02977081E009F461
:1019500080E0089580912F02089590912F02892BA5
:1019600080932F020895809590912F029823909351
:101970002F02089510922F02089590912E02892B24
:1019800080932E020895809590912E029823909333
:101990002E02089510922E02089580910D0208954E
:1019A00008950C94D00C90918C0292FD08C09091F7
:1019B0000D02981721F080930D020C94D10C08951C
:1019C00080910D02882329F010920D0280E00C9482
:1019D000D10C0895CF93DF93E0910201F0910301C0
:1019E00080912F028083E0910201F09103018081B8
:1019F00090912E02892B808390910D02992381F082
:101A0000E0910201F09103018081892B8083809114
:101A10000201909103010E94562181110E94E00C65
:101A2000C0910201D091030140E250E06CEE71E000
:101A3000CE010E941B2B892B69F080E2FE01ACEEE7
:101A4000B1E001900D928A95E1F7CE01DF91CF913F
:101A50000C940221DF91CF91089508950C942D0DDF
:101A600090918C0292FD10C098E0899F9001112402
:101A7000622B60930C020E94D60880910C0285951F
:101A8000859585950C942E0D0C94D60810920C0219
:101A900080E00C942E0D90910C0280958923809308
:101AA0000C02282F277091F4282F082E000C330BDE
:101AB0009217130659F090918C0292FD07C08595FC
:101AC000859585950E94E1080C94460D08959091A6
:101AD0008C0292FB222720F9281769F080FB92F9EB
:101AE00090938C0280918B0290918C020E94B20D97
:101AF00082E00C944B0D089580918C0282FB882724
:101B000080F991E089270C94670D81E00C94670DB2
:101B100080E00C94670D6FEF7FEF90E080E00C9415
:101B20005A2B90E080E00E94362B893E9E4F11F4A4
:101B30000C944D1B80E0089582E090E00C94282BDB
:101B400083E090E00C94282BCF9384E090E00E94F7
:101B5000282BC82F82E290E00E94282B982F8C2FF0
:101B6000CF910895CF93C92F682F84E090E00E9411
:101B70003C2B6C2F82E290E0CF910C943C2BAB017C
:101B8000BC018FE090E00C944E2BAB01BC0183E1D3
:101B900090E00C944E2B60E070E0CB010C94C50DEE
:101BA00060E070E0CB010E94BF0D0C94CB0D69EE9C
:101BB0007EEF90E080E00E945A2B60E082E090E0AF
:101BC0000E943C2B60E083E090E00E943C2B10924E
:101BD000B30160E084E090E00E943C2B60E082E290
:101BE00090E00E943C2B60E085E090E00E943C2B5E
:101BF00060E086E090E00E943C2B6FEF87E090E091
:101C00000E943C2B40E050E0BA0188E090E00E9446
:101C10004E2B60E08DE090E00E943C2B40E050E0D5
:101C2000BA0188E190E00E944E2B60E087E190E0ED
:101C30000E943C2B40E050E0BA018CE190E00E9411
:101C40004E2B70E060E080E290E00E945A2B40E072
:101C500050E0BA0188E190E00E944E2B80E00E94A3
:101C6000661B0E94931B0C94D00D0C94D70D682F0B
:101C70008EE090E00C943C2B0E94B52260933A02D7
:101C800070933B0280933C0290933D026093360236
:101C9000709337028093380290933902089585B784
:101CA000806885BF85B7806885BF089508950895C9
:101CB0000C94570E08950C945A0E0E944F0E88E013
:101CC00091E10E94EC200E94560E0C94580E81E087
:101CD00008950C94670E089508950E946B0E0C945D
:101CE0006C0E0E9425110E94FD040C94111B0E9491
:101CF000A0220E94A21B0E94F5110E94710E0E9458
:101D00006A190E942B18EBE8F2E0808180688083DA
:101D100080918B0290918C020E94B20D0C945B0E0C
:101D20006F927F928F929F92AF92BF92CF92DF92EB
:101D3000EF92FF920F931F93CF93DF93CDB7DEB750
:101D40002A970FB6F894DEBF0FBECDBF0E940A12CD
:101D5000682E81110E943C0E20E3E22E22E0F22E3A
:101D600010E000E0812F0E9443114C01F701A08098
:101D7000B180A816B906D1F180913E0281FD0E9482
:101D80004C11A824B924712CCC24C394D12CC501A6
:101D90008C219D21892B21F10E94690E8823B1F0AD
:101DA0007E821F8321E0C4018C219D21892B09F4AF
:101DB00020E028870E94A9228160782F9A8789874E
:101DC0004E815F8168858A850E941C05F7018081AC
:101DD00091818C259D25918380830F5F0430F8F4D9
:101DE0007394CC0CDD1CF9E07F12D1CF1F5F82E031
:101DF000E80EF11C133009F0B5CF011110C08FEFC0
:101E000089838A831B820E94A9228160782F9D8307
:101E10008C8349815A816B818D810E941C0581E0F0
:101E2000611001C080E02A960FB6F894DEBF0FBEA5
:101E3000CDBFDF91CF911F910F91FF90EF90DF9079
:101E4000CF90BF90AF909F908F907F906F900895AC
:101E50000E94900E0E946F180E94101B0E940D1489
:101E60000C941105CF93DF930E942E10EC01811585
:101E700021E5920708F042C0811530E5930708F08C
:101E80009DC0883E910530F5803E910508F092C0D6
:101E9000883A910588F4853A910508F084C081302C
:101EA000910509F487C0009709F484C0049708F0ED
:101EB00081C0D0E0C0E07EC08F3B9105D0F7C85A0A
:101EC000D0E0CC0FDD1FC05BDE4F0990D881C02D64
:101ED000D46470C08115904250F4C11581E0D807D8
:101EE00008F068C0C03FD10520F3D06563C0C115BC
:101EF00090E4D907F0F2DF70D06A5CC0811525E567
:101F0000920700F5811534E5930708F08BC0811521
:101F100043E5940708F073C0C11582E5D80708F4BB
:101F200069C0CE018370992721E030E002C0220F02
:101F3000331F8A95E2F7C695C69580E2C89FE001F7
:101F4000112454C0C11599E5D907A8F4C11528E595
:101F5000D20708F06CC0C11536E5D30708F0A9CF49
:101F60008C2F0E94C510C82FD0E0DC2FCC27CC27A7
:101F7000DF71D0621FC0C1154AE5D40708F45CC008
:101F8000CE0190568115904208F093CF8D2F8F711E
:101F90000E94C51090E0982F882788279F719C0188
:101FA0002C2BE901E6CFC55AD0E0C258DE4FC881DC
:101FB000D0E0D064CE01DF91CF910895E4E0969512
:101FC0008795EA95E1F783702C2F26952695237047
:101FD00040E2249F90011124382B8C2F8370C1E0A4
:101FE000D0E002C0CC0FDD1F8A95E2F7C22BD32BC5
:101FF000DC68E0CFDC2FCC27C16FD06ADBCF8370E9
:10200000992721E030E002C0220F331F8A95E2F7C2
:10201000C695C69590E2C99FE0011124C22BD32B2F
:10202000DA68C8CFD82FCC27C46FD06AC3CFDC2FD3
:10203000CC27C06FD06ABECF8C2F8F700E94C51086
:1020400034E0D695C7953A95E1F7CF709C2FEC0117
:10205000D069B0CF0E94391F0C94320F823891059D
:10206000B1F1B0F48133910509F475C048F48932B7
:10207000910509F469C08A32910509F473C0089585
:102080008533910509F459C08933910501F108950B
:10209000833E9105A9F138F4803E9105F9F0823E26
:1020A000910549F10895863E9105A9F1873E910574
:1020B000C9F1843E910519F520918C0221FF1FC0C2
:1020C00080918B0284FD14C087EE90E008952091EA
:1020D0008B022370A1F080EE90E0089520918B0296
:1020E00020FD47C030918C0230FF09C024FF44C05E
:1020F00090E080E004C020918B0222FDF7CF08958C
:1021000020918B0222FD3BC030918C0230FDE3CF49
:1021100024FFF5CFEDCF20918B0223FFF0CF24FDDC
:10212000E7CFD2CF20918B0223FD2CC030918C02BF
:1021300031FFEECF84EE90E0089520918B0225FFD1
:10214000DECF89E290E0089520918B0225FFD7CF62
:1021500085E390E0089520918B0226FFD0CF8AE29C
:1021600090E0089520918B0226FFC9CF81E390E093
:10217000089589E390E0089583EE90E0089582EE5B
:1021800090E0089586EE90E0089590918B0292FF82
:1021900006C0282F28712830F9F4877F846093FFC8
:1021A00006C0282F28712831F1F4877E84612091A0
:1021B0008C0220FF06C0382F38713830D9F4877F61
:1021C000816021FF06C0282F28712831D1F4877E35
:1021D000816194FD877E0895282F24712430F9F6BB
:1021E0008B7F8860DCCF282F2471243101F78B7E10
:1021F0008861DDCF382F3171313019F78E7F8860DB
:10220000E0CF282F2171213121F78E7E8861E1CF27
:1022100080E008950C948B0D0E940A122FEF86E740
:1022200091E0215080409040E1F700C000000E9402
:102230000A1280E00E94431180FF04C00E940A112C
:102240000C94F42208950C940C110E94910D8111AC
:1022500002C00E94350E0E949C0D80933E020E9497
:10226000A40D90938C0280938B020E9423110E94F4
:10227000A00D0E94B0088091B2010C94C3080C9488
:1022800010030C941103E82FF0E0EE0FFF1FED5642
:10229000FD4F808191810895089580EA8A95F1F734
:1022A000089500C008950C944D11F894E82FE2951C
:1022B000EF70F0E031A1282F2F7081E090E001C095
:1022C000880F2A95EAF7982F9095932391A392A1CE
:1022D000892B82A378940895CF93DF9387EF0E9490
:1022E000551186EC0E94551184E30E945511C1E8F6
:1022F000D1E089918F3F11F00E94551181E0CA38D9
:10230000D807B9F7DF91CF910895AF92BF92DF92CE
:10231000EF92FF920F931F93CF93DF938C01D62EF2
:10232000C62FD0E0CE0186579E4F7C01FC01208154
:102330002F3F09F44DC0F894E22FE295EF70F0E0E2
:1023400031A12F7081E090E001C0880F2A95EAF753
:10235000932F982B91A392A18095892382A378949F
:102360000E945111E1E8F1E04AE851E021E030E05B
:10237000B12CA12C61916F3FA9F1A62FA295AF704E
:10238000B0E090968C9190E06F7002C09595879523
:102390006A95E2F780FD26C0C901A82AB92A220F52
:1023A000331F4E175F0731F7F70180818F3F11F020
:1023B0000E94551161E0A114B10409F460E08D2D73
:1023C0000E945311CC0FDD1FC00FD11FB982A8820C
:1023D000DF91CF911F910F91FF90EF90DF90BF9011
:1023E000AF90089590E080E0D8CF0E946C1186E015
:1023F000E3E9F2E0DF01982F1D929A95E9F7EDE805
:10240000F2E0DF011D928A95E9F783E00E94551200
:102410000C948A03FF920F931F93CF93DF9300D006
:1024200000D000D0CDB7DEB78E010F5F1F4F86E022
:10243000F80111928A95E9F760E0C8010E948511C0
:1024400061E0C8010E94851162E0C8010E94851107
:1024500046E050E0B8018DE892E00E941B2BFF247B
:10246000F394009709F4F12C892B41F086E0F801F0
:10247000ADE8B2E001900D928A95E1F72F2D43E08F
:1024800063E972E08DE892E00E9456120E948C038C
:102490008F2D26960FB6F894DEBF0FBECDBFDF910D
:1024A000CF911F910F91FF9008950895FF920F9380
:1024B0001F93CF93DF93F82E092F162FD72FC42FFA
:1024C000222349F081E0809341020E94A922909347
:1024D000400280933F02809141028823A1F08091C5
:1024E0003F02909140020E94C122059760F0EF2DBB
:1024F000F02FA12FBD2F90E080E0D0E08C179D073A
:1025000044F010924102DF91CF911F910F91FF9003
:102510000895219131912D933D930196EFCF0E9423
:10252000DC240E94770E0C94E8240E94EC240E9484
:10253000280F0C9406250E9449220E94C3240E9461
:102540005D0E0E948F120E9495120E946D0EFBCFAD
:102550008091480280FF0DC06091090170E0660F14
:10256000771F6038710570F56115710569F1862F67
:10257000089581FF07C06091090184E0689FB00160
:102580001124EFCF6091090182FD0AC080914702BA
:102590008823A9F02091080160910901821710F0A9
:1025A00088E0ECCF869FC001112433E0880F991F8B
:1025B0003A95E1F7622F70E00E94B12AD2CF68E02D
:1025C00070E0D5CF8FE7089581E0089580914802AB
:1025D00080FF0CC06091050170E075956795759559
:1025E00067956115710549F1862F089581FF06C031
:1025F0006091050170E075956795F3CF60910501D5
:1026000082FD0BC0909146029923A1F060910401D4
:1026100080910501961738F0682F70E060387105D9
:1026200000F38FE70895899FC001112470E00E9494
:10263000B12AF4CF61E070E0D7CF81E00895803F08
:1026400031F40E94A812819580934C020895813F35
:1026500019F40E94A812F8CF823F31F40E94A81208
:10266000819580934B020895833F19F40E94A8122C
:10267000F8CF893F29F40E94E61280934D02089515
:102680008A3F21F40E94E6128195F7CF8B3F31F407
:102690000E94E612819580934E0208958C3F19F4B2
:1026A0000E94E612F8CF9CE0980F953070F4845F9A
:1026B000990B21E030E001C0220F8A95EAF7809162
:1026C0004A02822B80934A0208958D3F31F4809113
:1026D000480281608093480208958E3F21F48091E2
:1026E00048028260F7CF8F3FB9F78091480284603B
:1026F000F1CF40914B02803F59F480914C0287FF0B
:102700000DC010924C0241110BC01092470208C03C
:10271000813F81F480914C0218169CF3442381F090
:1027200080914D0290914E02892B09F05AC010926F
:1027300046020895823F49F447FFF0CF10924B02C2
:1027400080914C028111ECCFE0CF833F19F4141635
:10275000ACF3E4CF90914D02893F29F41916F4F6B9
:1027600010924D02DBCF8A3F19F497FFD7CFF8CFF5
:1027700090914E028B3F29F497FFD0CF10924E02DA
:10278000CDCF8C3F19F41916CCF3C8CF9CE0980F2D
:10279000953090F4845F990B21E030E0B90102C0DC
:1027A000660F771F8A95E2F7CB01809590914A02D8
:1027B000892380934A02B2CF8D3F31F48091480241
:1027C0008E7F80934802AACF8E3F21F480914802E9
:1027D0008D7FF7CF8F3F09F0A1CF809148028B7F8B
:1027E000F0CF08950E94A9229C0190914B02809104
:1027F0004C02982B21F03093450220934402909193
:102800004D0280914E02982B21F030934302209389
:10281000420289E492E00C941C21EF92FF920F9304
:102820001F93CF93DF9300D000D000D0CDB7DEB799
:1028300086E0E9E4F2E0DE01119601900D928A95BE
:10284000E1F7E0904B02F0904C0200914D021091A4
:102850004E0210924B0210924C0210924D021092B6
:102860004E028E2D8F2991F0809144029091450265
:102870000E94C122AC0190914702992309F43FC004
:1028800080910A018417150608F447C0802F812B18
:1028900091F080914202909143020E94C122AC01CA
:1028A00090914602992309F477C08091060184171C
:1028B000150608F47FC080914B0290914C02892B41
:1028C00090914D02892B90914E02892B11F00E941C
:1028D000F21386E0FE013196A9E4B2E001900D9278
:1028E0008A95E1F726960FB6F894DEBF0FBECDBFEE
:1028F000DF91CF911F910F91FF90EF90089520915C
:102900000B018AE0289F900111242417350708F055
:10291000BDCF9F5F9093470202C09F3FD1F7EE204B
:1029200059F00E94A8129FEF1E140CF491E0899FA9
:10293000802D112480934B02FF2059F00E94A81291
:102940009FEF1F140CF491E0899F802D1124809338
:102950004C0230914B02332309F498CF20914C0262
:10296000222309F493CF45EB3403C00111249923AA
:1029700059F090934B0245EB24039001112433232B
:1029800039F030934C0282CF81E080934B02F3CF39
:1029900081E080934C027ACF209107018AE0289F42
:1029A000900111242417350708F085CF9F5F90937D
:1029B000460202C09F3FD1F7002359F00E94E61261
:1029C0009FEF10160CF491E0899F802D11248093C5
:1029D0004D02112359F00E94E6129FEF11160CF4DC
:1029E00091E0899F802D112480934E0230914D02F9
:1029F000332309F460CF20914E02222309F45BCFE8
:102A000045EB3403C0011124992359F090934D02F2
:102A100045EB240390011124332339F030934E0207
:102A20004ACF81E080934D02F3CF81E080934E0244
:102A300042CF86E0E9E4F2E0DF011D928A95E9F7F2
:102A40001092470210924602109248020895EF92A7
:102A5000FF920F931F93CF93DF93EB01E82FD111D8
:102A600010C0442321F0F0E0E85CFC4FE4916E2FAD
:102A70007E2F8E2FDF91CF911F910F91FF90EF90BE
:102A800008950D2F10E0282F30E0442329F0285C12
:102A90003C4FF901249130E0F6E0CF9FC0011124B2
:102AA000EFEFF0E0BF010E949D2AAB018C2F90E078
:102AB000880F991FA5E5A49FB001A59F700D112453
:102AC000861B970B982F990F980FBF01601B710BF6
:102AD000629FD001639FB00D729FB00D11248B2FA8
:102AE0009D9FB0011124672F7727EF01C61BD70BDD
:102AF000BE01629FE001639FD00D729FD00D112433
:102B00007F01E91AF108E09EB001E19E700DF09E90
:102B1000700D1124672F7727E61BF70BE29F8001CA
:102B2000E39F100DF29F100D1124E12F722F423000
:102B3000510599F048F44115510569F041305105AE
:102B400081F0EB2F8D2F07C04430510569F080F0E4
:102B500046305105B1F76E2F8DCFE22F7B2F812F9D
:102B6000FACFE22F7D2FF7CFEB2F822F712FF3CFEC
:102B70007B2F822FED2FEFCF41E00C942715089586
:102B80000C94BC15CF93DF93762FE901682F842F27
:102B90000E94C015798368838A83DF91CF9108955D
:102BA00080919902982F9E7F29F481708260809392
:102BB000990208958C30E8F381708A60F8CF88E03C
:102BC00090E00C94302BCF92DF92EF92FF926B014A
:102BD0007C010E94D015B701A60188E090E0FF902B
:102BE000EF90DF90CF900C944E2B609199027091F2
:102BF0009A0280919B0290919C020C94E315E9E962
:102C0000F2E083E0808311828FEF828383831482DA
:102C100060817181828193810C94E3158091990286
:102C200080FF02C08695089580E0089590919D02EE
:102C3000933018F49F5F90939D02882351F0609128
:102C4000990270919A0280919B0290919C020C943F
:102C5000E315089581E00C94161690919D02992336
:102C600019F0915090939D02882351F06091990240
:102C700070919A0280919B0290919C020C94E315B2
:102C8000089581E00C942D1680919D020895809303
:102C90009D02662351F06091990270919A02809191
:102CA0009B0290919C020C94E315089560E00C94B3
:102CB000471680919A02089580919B020895809111
:102CC0009C02089570E00C94211B60910D0180918D
:102CD000990280FF0AC080910C0123E0829FC0010D
:102CE000112482569D4F0C94621680910E01909192
:102CF0000F0123E0829FF0011124E256FD4F891756
:102D000050F71182108212828F5F3396F8CF909124
:102D1000990290FF14C090910E0120910F0133E0B1
:102D2000939FF0011124E256FD4F921710F00C947E
:102D300065168183608342839F5F3396F6CF089543
:102D4000CF93DF9300D00F92CDB7DEB79091990269
:102D500090FF0AC09E012F5F3F4F0E94C2154B811A
:102D600069818A810E9487160F900F900F90DF91E2
:102D7000CF910895CF93DF93EC01EC81F0E0E85C14
:102D8000FD4F4491E9E9F2E0628181810E94A01641
:102D90008C818F5F8C83DF91CF910895EF92FF92AA
:102DA0000F931F93CF93DF9300D00F92CDB7DEB771
:102DB000F82E062F142FE22E8091990280FF28C052
:102DC000E82FE695F0E0E357FE4F9081909358028C
:102DD0008E7F823039F59E012F5F3F4F8F2D0E94ED
:102DE000C2154B8169818A810E948716F0929A02EE
:102DF00000939B0210939C02EE2051F06091990287
:102E000070919A0280919B0290919C020E94E3151E
:102E10000F900F900F90DF91CF911F910F91FF9026
:102E2000EF900895923011F710919C02DFCFE9E9FD
:102E3000F2E09181282F4381628188E0890F0C9410
:102E4000CE1681E00C941717E9E9F2E09181282F62
:102E50004381628188EF890F0C94CE1681E00C9437
:102E60002417E9E9F2E0628128E0620F08F46FEFCD
:102E7000282F438181810C94CE1681E00C94311768
:102E8000E9E9F2E0628128E0621B08F460E0282FA3
:102E9000438181810C94CE1681E00C944017E9E9BE
:102EA000F2E0438128E0420F08F44FEF282F6281BF
:102EB00081810C94CE1681E00C944F17E9E9F2E081
:102EC000438128E0421B08F440E0282F6281818181
:102ED0000C94CE1681E00C945E1720E00C94CE1674
:102EE000E9E9F2E080818E7F808360817181828157
:102EF00093810E94E315109259022FEF80E792E030
:102F0000215080409040E1F700C000000C9465160D
:102F1000E9E9F2E080818E7F8083109259022FEFE1
:102F200080E792E0215080409040E1F700C000002F
:102F30000C946516109259028091560281110AC0B4
:102F400081E08093560280919902817080935502AE
:102F50000C948817089560919902669570E041E09D
:102F600050E081E191E00E940E2B892B19F481E061
:102F7000809359020E94A9229093500280934F029D
:102F800008959091990290FF35C09170811128C0E9
:102F9000926090939902662351F06091990270912A
:102FA0009A0280919B0290919C020E94E31560918D
:102FB0009902669570E041E050E081E191E00E9465
:102FC0000E2B892BA1F01092590281E080935202BE
:102FD00040919C0260919B0280919A020C946D1723
:102FE000863010F09A60D5CF880F982BD2CF0E94F0
:102FF000AB17EBCF0895682F90919902969581E0D9
:10300000890F863008F081E00C94C11781E00C94A0
:10301000FB17682F9091990296958FEF890F09F40D
:1030200085E00C94C11781E00C94091861E00C94C0
:10303000C117E9E9F2E080818160808386950C9474
:1030400016188091990280FD0C9470170C94191831
:1030500060E00C94C1178091570281112EC00E942C
:10306000910D811104C00E94350E0E94FF150E942F
:10307000DF156093990270939A0280939B0290935C
:103080009C026E7F61F40E94FF150E94DF15609321
:10309000990270939A0280939B0290939C020E94E3
:1030A000D015109259028091990280FF03C0869535
:1030B0000E94281881E0809357020895E9E9F2E020
:1030C00080818160808386950C9428181092560226
:1030D0008091550281110E945E180C94AB170F93DA
:1030E0001F93CF93DF9380915902882309F43FC047
:1030F00080915802E0919902E695E81BE093510215
:10310000C0EDD7E00FEB15E1823041F4F0E0EC5C6C
:10311000FD4FE491CE2FD0E00AEB16E180915202F0
:10312000882361F0109252020E94A92290935002CB
:1031300080934F0210925402109253020E94A922CF
:10314000E0914F02F09150028E1B9F0B8F3F9F47E3
:1031500070F4CE0FDF1FD0935002C0934F028FE464
:1031600092E0F801DF91CF911F910F910994DF91C7
:10317000CF911F910F910895FA01811101C0FB01B8
:1031800009940E940E16823030F00E940E1685308F
:1031900010F40C94061882E00C9416181F93CF9329
:1031A000DF93EC01FB011281111150C00E94AA0CA7
:1031B0008272C93CFCE5DF0709F465C038F5C53CFF
:1031C000ECE5DE0709F45AC068F4C33C9CE5D90776
:1031D00009F448C008F04DC0C23CDC4509F43FC0CA
:1031E00011E034C04CE457E16DE377E1C73C9CE566
:1031F000D907E1F141E257E16EE277E1C83CDC45F5
:10320000A8F14DE357E16CE477E130C0CD3CFCE53B
:10321000DF07F1F1A0F441E456E16AE276E1CB3C4C
:10322000ECE5DE0719F14BE557E16AE677E1CC3CC6
:10323000DC45E0F04AE256E161E476E117C0C63DC4
:103240008CE5D80740F4CF3CDC4530F1812FDF918D
:10325000CF911F910895CD35DD45C1F3C1CF0E94B7
:103260002118F4CF43E158E166E078E10E94BC18F0
:10327000EDCF46E058E163E178E1F8CF4EE257E167
:1032800061E277E1F3CF4AE657E16BE577E1EECF14
:1032900081E00E941618DACF0E94C118D7CF86E0CD
:1032A00090E00C94282B682F86E090E00C943C2B47
:1032B0008091B9020C945319E9EBF2E0808184709B
:1032C000896180830C9453198091B9028695869503
:1032D000869508950E94910D811104C00E94350EBB
:1032E0000E945C190E944F198093B902803220F02D
:1032F000877088618093B9029091B902892F81709B
:1033000090FF04C0892F8695869586950C946A1A3D
:103310008091B902982F969596959695933040F4A2
:103320009F5F990F990F990F8770892B8093B9022E
:103330008091B90281608093B9020E9453198091F3
:10334000B9028695869586950C946A1A8091B90281
:10335000982F987F79F088508093B902887F91E008
:1033600009F490E08091B90290FB80F98093B90252
:103370000E9453198091B9028695869586950C9482
:103380006A1A8091B90280FD13C081608093B902EE
:10339000813019F489E08093B9028091B9020E94CA
:1033A00053198091B9028695869586950C946A1A70
:1033B00008958091B90280FF08C08E7F8093B90282
:1033C0000E94531980E00C946A1A08958091B90202
:1033D00080FD0C94D9190C94C1199091B902892FD0
:1033E0008695869586958F5F8F7197708430D8F417
:1033F000880F880F880F892B8093B9028091B902BA
:10340000887F91E009F490E08091B90290FB80F907
:103410008093B9020E9453198091B90286958695CE
:1034200086950C946A1A9093B902E8CF843008F01C
:1034300083E09091B9029770282F220F220F220F5C
:10344000922B9093B902987F21E009F420E09091AB
:10345000B90220FB90F99093B9020C946A1A0E9469
:10346000161A8091B9020C9453199C01FB018281B8
:10347000882349F12D3BFCE53F07C9F040F42B3B85
:10348000ECE53E0769F02C3B3C4579F008952F3B75
:103490009CE5390791F070F0203C3C4589F0089597
:1034A00083E00E942F1A80E0089580E0FACF0E9406
:1034B000A619F9CF0E948819F6CF0E94E619F3CF1A
:1034C0000E94ED19F0CF81E00895259A2D98089576
:1034D0002D9808958F929F92AF92BF92EF92FF9294
:1034E0000F931F93CF93DF93C82F8430C0F58111C2
:1034F00037C0809180008F77809380000E94681A87
:10350000A0918600B09187002C2F30E00E94F42A11
:1035100023E030E040E050E00E94C52A89019A0192
:1035200080918600909187006CE070E00E949D2A57
:1035300060177107D8F0C80169E070E00E949D2A09
:103540007093890060938800DF91CF911F910F9154
:10355000FF90EF90BF90AF909F908F900895C3E041
:1035600080918000806880938000CACF809186001F
:1035700090918700E0908600F0908700E0918600AF
:10358000F0918700C6E0D0E0BE010E949D2A060FA0
:10359000171F211D311D4801590185E0880C991C18
:1035A000AA1CBB1C8A95D1F7C701BE010E949D2AA7
:1035B0009F0150E040E0260F371F411D511DC501FE
:1035C000B4010E94C52A49015A01E0918600F09198
:1035D0008700CA01B9010E948D2A9B01AC01DF015D
:1035E0000E94032B9B01AC01C501B4010E948D2AEE
:1035F0002FE096958795779567952A95D1F7009155
:1036000086001091870030E020E006171707280792
:10361000390708F095CF609186007091870090CFB0
:1036200008950E94651A82E88093800089E1809362
:1036300081008FEF9FEF90938700809386000C941A
:103640006A19229A45B14B7F55B15460EFB7F8948F
:103650009B01220F331F260F371F280F391F2817F2
:10366000390741F4EFBF8FE594E00197F1F700C00F
:1036700000000895DC016D91CD0178E055B900009E
:1036800000C067FF45B9660F000000C000C000C061
:1036900045B900C07A9591F7E2CF83E290E00E94AD
:1036A000282B823289F484E290E00E94282B843017
:1036B00059F485E290E00E94282B91E0893209F0CC
:1036C00090E0892F8170089580E0FCCFCF93C82FC0
:1036D0006FEF811162E283E290E00E943C2B6FEF7A
:1036E000C11164E084E290E00E943C2B6FEFC111B5
:1036F00069E285E290E0CF910C943C2B089586E23C
:1037000090E00E94282B682F70E090E080E0089500
:103710000895CF93C62F0E94881B6C2F86E290E0FD
:10372000CF910C943C2B80E00E94661B60E070E01F
:10373000CB010E94891B0E94B31E0E949D1F81E045
:103740000C94661B0E947E1B0E947F1B0E94881B9C
:103750000E944D1B811102C00C94931B0895CF93BE
:10376000FB01C281CC2309F19C0122513F4520314C
:10377000310520F582510E94AD1FC0E08C2FCF9102
:10378000089581E00E94D60843E062E081E00E9453
:103790008103F3CF81E00E94E10843E062E081E031
:1037A0000E948103EBCF82E0F6CF8031FFE59F07D7
:1037B00089F381319F45B9F3C1E0E0CF8031EFE576
:1037C0009E07F9F281319F45C9F682E0DBCF2FEFEA
:1037D000FC0120830895CF93DF93EC018881893029
:1037E00029F08A3079F0DF91CF9108950E94641911
:1037F0002FEF829FC001112463E070E00E949D2A98
:103800006983F1CF1982EFCFFC012081293061F467
:103810008181F3E08F9FC00111246FEF70E00E945F
:103820009D2A862F0C94161A0895CF93DF93EC01EE
:1038300088818138A9F028F4803871F0DF91CF9128
:103840000895823881F08338C9F70E945916898318
:103850000E945C168A83F2CF0E945F168983EECFA6
:103860000E940E16FBCF0E944416F8CFCF93DF9331
:10387000EC0188818138E1F028F4803869F0DF912B
:10388000CF910895823811F18338C9F70E945F16ED
:10389000482F6A81898108C0D9810E945C16C82F8F
:1038A0000E9459164D2F6C2FDF91CF910C946D17FC
:1038B00089810E9428188981811104C0DF91CF91EC
:1038C0000C948817DF91CF910C945E188981DF9159
:1038D000CF910C945616DF92EF92FF920F931F93A5
:1038E000CF93DF93EC01D62EDC01ED918D01E150F9
:1038F000E33108F0B8C0F0E0E258F44D0C94E72A48
:10390000198289E08A836D2DCE01DF91CF911F91BD
:103910000F91FF90EF90DF900C949C23898182306F
:1039200069F0833071F08130D9F40E94B5220E9491
:10393000ED2A6A837B838C839D83E5CF0E947F1B66
:10394000F6CF7E0110E0812F0E944311F701928390
:1039500083831F5FF2E0EF0EF11C1330A1F7D3CF8A
:103960006D2DCE010E94E71BCECF89818230C1F739
:103970006A817B818C819D810E94ED2A0E94891B36
:10398000C2CF4B816A8189810E94851E9827892731
:1039900098279D838C83B7CF2C813D8132272327A5
:1039A00032274B816A8189810E949E1EACCF0E9482
:1039B000B31EA9CFCD010E94041CC8010E94361C71
:1039C000A2CFCD010E94EB1BC8010E94151C9BCF0A
:1039D0000E9458190E94F51596CF0E94461F8983B0
:1039E00092CF0E94481F9827892798279A83898316
:1039F0008ACF6B8170E089819A81AE014C5F5F4F05
:103A00009827892798270E944B1F7DCF6B8170E0F4
:103A100089819A81AE014C5F5F4F9827892798274B
:103A20000E94721F70CF0E949D1F6DCF0E94731E57
:103A3000D6CF6B8170E089819A81AE014C5F5F4F78
:103A40009827892798270E94EB1E5DCF6B8170E035
:103A500089819A81AE014C5F5F4F9827892798270B
:103A60000E94101F50CF8FEF88834DCFCF93DF93ED
:103A7000EC01FB018281882309F433C1C330FDE5E9
:103A8000DF07C0F5CA3F9CE5D90730F49E012250FC
:103A90003C4524313105B0F50E94A40D90938C0271
:103AA00080938B02C1318CE5D80709F4EEC008F091
:103AB00069C0C930ECE5DE0709F4D5C0C8F5C530EA
:103AC0008CE5D80709F4C7C000F5C330ECE5DE0784
:103AD00009F4B9C008F0BBC0C230DC4509F4ADC080
:103AE00080918B0290918C020E94B20D0E9461081D
:103AF00080E008C0C136EDE5DE0771F2C53AFDE5AC
:103B0000DF0751F2DF91CF91089580918B0280629F
:103B1000C7309CE5D90709F493C080918B0280617E
:103B2000C830DC4508F48CC080918B02806488C06A
:103B300080918B028B7FCD30FCE5DF0709F480C0DC
:103B400098F480918B028E7FCB309CE5D90709F4E5
:103B500077C080918B028C60CC30DC4508F470C05B
:103B600080918B028D7F6CC080918B028F7ECF30D5
:103B7000FCE5DF0709F464C008F47BC080918B0288
:103B80008F7D5EC0CD3F9CE5D90709F47AC050F522
:103B9000C531FCE5DF0709F486C098F480918B02FB
:103BA000837FC3319CE5D90709F44AC008F471C08A
:103BB0000E94610890918B02892F97FB87F98058AA
:103BC0003FC0CB3FFCE5DF0709F449C008F055C012
:103BD00080918C028160CA3FDC4509F081CF8093DF
:103BE0008C027ECFC130EDE5DE0709F468C0A8F491
:103BF000CF3F8CE5D80709F452C080918C028360D6
:103C0000C115DD4560F380918C02982F90959170DD
:103C10008E7F892B90FB81F9E2CFC136EDE5DE077F
:103C200009F451C0C53AFDE5DF0709F453C0C230BD
:103C3000DD4509F055CF80E043C080918B02816063
:103C400080938B024DCF80918B028260F9CF80915F
:103C50008B028460F5CF80918B028860F1CF8091D8
:103C60008C028260BCCF0E94610880918B028068C8
:103C7000E7CF80918B02877FE3CF80918C028E7F8C
:103C8000AECF80918C028D7FAACF80918B028F7BEB
:103C9000D7CF0E94610880918B028F77D1CF80911E
:103CA0008C028C7F9CCF80918B0282FB992790F9AC
:103CB00021E0922790FB82F990FB83F9C1CF81E04C
:103CC0000E94370E0DCF90918B02892F8F7E94FF2B
:103CD0008061B6CF90918B02892F8E7F90FF81609B
:103CE000AFCF81E00FCF84E0089550E0440F551F1F
:103CF00092E1699F400D511D112496E3899F400D6B
:103D0000511D1124CA01879608950F931F93CF93D5
:103D1000DF930E94751E8C010E94282BC82FD0E0D3
:103D2000DC2FCC27C80101960E94282B9E01282B4E
:103D3000C901DF91CF911F910F9108950F931F93A8
:103D4000CF93DF93122F032F0E94751EEC01602F7B
:103D50000E943C2B612FCE010196DF91CF911F91E4
:103D60000F910C943C2BAF92BF92CF92DF92EF92C7
:103D7000FF921F93CF93DF938CEAC82E80E0D82E5A
:103D8000D0E07601C0E014C0F50125913491412FB7
:103D90006C2F8D2F0E949E1E82E0A80EB11C1F5F0B
:103DA000193091F782E1E80EF11CCF5FC33019F0B2
:103DB000570110E0E9CFDF5F86E3C80ED11CD43095
:103DC00001F7DF91CF911F91FF90EF90DF90CF909F
:103DD000BF90AF900895EF92FF920F931F93CF93F0
:103DE000DF93EC018A017C01E60EF71ECE01879677
:103DF000CE15DF0539F4DF91CF911F910F91FF9020
:103E0000EF900895C83DD10540F40E94282BF80199
:103E100080830F5F1F4F2196E9CFF8011082F9CF01
:103E2000CF92DF92EF92FF920F931F93CF93DF9386
:103E30007C016A018C01060F171FEC01CE018796E9
:103E4000C017D10749F4DF91CF911F910F91FF90D7
:103E5000EF90DF90CF900895C83DD10540F4FE016A
:103E6000EE19FF09EC0DFD1D60810E943C2B21968F
:103E7000E5CF462F843038F4733028F4693018F4D5
:103E8000672F0C94851E90E080E0089580E10895EE
:103E900081E093E00895EF92FF920F931F93CF93E9
:103EA000DF93EC018A017C01E60EF71ECE01815002
:103EB0009F4FCE15DF0539F4DF91CF911F910F9100
:103EC000FF90EF900895C13023E0D20740F40E94A4
:103ED000282BF80180830F5F1F4F2196E7CFF80151
:103EE0001082F9CFCF92DF92EF92FF920F931F9340
:103EF000CF93DF937C016A018C01060F171FEC0141
:103F0000CE0181509F4FC017D10749F4DF91CF9167
:103F10001F910F91FF90EF90DF90CF900895C130E7
:103F200023E0D20740F4FE01EE19FF09EC0DFD1D60
:103F300060810E943C2B2196E3CFCF93DF93CFEF9C
:103F4000D0E060E0CE010E943C2B2196C11584E0B8
:103F5000D807B9F7DF91CF910895DF92EF92FF92E2
:103F60000F931F93CF93DF9300D000D0CDB7DEB770
:103F7000F82E8FE08F1540F08FEF93E00E94282BF2
:103F80000FEF10E08823C1F00F900F900F900F906B
:103F9000DF91CF911F910F91FF90EF90DF900895E7
:103FA000011584E0180781F3C8010E94282B8111B4
:103FB00001C0FA940F5F1F4FF110F2CF19821A82DD
:103FC0001B821C82DD24D39478018FEFE81AF80A53
:103FD000C8010E94282B89831A828823A9F29FEFA7
:103FE000980F933078F48A83D9820E5F1F4FC701F0
:103FF0000E94282B8B83882339F2CE0101960E94E0
:10400000E304E2CF8701F9CFCF93DF93EB01863151
:104010009C4511F50E94AA0C9A81992399F08A7AFD
:1040200091E009F490E090935A02811109C089E26D
:104030000E94850C0E94EA0C80E0DF91CF910895E8
:1040400085E3F6CF80915A02811104C089E20E9473
:104050008C0CF0CF85E3FBCF81E0EFCF0F931F9364
:10406000CF93DF93C42FD22FFC0182818823C9F024
:1040700040935D020E94A92290935C0280935B02B0
:1040800080E28C0F883008F050C0C77081E001C01A
:10409000880FCA95EAF7DF91CF911F910F910C9489
:1040A000FB0510915D02141335C080915B02909165
:1040B0005C020E94C122883C910560F5C0E2CD0FF0
:1040C0001D17B9F080E2810F883040F4177081E04D
:1040D00001C0880F1A95EAF70E940206C83048F41A
:1040E00081E09D2F977001C0880F9A95EAF70E9492
:1040F000FB05802F0E94F305C830B8F4D77081E02B
:1041000001C0880FDA95EAF7DF91CF911F910F91E7
:104110000C94020680E28C0F883038F4C77081E07E
:1041200001C0880FCA95EAF7EFCFDF91CF911F91B9
:104130000F9108950F939C01CB01233F4CE5340769
:1041400059F1A8F4283DFCE53F0701F1293D4CE574
:104150003407D1F1273D3C4591F406E221EE41EED2
:1041600067ED7CE50E942E2080E00F910895253FA9
:10417000FCE53F07E9F0B0F0263F3C45F9F0FC01D3
:104180008281882339F110925D02EFCF07E225EE9C
:1041900045EE68ED7CE5E6CF06E221EE40EE63EF0A
:1041A0007CE5E0CF07E225EE44EE64EF7CE5DACF74
:1041B00006E221EE42EE65EF7CE5D4CF07E225EE84
:1041C00046EE66EF7CE5CECF08E221E045EE69EDF4
:1041D0007CE5C8CF81E0C9CF9093A3018093A20171
:1041E000089590936302809362020895E0916202C1
:1041F000F0916302309721F00190F081E02D099455
:1042000080E00895E0916202F0916302309799F0A6
:1042100020911E01222359F020918B0227FF07C015
:10422000DC012C9111962C93119726E02C9302809F
:10423000F381E02D09940895E0916202F091630208
:10424000309739F022E0DC012C930480F581E02DD9
:10425000099408952091600230916102281739076E
:1042600071F09093610280936002E0916202F0919C
:104270006302309721F00680F781E02D09940895BC
:1042800020915E0230915F022817390771F09093F8
:104290005F0280935E02E0916202F09163023097C8
:1042A00021F00084F185E02D09940895FC013296F7
:1042B00080911E01882321F080918B029EE187FF6F
:1042C00096E080E0915008F4089521912223D1F3E3
:1042D0008F5FF8CF662301F120911E012223F1F0B8
:1042E00020918B0227FF1AC0462F4695469546958A
:1042F0004E3190F4677021E030E002C0220F331F8E
:104300006A95E2F7840F911DFC01828190E02823D9
:10431000392381E0232B69F480E00895FC01329673
:1043200008962191261721F0E817F907D1F7F4CF65
:1043300081E008959C01FC0132969FEF80E041915D
:10434000461751F09F3F19F4411101C0982F8F5F1C
:104350008630A9F79F3F09F40895290F311D97FD75
:104360003A95F90162830895FC01329608962191ED
:10437000261303C0DF0111971C92E817F907B9F75C
:104380000895E62FE695E695E695EE3168F4E80F98
:10439000F92FF11D677021E030E001C0220F6A950E
:1043A000EAF78281822B82830895E62FE695E695CF
:1043B000E695EE3170F4E80FF92FF11D677021E0FA
:1043C00030E001C0220F6A95EAF720958281282308
:1043D0002283089520911E01222329F020918B022F
:1043E00027FD0C94C1210C949A2120911E012223B7
:1043F00029F020918B0227FD0C94D5210C94B42137
:10440000FC01329680911E01882351F080918B022D
:1044100087FF06C08EE1DF011D928A95E9F70895B6
:1044200086E0F9CF08950C941222811105C081E035
:10443000809364020C94132282E0FACF83E080938D
:1044400064020C9413220C94152281E08093640280
:104450000C9413220C942522089508950C942D2277
:10446000089508950C942C22CF930E9430220E942C
:104470000A120E943122C0E08C2F0E944311892B26
:1044800031F4CF5FC330C1F780E0CF91089581E070
:10449000FCCF08951F921FB61F9211248F939F93F4
:1044A000AF93BF9380916502811113C08091BA02CE
:1044B0009091BB02A091BC02B091BD024196A11D9A
:1044C000B11D8093BA029093BB02A093BC02B0933B
:1044D000BD02BF91AF919F918F911F901FBE1F9002
:1044E00018958091C202843031F10E940404109228
:1044F000650288E190E020E40FB6F894A8958093D7
:1045000060000FBE2093600083B7817F846083BF0B
:1045100083B7816083BF7894889583B78E7F83BF8C
:104520000FB6F894A8958091600088618093600030
:10453000109260000FBE08950E9461080C940D0453
:1045400082E084BD93E095BD9AEF97BD80936E00A5
:1045500008952FB7F8948091BA029091BB02A09170
:10456000BC02B091BD022FBF08952FB7F89460919F
:10457000BA027091BB028091BC029091BD022FBF24
:1045800008959C014FB7F8948091BA029091BB02B4
:10459000A091BC02B091BD024FBF821B930B089546
:1045A00078941F921FB61F9211248F939F93AF93FD
:1045B000BF938091BA029091BB02A091BC02B091CE
:1045C000BD020196A11DB11D8093BA029093BB025A
:1045D000A093BC02B093BD02BF91AF919F918F9108
:1045E0001F901FBE1F90189587E797E790930108CB
:1045F0008093000888E19AE00FB6F894A89580931C
:1046000060000FBE90936000FFCF809189020895F3
:1046100008959C0184E08093E9009FEF8091E80079
:10462000915085FD06C085ED8A95F1F70000911146
:10463000F5CF8091E80085FF0CC050E040E066E0D7
:1046400070E0C9010E94AD258091E8008E778093CB
:10465000E8000895CF93DF93EC0180911E01882339
:10466000B1F180918B0287FF32C060E284E08093D9
:10467000E9008FEF9091E800815095FD06C095ED1F
:104680009A95F1F700008111F5CF8091E80085FF40
:104690001BC080911E0170E050E040E0811104C019
:1046A00050E040E068E070E0CE010E94AD258091CE
:1046B000E8008E778093E80080E2FE01A9E6B2E090
:1046C00001900D928A95E1F7DF91CF91089568E00E
:1046D00081E0CDCF80936602709368026093670299
:1046E0008091C2028430F9F48093E9008FEF9091B9
:1046F000E800815095FD06C095ED9A95F1F7000010
:104700008111F5CF8091E80085FF0DC050E040E0B9
:1047100063E070E086E692E00E94AD258091E800BB
:104720008E778093E8000895BC0184E00C946A239E
:10473000BC0183E00C946A23CF93FC01603221F525
:104740008091C202843001F5C091E900CF702091C0
:10475000EC00922F917020FD90E8C92B82E08093AD
:10476000E9008091E80080FF0CC050E040E060E28A
:1047700070E0CF010E94AD258091E8008E77809394
:10478000E800CF70C093E900CF9108958091C102F5
:10479000811109C00E948C270E94E9278091E200C4
:1047A00084608093E20008951092C10208950C94F1
:1047B00025226091BE0281E0611101C080E00C946D
:1047C0001E229091C20281E0943009F080E0609155
:1047D000BE020C94232242E061EC81E00E94082793
:1047E00042E261EC84E00E94082742E261EC82E050
:1047F0000E94082742E260EC83E00E940827909123
:10480000C20281E0943009F080E06091BE020C9415
:1048100015228091C402833009F462C030F48130E3
:10482000D9F1823009F49EC008958A3009F48AC013
:104830008B3009F470C0893009F051C08091C302F7
:10484000813209F04CC08091C7029091C802009754
:1048500019F0029709F043C08091E800877F8093A8
:10486000E8008091E80082FF36C09091F3008091CB
:10487000F200029731F48091F100813011F086301E
:1048800021F48091F100809389028091E8008B7778
:104890008093E8000C943C278091C302813AF9F49C
:1048A0008091E800877F8093E8008091C702909113
:1048B000C802892B61F460E289E692E070E00E9410
:1048C0004B268091E8008B778093E800089560E0A4
:1048D00090E080E0F3CF8091C2028111C2CF0895B1
:1048E0008091C302813AD9F78091C7029091C802A2
:1048F000892BA9F78091E800877F8093E800809159
:10490000E80080FFFCCF80911E018093F100809130
:10491000E8008E77BDCF8091C302813201F780918C
:10492000C7029091C802892BD1F68091E800877F59
:104930008093E8000E943C278091C50280931E016D
:104940000C9461088091C302813249F68091E8009D
:10495000877F8093E8000E943C278091C602809365
:104960008A0208958091C302813A09F0B8CF8091FC
:10497000E800877F8093E8008091E80080FFFCCF0B
:1049800080918A02C2CF84B7877F84BF0FB6F89424
:10499000A89580916000886180936000109260000B
:1049A0000FBE80E890E00FB6F8948093610090937A
:1049B00061000FBE0C942A220E948C270E94E927D6
:1049C000E2EEF0E080818460808378940C94722A17
:1049D00082E191E00C94F1208091C2028530A9F42B
:1049E0008091C202853011F00C949C220E947122A9
:1049F0008091C0028823A1F30E943422882381F38E
:104A00000E9497250E946108EBCF0895CF93DF9312
:104A1000CDB7DEB7A0970FB6F894DEBF0FBECDBFFF
:104A20008091C202843009F583E08093E90080918F
:104A3000E80082FF1AC08091E80090E085FF09C07D
:104A400050E040E060E270E0CE0101960E94FC255B
:104A500091E08091E8008B778093E800992329F01A
:104A600060E2CE0101960E946B1CA0960FB6F894EE
:104A7000DEBF0FBECDBFDF91CF9108950C944025CE
:104A8000292F33272330310521F168F421303105F6
:104A900009F443C02230310509F444C090E080E0BD
:104AA00030E020E026C02132310551F122323105BB
:104AB000A9F76330710590F7FB01EE0FFF1FEA566F
:104AC000FE4F208131816D567E4FFB01808190E049
:104AD00010C099278130910581F0009729F0029745
:104AE000E9F6E8E3F4E002C0E8E5F4E0849190E060
:104AF0009F01FA01318320830895E8E4F4E0F6CFC2
:104B00006330710558F6660F771FFB01E456FE4FC0
:104B10002081318189E090E0ECCF82E190E027EBC9
:104B200034E0E7CF8BE590E02CE534E0E2CF80E1A4
:104B300089BD82E189BD09B400FEFDCF8091D80016
:104B40008F7D8093D8008091E00082608093E000A8
:104B50008091E00081FDFCCF0895AF92BF92CF928B
:104B6000DF92FF920F931F93CF93DF936C01EB01C2
:104B70008A010E945B27F82E811123C001151105BF
:104B800039F0F80180819181C81BD90BC80ED91E5C
:104B9000B12CA12C2097A9F08091E80085FD22C0BE
:104BA0008091E8008E778093E80001151105A1F04F
:104BB000F80180819181A80EB91EB182A08285E0A2
:104BC000F82E8F2DDF91CF911F910F91FF90DF90E5
:104BD000CF90BF90AF9008950E945B278823D1F2B9
:104BE000F82EEFCFF60181916F018093F1002197AC
:104BF000FFEFAF1ABF0ACECFAF92BF92CF92DF9234
:104C0000FF920F931F93CF93DF936C01EB018A0107
:104C10000E945B27F82E811123C00115110539F080
:104C2000F80180819181C81BD90BC80ED91EB12C07
:104C3000A12C2097A9F08091E80085FD22C08091E9
:104C4000E8008B778093E80001151105A1F0F801C9
:104C500080819181A80EB91EB182A08285E0F82ED4
:104C60008F2DDF91CF911F910F91FF90DF90CF900B
:104C7000BF90AF9008950E945B278823D1F2F82E51
:104C8000EFCF8091F100F60181936F012197FFEF43
:104C9000AF1ABF0ACECFFC018091C9029091CA021F
:104CA00086179707A0F06115710529F49091E80027
:104CB0009E779093E80090E06115710551F4911191
:104CC00008C08091E80082FF34C080E00895BC01F4
:104CD000F2CF8091C2028823C1F18530C1F1809169
:104CE000E80083FD30C08091E80082FDEACF80912A
:104CF000E80080FFE1CF8091F3002091F200382F8F
:104D00006115710519F02830310558F091E028300F
:104D1000310509F090E02091E8002E772093E8001B
:104D2000CBCF81918093F100615071092F5F3F4F8C
:104D3000E7CF8091C202882341F0853041F0809115
:104D4000E80083FFBECF81E0089582E0089583E00C
:104D50000895FC018091C9029091CA0286179707B5
:104D6000A0F06115710529F48091E8008E77809399
:104D7000E80090E06115710551F4911108C080912F
:104D8000E80082FF35C080E00895BC01F2CF809139
:104D9000C2028823C9F18530C9F18091E80083FD02
:104DA00031C08091E80082FDEACF8091E80080FF69
:104DB000E1CF8091F3002091F200382F6115710549
:104DC00019F02830310558F091E02830310509F00C
:104DD00090E08091E8008E778093E800CBCF8491BB
:104DE0008093F1003196615071092F5F3F4FE6CFFC
:104DF0008091C202882341F0853041F08091E80023
:104E000083FFBDCF81E0089582E0089583E0089597
:104E1000982F973028F08F708093E90081E00895F3
:104E20009093E900242F762F50E0981731F070917D
:104E3000EC002091ED005091F00021FD02C09F5F39
:104E4000E8CF3091EB003E7F3093EB003091ED00E6
:104E50003D7F3093ED003091EB0031603093EB00FB
:104E60007093EC002093ED005093F0002091EE0041
:104E700027FDE5CF80E008958091C30287FF13C02E
:104E80008091E80082FF06C08091E8008B778093D4
:104E9000E80004C08091C2028111F2CF0895809190
:104EA000C2028823D9F38091E80080FFF8CF809177
:104EB000E8008E77ECCF2091E4003091E50095E694
:104EC000A9012091EC00822F817020FF06C0809103
:104ED000E80080FF06C080E008952091E80022FDF0
:104EE0001AC08091C202882389F0853089F08091B0
:104EF000EB0085FD0FC02091E4003091E5004217E2
:104F00005307F9F29150E1F684E0089582E00895A4
:104F100083E0089581E008950E94FA270E94022804
:104F2000E0EEF0E0808181608083E8EDF0E0808158
:104F30008F77808319BCA7EDB0E08C918E7F8C9326
:104F400080818F7E80831092C10208950F931F93FA
:104F5000CF93DF930E94FA270E940228C8EDD0E089
:104F600088818F77888388818068888388818F7D16
:104F7000888319BC1092C2021092BE021092C00225
:104F80001092BF0200EE10E0F80180818B7F8083D9
:104F900088818160888342E060E080E00E94082789
:104FA000E1EEF0E080818E7F8083E2EEF0E08081B0
:104FB00081608083808188608083F80180818E7F1A
:104FC0008083888180618883DF91CF911F910F91C9
:104FD0000895E8EDF0E080818F7E8083E7EDF0E0DA
:104FE00080818160808384E082BF81E08093C10200
:104FF0000C94A627E8EDF0E080818E7F80831092EC
:10500000E20008951092DA001092E10008951F92D4
:105010000F920FB60F9211242F933F934F935F93EC
:105020006F937F938F939F93AF93BF93EF93FF9370
:105030008091E10082FF0BC08091E20082FF07C0F7
:105040008091E1008B7F8093E1000E94712A809122
:10505000DA0080FF19C08091D80080FF15C08091D0
:10506000DA008E7F8093DA008091D90080FF96C0AD
:1050700080E189BD82E189BD09B400FEFDCF81E0F8
:105080008093C2020E94C6238091E10080FF19C074
:105090008091E20080FF15C08091E2008E7F8093B6
:1050A000E2008091E20080618093E2008091D8006C
:1050B00080628093D80019BC85E08093C2020E9470
:1050C000D9238091E10084FF2BC08091E20084FF0E
:1050D00027C080E189BD82E189BD89B5982F917093
:1050E00080FFFBCF8091D8008F7D8093D800809186
:1050F000E1008F7E8093E1008091E2008F7E8093BB
:10510000E2008091E20081608093E2008091BE0223
:10511000882309F449C084E08093C2020E94E123FD
:105120008091E10083FF29C08091E20083FF25C0C8
:105130008091E100877F8093E10082E08093C2024A
:105140001092BE028091E1008E7F8093E1008091F9
:10515000E2008E7F8093E2008091E2008061809384
:10516000E20042E060E080E00E9408278091F000C9
:1051700088608093F0000E94D723FF91EF91BF9148
:10518000AF919F918F917F916F915F914F913F91DF
:105190002F910F900FBE0F901F90189519BC109271
:1051A000C2020E94D42370CF8091E30087FD93E078
:1051B0009093C202B3CF1F920F920FB60F92112499
:1051C0002F933F934F935F936F937F938F939F930F
:1051D000AF93BF93CF93DF93EF93FF93D091E90009
:1051E000DF708091EC00C82FC17080FDC0E8109284
:1051F000E9008091F000877F8093F00078940E940E
:105200001F291092E9008091F00088608093F000DF
:10521000CD2BCF70C093E900FF91EF91DF91CF913B
:10522000BF91AF919F918F917F916F915F914F91BE
:105230003F912F910F900FBE0F901F9018951F93C5
:10524000CF93DF93CDB7DEB7AA970FB6F894DEBF42
:105250000FBECDBF83EC92E02091F100FC012193C1
:10526000CF01F2E08B3C9F07B9F70E94092480919F
:10527000E80083FF1EC18091C3029091C4029A305E
:1052800008F017C1E92FF0E0EF56F44D0C94E72A2F
:10529000803899F0823809F00CC18091C7028F7074
:1052A000873008F006C18093E9008091EB0085FB10
:1052B000882780F91092E90006C08091BF02909182
:1052C000C002911182609091E800977F9093E8006E
:1052D0008093F1001092F1008091E8008E77E5C094
:1052E000882309F4D3C0823009F0E3C08091C5025D
:1052F0008111D6C08091C7028F702FEF280F263002
:1053000008F0D7C08093E9002091EB0020FFC8C0CF
:10531000933031F48091EB0080628093EB00C0C049
:105320009091EB0090619093EB0021E030E001C0A0
:10533000220F8A95EAF72093EA001092EA00809102
:10534000EB008860EACF8111B4C01091C5021F77CD
:105350008091E3008078812B8093E3008091E800C6
:10536000877F8093E8000E943C278091E80080FFBF
:10537000FCCF8091E30080688093E30082E011110C
:1053800083E08093C20295C08058823008F091C0BB
:105390008091C5029091C6028C3D23E09207A1F551
:1053A00083E08A838AE289834FB7F894DE011396FB
:1053B00020E03EE051E2E32FF0E050935700E4910B
:1053C00020FF03C0E295EF703F5FEF708E2F90E0FB
:1053D000EA30C0F0C7968D939D932F5F243159F723
:1053E0004FBF8091E800877F8093E8006AE270E019
:1053F000CE0101960E944B268091E8008B77809326
:10540000E80057C0C096E7CF6091C7027091C8020C
:10541000AE014F5F5F4F0E943E25BC01892B09F40E
:1054200048C09091E800977F9093E80089819A8125
:105430000E94A926E1CF8038E1F58091E800877FBE
:105440008093E8008091BE028093F10045CF8111E6
:1054500030C09091C502923060F58091E800877F5E
:105460008093E8009093BE020E943C278091BE0288
:10547000882311F084E005C08091E30087FDFACF16
:1054800081E08093C2020E94EB2313C08091C50289
:10549000813079F481E0933009F080E08093C0029C
:1054A0001092E9008091E800877F8093E8000E94D5
:1054B0003C278091E80083FF0AC08091E800877F45
:1054C0008093E8008091EB0080628093EB00AA96C5
:1054D0000FB6F894DEBF0FBECDBFDF91CF911F9105
:1054E00008950895CF938091C2028823A1F0C091BE
:1054F000E900CF709091EC00892F817090FD80E8D9
:10550000C82B1092E9008091E80083FD0E941F29BA
:10551000CF70C093E900CF910895DB018F939F93E3
:105520000E94032BBF91AF91A29F800D911DA39F5D
:10553000900DB29F900D11240895AA1BBB1B51E141
:1055400007C0AA1FBB1FA617B70710F0A61BB70BF3
:10555000881F991F5A95A9F780959095BC01CD0198
:10556000089597FB072E16F4009407D077FD09D015
:105570000E949D2A07FC05D03EF4909581959F4F8F
:105580000895709561957F4F0895A1E21A2EAA1B88
:10559000BB1BFD010DC0AA1FBB1FEE1FFF1FA217E3
:1055A000B307E407F50720F0A21BB30BE40BF50BE0
:1055B000661F771F881F991F1A9469F76095709569
:1055C000809590959B01AC01BD01CF010895EE0F30
:1055D000FF1F0590F491E02D09946927962769270C
:1055E0007827872778270895A29FB001B39FC0012D
:1055F000A39F700D811D1124911DB29F700D811DFF
:105600001124911D08950E94F42AA59F900DB49F26
:10561000900DA49F800D911D11240895FC0141500F
:10562000504030F001900616D1F73197CF01089520
:10563000882799270895FB01DC0104C08D91019012
:10564000801921F441505040C8F7881B990B0895E8
:10565000F999FECF92BD81BDF89A992780B508953A
:10566000A6E1B0E044E050E00C94622BA8E1B0E089
:1056700042E050E00C94622B262FF999FECF92BDA8
:1056800081BDF89A019700B4021639F01FBA20BD07
:105690000FB6F894FA9AF99A0FBE08950396272F39
:1056A0000E943D2B0E943C2B252F0E943D2B242F36
:1056B0000C943D2B0196272F0E943D2B0C943C2BE4
:1056C000DC01CB01FC01F999FECF06C0F2BDE1BDC2
:1056D000F89A319600B40D9241505040B8F70895B1
:1056E000F894FFCF47064706780678060B0727078A
:1056F000A706A70632079907A807A807801C8E1CD3
:10570000B51CC11CCC1CD71CDA1CE11CE81C331DC9
:10571000331DED1CF11CF91C061D131D161D191D52
:10572000261D48297029592A7029592AA329C429D4
:06573000592A1B2A272A5A
:10573600C8000E02280850011E0A140100090009BB
:10574600090105232A23092398239423082301E228
:1057560000E900EA00B500B600B700CD008301CC31
:10576600008A0192019401210223022402250226C5
:105776000227022A02B300B4006F00700081828300
:10578600E200E900EA00B500B600B700CD008301EB
:10579600CC008A01920194012102230224022502EF
:1057A600260227022A02B300B4006F00700081822D
:1057B600839766949133F4F531F6F7C63400010207
:1057C6000202024022B6A105C904EB046E04870456
:0257D600A70426
:00000001FF
