:100000000C9470030C948D030C948D030C948D034D
:100010000C948D030C948D030C948D030C948D0320
:100020000C948D030C948D030C94BF2A0C947B2AA2
:100030000C94BC2B0C948D030C948D030C948D03A9
:100040000C948D030C948D030C948D030C948D03F0
:100050000C948D030C94982B0C948D030C948D03AD
:100060000C948D030C948D030C948D030C948D03D0
:100070000C948D030C948D030C948D030C948D03C0
:100080000C948D030C948D030C948D030C948D03B0
:100090000C948D030C948D030C948D030C948D03A0
:1000A0000C948D030C948D030C948D0305010902AF
:1000B000A10185020901A100050919012905150001
:1000C00025019505750181029501750381010501E1
:1000D000093009311581257F950275088106093897
:1000E0001581257F950175088106050C0A380215D2
:1000F00081257F950175088106C0C005010980A191
:1001000001850319012AB700150126B7009501756D
:10011000108100C0050C0901A101850419012AA064
:1001200002150126A002950175108100C005010984
:1001300006A1018506050719E029E71500250195A7
:1001400008750181020507190029EF1500250195A1
:10015000F0750181020508190129059505750191C0
:1001600002950175039101C00660FF0961A10109B3
:1001700062150026FF0095207508810209631500AD
:1001800026FF00952075089102C005010906A1010E
:10019000050719E029E71500250195087501810279
:1001A0009501750881010507190029FF150026FF33
:1001B0000095067508810005081901290595057542
:1001C000019102950175039101C00000000000003B
:1001D000000000000000000000000000000000001F
:1001E00000000000000000000000000000007E0F82
:1001F00000D4FFFFFFC700000078000000000000EF
:1002000000002A2B28000000000000000000000071
:10021000000000000029000000002C1E34202122D4
:1002200024342627252E362D3738271E1F2021223D
:10023000232425263333362E37381F0405060708B6
:10024000090A0B0C0D0E0F101112131415161718A6
:10025000191A1B1C1D2F3130232D350405060708E4
:10026000090A0B0C0D0E0F10111213141516171886
:10027000191A1B1C1D2F3130354C1E140A05FD3771
:100280007A585A000004E6D6B4460200210116004E
:100290000000742FE5A3E0016700CE5D003D888972
:1002A000C65436C3174FE4C527D28B71D7896686EB
:1002B000B2ED8FBF4C8A426DF66149D3F217C6FC8E
:1002C00093C195B5ABBF22918F6B45FE1B4F266046
:1002D000912B6147AC5B0517C4E7BB4673F711AEC2
:1002E000567A57215D335D46F93D9F8D127AE2487B
:1002F0006D45C6B2E6E8B380E3165A9D7D9BC73FC5
:10030000ACF66BAC7C6595D9CFBA3681308B94DC7A
:1003100055FA4BF4943B73B5DA033FE83921717415
:100320003D8A308D546366CC48CA9935E24ECB3253
:10033000F9FD753A1EDD40062B69217657DD72E125
:100340003267A279974EE87CE8BF956557195B76CE
:1003500088651C8483D8095F7C63B12918514032B9
:10036000AFE1FF078148B7CF100380000000098884
:100370004FE4F5D925A60001EA01E8020000307833
:10038000A559B1C467FB020000000004595A0001DE
:100390000101010101010101020202020202020245
:1003A0000203030303030303030404040404040417
:1003B00005050505050606060606070707070708DB
:1003C000080808090909090A0A0A0B0B0B0C0C0C8E
:1003D0000D0D0D0E0E0E0F0F0F1010111111121228
:1003E00013131414151516161717181819191A1AA5
:1003F0001B1B1C1D1D1E1E1F202021222223242406
:10040000252626272829292A2B2C2D2D2E2F303141
:100410003232333435363738393A3B3C3D3E3F4053
:100420004142434445464748494A4C4D4E4F50513E
:100430005354555658595A5B5D5E5F6162646566F8
:1004400068696B6C6D6F7072737577787A7B7D7E7F
:100450008082838587888A8C8E8F91939596989ACF
:100460009C9EA0A2A3A5A7A9ABADAFB1B3B5B7BAE7
:10047000BCBEC0C2C4C6C9CBCDCFD1D4D6D8DBDDBB
:10048000DFE2E4E7E9EBEEF0F3F5F8FAFDFF222313
:10049000252628292A2C2D2F3032333536383A3B61
:1004A0003D3E4042434547494A4C4E5051535557B3
:1004B000595A5C5E6062646668696B6D6F717375D2
:1004C00077797B7D7F81838587898A8C8E909294D2
:1004D00096989A9C9E9FA1A3A5A7A8AAACAEAFB1DF
:1004E000B3B4B6B8B9BBBCBEBFC1C2C3C5C6C7C929
:1004F000CACBCCCDCED0D1D2D2D3D4D5D6D7D7D8E3
:10050000D9D9DADADBDBDBDCDCDCDCDCDDDDDDDD34
:10051000DCDCDCDCDCDBDBDBDADAD9D9D8D7D7D63C
:10052000D5D4D3D2D2D1D0CECDCCCBCAC9C7C6C5F3
:10053000C3C2C1BFBEBCBBB9B8B6B4B3B1AFAEAC39
:10054000AAA8A7A5A3A19F9E9C9A98969492908EE4
:100550008C8A89878583817F7D7B79777573716FBD
:100560006D6B6968666462605E5C5A595755535199
:10057000504E4C4A4947454342403E3D3B3A38364F
:10058000353332302F2D2C2A2928262523221400FA
:100590001A000800150017001C0018000C001300BA
:1005A00004611600070009000A000B000D000E0090
:1005B00012001D621B00060019002C4105001100ED
:1005C00010620F423A003B003C003D003E003F00FD
:1005D00001004B004C004000410042004300440039
:1005E00045004A004D000100370036003400340257
:1005F0000100260227024E00010029001E001F00F4
:1006000020002E000100010052002A0001002100FC
:10061000220023002D00380050004F000100276207
:1006200024002500260001002E022502510028008A
:1006300009025B00030100A0FA09040000010301A4
:100640000100092111010001224000070581030872
:10065000000109040100020300000009211101004A
:100660000122220007058203200001070503032061
:10067000000109040200010300000009211101002A
:100680000122BC00070584032000011201000200C2
:10069000000008EDFE60600100010203011C03760A
:1006A00000690061006C003A0066003600340063A7
:1006B00000320062003300630000000E035000614E
:1006C0000069006E003200370000000E035500750F
:1006D0000075007000610068000000040309040058
:1006E00011241FBECFEFDAE0DEBFCDBF11E0A0E0E6
:1006F000B1E0EAE8F9E602C005900D92AE36B10726
:10070000D9F725E0AEE6B1E001C01D92A630B207F0
:10071000E1F70E94E32B0C9498340C940000E8ED70
:10072000F0E080818E7F80831092E2001092DA00E8
:100730001092E100A0EEB0E08C9181608C938081FA
:100740008F77808319BCA7EDB0E08C918E7F8C935E
:1007500080818F7E80831092CE0408952091E400E2
:100760003091E50095E6A9012091EC00822F81707F
:1007700020FF06C08091E80080FF06C080E0089559
:100780002091E80022FD1AC08091F304882389F0AB
:10079000853089F08091EB0085FD0FC02091E40049
:1007A0003091E50042175307F9F29150E1F684E0E9
:1007B000089582E0089583E0089581E00895EF921E
:1007C000FF920F931F93CF937C018B010E94AE0386
:1007D000C82F811117C08091E80085FD0BC0809162
:1007E000E8008E778093E8000E94AE03882399F397
:1007F000C82F08C0F70181917F018093F10001505B
:10080000110949F78C2FCF911F910F91FF90EF9015
:1008100008958091F50487FF13C08091E80082FF5E
:1008200006C08091E8008B778093E80004C0809137
:10083000F3048111F2CF08958091F3048823D9F352
:100840008091E80080FFF8CF8091E8008E77ECCFB0
:10085000982F9093E900242F762F50E0891731F0DC
:100860007091EC002091ED005091F00021FD07C047
:100870009F5F973071F78093E90081E00895309190
:10088000EB003E7F3093EB003091ED003D7F3093E5
:10089000ED003091EB0031603093EB007093EC0091
:1008A0002093ED005093F0002091EE0027FDE0CF63
:1008B00080E00895CF92DF92EF92FF920F931F9303
:1008C000CF93DF93C8EDD0E088818F7E8883E7EDFA
:1008D000F0E080818160808384E082BF81E080934A
:1008E000CE0488818E7F888302EE10E0F8011082AA
:1008F0001092DA0081EEC82ED12CF6011082888188
:100900008F77888388818068888388818F7D8883BA
:1009100019BC1092F3041092F4041092F204109295
:10092000F10490EEE92EF12CF70180818B7F80831A
:1009300088818160888342E060E080E00E94280432
:10094000F60180818E7F8083F801808181608083C1
:10095000808188608083F70180818E7F8083888199
:1009600080618883DF91CF911F910F91FF90EF906D
:10097000DF90CF900895FC018091FB049091FC04DE
:1009800086179707A0F06115710529F49091E8008A
:100990009E779093E80090E06115710551F49111F4
:1009A00008C08091E80082FF34C080E00895BC0157
:1009B000F2CF8091F3048823C1F18530C1F1809199
:1009C000E80083FD30C08091E80082FDEACF80918D
:1009D000E80080FFE1CF8091F3002091F200382FF2
:1009E0006115710519F02830310558F091E0283073
:1009F000310509F090E02091E8002E772093E8007F
:100A0000CBCF81918093F100615071092F5F3F4FEF
:100A1000E7CF8091F304882341F0853041F0809145
:100A2000E80083FFBECF81E0089582E0089583E06F
:100A3000089508958091D004089587E797E79093EB
:100A400001088093000888E19AE00FB6F894A89511
:100A5000809360000FBE90936000FFCF9C014FB762
:100A6000F8948091C5049091C604A091C704B091F8
:100A7000C8044FBF821B930B08952FB7F894609161
:100A8000C5047091C6048091C7049091C8042FBF1B
:100A900008952FB7F8948091C5049091C604A09151
:100AA000C704B091C8042FBF0895209113012223D9
:100AB000C1F02091C90427FF14C0E62FE695E69502
:100AC000E695EE31F8F4E80FF92FF11D677021E09B
:100AD00030E001C0220F6A95EAF78281822B82837F
:100AE0000895FC0132962FEF30E04191641751F0E8
:100AF0002F3F19F4411101C0232F3F5F3630A9F772
:100B00002F3F09F40895820F911D27FD9A95FC014E
:100B1000628308952091C2043091C30428173907D5
:100B200071F09093C3048093C204E091C004F091EB
:100B3000C104309721F00084F185E02D09940895D7
:100B40002091BE043091BF042817390771F09093AB
:100B5000BF048093BE04E091C004F091C1043097BB
:100B600021F00680F781E02D09940895E091C004FA
:100B7000F091C104309721F00190F081E02D0994AB
:100B800080E00895CF93DF93EC014091FF035091F3
:100B9000000460910104709102042FB7F8948091D1
:100BA000C5049091C604A091C704B091C8042FBF9A
:100BB000841B950BA60BB70B843F9140A105B10593
:100BC00018F58091FF0390910004A0910104B09169
:100BD00002048093FB039093FC03A093FD03B09366
:100BE000FE0384EF91E0A0E0B0E08093F7039093E0
:100BF000F803A093F903B093FA03D0930704C093CA
:100C00000604DF91CF9108950E943D056093FB0398
:100C10007093FC038093FD039093FE0382E390E0C6
:100C2000A0E0B0E0E2CFFC018481862351F4928100
:100C30009923B9F06923808583FF05C081E06111A4
:100C40000FC080E00895892F8F7092959F70982B28
:100C5000862F8F7062956F70682B81E09613F1CFAD
:100C6000089581E0FDCFDC016091F3038091F403EE
:100C7000962F891301C00895292F30E0F901EE0F56
:100C8000FF1FE551FC4F408151814A175B07A1F4DA
:100C900087E08A9FA0018B9F500D11244D545C4F1B
:100CA00081E0FA0184839613E6CF2F5F3F4F2370D4
:100CB00033272093F30308952F5F3F4F922F9370B4
:100CC000D8CF1092500310924F03E3EBF3E08581ED
:100CD000811102C014821682379683E0EB3EF8073A
:100CE000B1F708958F929F92AF92BF92EF92FF92C9
:100CF0000F931F93CF93DF938430B8F5811136C0E3
:100D0000909180009F77909380002D98A09186000D
:100D1000B0918700282F30E00E94F43323E030E0C8
:100D200040E050E00E94C53389019A01809186001D
:100D3000909187006CE070E00E949D33601771070E
:100D4000D8F0C80169E070E00E949D33709389007B
:100D500060938800DF91CF911F910F91FF90EF90EA
:100D6000BF90AF909F908F90089583E09091800006
:100D7000906890938000CACF809186009091870000
:100D8000E0908600F0908700E0918600F091870067
:100D9000C6E0D0E0BE010E949D33060F171F211D43
:100DA000311D4801590185E0880C991CAA1CBB1C07
:100DB0008A95D1F7C701BE010E949D339F0150E083
:100DC00040E0260F371F411D511DC501B4010E948F
:100DD000C53349015A01E0918600F0918700CA01AC
:100DE000B9010E948D339B01AC01DF010E940334E5
:100DF0009B01AC01C501B4010E948D332FE0969593
:100E00008795779567952A95D1F70091860010917F
:100E1000870030E020E0061717072807390708F099
:100E200095CF609186007091870090CF282F220F78
:100E3000220F220F90915D029770922B90935D028A
:100E4000987F21E009F420E090915D0220FB90F969
:100E500090935D020C947206FA01811101C0FB01AE
:100E60000994089580910105982F9E7F29F481703F
:100E700082608093010508958C30E8F381708A6068
:100E8000F8CFAF92BF92DF92EF92FF920F931F9332
:100E9000CF93DF93082F162FE901E42FF0E0E257FC
:100EA000FC4F611110C0E4915E2F4E2F4983E883FF
:100EB0005A83DF91CF911F910F91FF90EF90DF90B8
:100EC000BF90AF900895E62EF12C4491D42EE42FDC
:100ED000F0E026E0829FC00111242FEF30E0B9013D
:100EE0000E949D33802F90E0880F991F55E5569FF3
:100EF000D001579FB00D11248A1B9B0B982F990F7F
:100F0000890F5901AE18BF08AE9ED001AF9EB00D3B
:100F1000BE9EB00D11245B2F189F80011124012F5C
:100F200011275901A01AB10AAE9E8001AF9E100D83
:100F3000BE9E100D11245901A81AB108AE9CC00123
:100F4000AF9C900DBE9C900D1124892F9927281BD2
:100F5000390B2E9FC0012F9F900D3E9F900D1124A5
:100F6000E92F62307105A1F050F46115710509F4A3
:100F70009DCF6130710581F0EB2F512F97CF6430F9
:100F8000710569F080F06630710509F48FCFF4CFF8
:100F9000E42F4B2F592F8ACFE42F412F87CFEB2FF0
:100FA000542F492F83CF4B2F5D2DE12F7FCF0E94F0
:100FB00049059C019091360280913702982B21F0CF
:100FC000309333022093320290913802809139029B
:100FD000982B21F03093310220933002E091C0042D
:100FE000F091C104309749F082E08093340204808C
:100FF000F581E02D84E392E0099408959091360202
:10100000803F59F48091370287FF0DC0109237025C
:1010100091110BC010922E0208C0813F81F4809183
:10102000370218169CF3992381F080913802909131
:101030003902892B09F064C010922D020895823F75
:1010400049F497FFF0CF1092360280913702811158
:10105000ECCFE0CF833F19F41916ACF3E4CF209125
:101060003802893F29F41216F4F610923802DBCFC9
:101070008A3F19F427FFD7CFF8CF209139028B3F51
:1010800029F427FFD0CF10923902CDCF8C3F19F42D
:101090001216CCF3C8CF843F31F4809135028E7F95
:1010A00080933502C0CF853F21F4809135028D7F3A
:1010B000F7CF863F21F4809135028B7FF1CF873FB8
:1010C00021F480913502877FEBCF883F21F4809116
:1010D00035028F7EE5CF8D3F31F480912F028E7FD8
:1010E00080932F02A0CF8E3F21F480912F028D7F1D
:1010F000F7CF8F3F09F097CF80912F028B7FF0CFF2
:10110000089580912F0280FD16C081FD16C082FDDA
:1011100016C080912D028823A1F0883280F428E047
:10112000829FC001112468E270E00E94B133862FD3
:10113000672B39F0089582E0089584E0089588E0EF
:10114000089581E0089580912F0280FD14C081FDF3
:1011500014C082FD16C080912E02882381F08E314A
:1011600080F420E5829FC00111246EE170E00E94AE
:10117000B133862F089584E1089588E2089588E0C8
:10118000089580E50895803F31F40E94A308819579
:10119000809337020895813F19F40E94A308F8CF85
:1011A000823F31F40E94A30881958093360208950E
:1011B000833F19F40E94A308F8CF893F29F40E94C5
:1011C00081088093380208958A3F21F40E948108A3
:1011D0008195F7CF8B3F31F40E94810881958093F0
:1011E000390208958C3F19F40E948108F8CF843F9A
:1011F00031F4809135028160809335020895853FF6
:1012000021F4809135028260F7CF863F21F48091EE
:1012100035028460F1CF873F21F4809135028860E8
:10122000EBCF883F21F4809135028061E5CF8D3F7F
:1012300031F480912F02816080932F0208958E3FB8
:1012400021F480912F028260F7CF8F3FB9F7809110
:101250002F028460F1CF80E00895F894E82FE295A2
:10126000EF70F0E031A1282F2F7081E090E001C0F5
:10127000880F2A95EAF7982F9095932391A392A12E
:10128000892B82A3789408959091C90492FF06C097
:10129000282F28712830F9F4877F846093FF06C0D7
:1012A000282F28712831F1F4877E84612091CA04A7
:1012B00020FF06C0382F38713830D9F4877F81601D
:1012C00021FF06C0282F28712831D1F4877E816143
:1012D00094FD877E0895282F24712430F9F68B7FA2
:1012E0008860DCCF282F2471243101F78B7E886140
:1012F000DDCF382F3171313019F78E7F8860E0CF24
:10130000282F2171213121F78E7E8861E1CFCF9383
:10131000DF93EC0182389105A9F1D8F5813391056D
:1013200009F496C048F58932910509F48AC08A9774
:1013300009F495C0C11521E5D20708F0BCC0C1155C
:1013400030E5D30708F014C1C83ED10508F09CC0B1
:10135000C03ED10560F5C83AD10508F087C0C53A4E
:10136000D10508F0FDC0C130D10509F12097F9F091
:10137000C430D105E0F440C08533910509F45AC06A
:10138000C997C1F68091C904837089F0C0EED0E09E
:101390000EC0833E910599F170F4803E910501F1F4
:1013A000823E910539F68091C90482FD21C0CE01AB
:1013B000DF91CF910895863E910561F1873E9105B9
:1013C00071F1843E910509F0B5CF8091CA0481FF87
:1013D000EECF8091C904C7EED0E084FD0DC0E7CF09
:1013E0008091C90480FD12C19091CA0490FFDFCFA3
:1013F000C3EED0E084FFDBCFD0E0C0E0D8CF809157
:10140000C90482FD06C19091CA0490FDBFCF84FF3C
:10141000CECFF2CF8091C90483FDDDCFC8CF8091BC
:10142000C90483FDF9C09091CA0491FFF0CFC4EEC6
:10143000D0E0BDCF8091C90485FFB9CFC9E2D0E02B
:10144000B6CF8091C90485FFB2CFC5E3D0E0AFCF5E
:101450008091C90486FFABCFCAE2D0E0A8CF8091CB
:10146000C90486FFA4CFC1E3D0E0A1CFCF3BD10513
:1014700018F6C85AD0E0CC0FDD1FC15EDE4F0990D0
:10148000D881C02DD46493CFC11540E2D40758F45D
:10149000C11581E0D80708F08ACFC03FD10508F414
:1014A000ABCFD06584CFC11590E4D90708F4A4CFA1
:1014B000DF70D06A7CCFC11525E5D20700F5C115D4
:1014C00034E5D30708F08AC0C11543E5D40708F016
:1014D00071C0C11582E5D80708F467C0CE018370DA
:1014E000992721E030E002C0220F331F8A95E2F7EE
:1014F000C695C69580E2C89FE001112452C0C1156F
:1015000099E5D907A8F4C11528E5D20708F06BC002
:10151000C11536E5D30708F06FCF8C2F0E94440920
:10152000C82FD0E0DC2FCC27CC27DF71D0623FCF93
:10153000C1154AE5D40708F45BC0CE019056811569
:10154000904208F059CF8D2F8F710E94440990E08E
:10155000982F882788279F719C012C2BE901E6CFC3
:10156000C55AD0E0C45EDE4FC881D0E0D0641FCF42
:10157000CE01E4E096958795EA95E1F783702C2FEC
:1015800026952695237040E2249F90011124382B44
:101590008C2F8370C1E0D0E002C0CC0FDD1F8A9594
:1015A000E2F7C22BD32BDC6802CFDC2FCC27C16F34
:1015B000D06AFDCECE018370992721E030E002C0D1
:1015C000220F331F8A95E2F7C695C69590E2C99F10
:1015D000E0011124C22BD32BDA68E9CEDC2FCC2713
:1015E000C46FD06AE4CEDC2FCC27C06FD06ADFCEC8
:1015F0008C2F8F700E94440934E0D695C7953A9598
:10160000E1F7CF709C2FEC01D069D1CEC9E3D0E0D7
:10161000CECEC2EED0E0CBCEC6EED0E0C8CE80912A
:101620000F02882331F010920F0210920E021092D6
:101630000D020895809590910B04982390930B04CC
:101640000895809590910A04982390930A04089530
:101650001092EC011092EB011092EA010895809132
:10166000E90181111092E9010895909113019923E4
:10167000D1F09091C90497FF16C0E82FE695E69542
:10168000E695EE31E0F4F0E0E059FE4F282F2770A8
:1016900081E090E001C0880F2A95EAF78095928159
:1016A000892382830895E2E7F1E09191891303C0D1
:1016B000DF0111971C9291E0E837F907B1F708951F
:1016C0008091E8019091A701981301C008958F5F60
:1016D0008770FACF9E3F49F1E82F29E0929FE00DF5
:1016E00011249E2F9770E695E695E69583E0E89F96
:1016F000F0011124ED56FE4F50E040E080E02191D2
:1017000030E0092E02C0369527950A94E2F7217041
:101710003327042E01C0220F0A94EAF7822B4F5F71
:101720005F4F4330510559F7089580E008959E3F7B
:1017300069F1E82F29E0929FE00D11248E2F877028
:1017400041E001C0440F8A95EAF7E695E695E695F3
:1017500083E0E89FF0011124ED56FE4F30E020E0D9
:1017600070E05191DF011197CB01022E02C09695D6
:1017700087950A94E2F781708195852784238527D0
:101780008C932F5F3F4F2330310559F7089580FF29
:1017900005C02E9A81FF04C0589A08952E98FACF5A
:1017A000589808959C013A9521153F4150F5FC0148
:1017B000EE27F170BC0166277270AC0144275470AB
:1017C0009C012227387094FF0EC080E1EF2B09F4B2
:1017D00080E0672B09F08062452B09F08064232BA1
:1017E00089F08068089581E0EF2B09F480E0672B91
:1017F00009F08260452B09F08460232B19F0886082
:10180000089580E008958093CB047093CD04609395
:10181000CC048091F3048430F9F48093E9008FEFD5
:101820009091E800815095FD06C095ED9A95F1F7ED
:1018300000008111F5CF8091E80085FF0DC050E0D8
:1018400040E063E070E08BEC94E00E94DF03809165
:10185000E8008E778093E8000895BC0184E00C9442
:10186000030CBC0183E00C94030C9C0184E0809386
:10187000E9009FEF8091E800915085FD06C085ED5D
:101880008A95F1F700009111F5CF8091E80085FF6E
:101890000CC050E040E066E070E0C9010E94DF0348
:1018A0008091E8008E778093E8000895CF93DF93CE
:1018B000EC01809113018823B1F18091C90487FF65
:1018C00032C060E284E08093E9008FEF9091E800FD
:1018D000815095FD06C095ED9A95F1F700008111B4
:1018E000F5CF8091E80085FF1BC08091130170E067
:1018F00050E040E0811104C050E040E068E070E05A
:10190000CE010E94DF038091E8008E778093E8008B
:1019100080E2FE01A1EDB4E001900D928A95E1F71D
:10192000DF91CF91089568E081E0CDCF80910105EE
:1019300080FD0AC0EAE3F2E011821082128233963F
:1019400052E0E535F507C1F7229A35B13B7F25B165
:1019500024604FB7F8948AE392E0FC015191CF01E3
:1019600068E025B9000000C057FF35B9550F0000E9
:1019700000C000C000C035B900C06A9591F7F2E020
:1019800085359F0751F74FBF8FE594E00197F1F739
:1019900000C0000008959091010590FF0CC0EAE39B
:1019A000F2E0818360834283339692E0E535F90764
:1019B000C1F70C94960C08950F931F93CF93DF9368
:1019C00000D00F92CDB7DEB78C01DC011496EC91FC
:1019D000F0E0E257FB4F44918091010580FF0EC07B
:1019E0009E012F5F3F4F60910305809102050E9489
:1019F00041074B8169818A810E94CB0CF801848167
:101A00008F5F84830F900F900F90DF91CF911F9184
:101A10000F910895CF93DF93C9EBD1E060E0CE0141
:101A20000E945C342196C11584E0D807B9F7DF9194
:101A3000CF9108950F931F93CF93DF938901833044
:101A400048F5633038F5493028F521153C4531F427
:101A50002091100130911101232BE1F0C42FD0E02F
:101A6000CC0FDD1F92E1699FC00DD11D112496E3BB
:101A7000899FC00DD11D1124612FCE0187960E9430
:101A80005C34602FCE018896DF91CF911F910F912A
:101A90000C945C34DF91CF911F910F910895CF93F7
:101AA000C82F6FEF811160E883E290E00E945C3400
:101AB0006FEFC11169E284E290E00E945C346FEF45
:101AC000C11161E785E290E0CF910C945C34682FFE
:101AD00086E090E00C945C34CF93C92F682F84E0AB
:101AE00090E00E945C346C2F82E290E0CF910C94E5
:101AF0005C347F928F929F92AF92BF92CF92DF928F
:101B0000EF92FF920F931F93CF93DF93CDB7DEB782
:101B10006E970FB6F894DEBF0FBECDBFA090100138
:101B2000B090110181E090E0909311018093100139
:101B30008EE8C82E85E0D82E00E0760110E015C0B2
:101B4000F40125913491472D612F802F0E941A0DA9
:101B500082E0880E911C7394E9E07E12F1CFF2E1ED
:101B6000EF0EF11C1F5F133019F04701712CE8CF05
:101B70000F5F86E3C80ED11C0330F9F61A82198272
:101B80001C821B821E821D8218861F8288EC90E0B8
:101B90009A87898709EC10E04AE050E0B801CE014D
:101BA00001960E948034065F1F4F0931E1E01E0755
:101BB00099F77E01FBE0EF0EF11C8AE0F70111922C
:101BC0008A95E9F74AE050E0B801C7010E948034E5
:101BD000065F1F4F0936F1E01F07A1F77E0185E17F
:101BE000E80EF11C8AE0F70111928A95E9F78FEF70
:101BF0009FEF9A8F898F87E08E8F4AE050E0B8017F
:101C0000C7010E948034065F1F4F093BF1E01F07A8
:101C1000A1F7B0921101A09210016E960FB6F89440
:101C2000DEBF0FBECDBFDF91CF911F910F91FF900F
:101C3000EF90DF90CF90BF90AF909F908F907F906C
:101C4000089580E00E944F0D60E086E290E00E94DF
:101C50005C340E94790D0E940A0D81E00C944F0DB6
:101C60009B01883070F49AE0899FB001112467537A
:101C70007F4F4AE050E0C9010E94383490E080E094
:101C800008958FEF9FEF08958F929F92AF92BF922A
:101C9000CF92DF92EF92FF920F931F93CF93DF9338
:101CA000CDB7DEB72A970FB6F894DEBF0FBECDBF13
:101CB0000EE014E0F12CE12C84EAC82E89E2D82E43
:101CC0009EECA92E99E2B92E29E1822E29E2922ECC
:101CD000F801D182C082B382A28295828482F58A81
:101CE000E48ABE016F5F7F4F8E2D0E94300E892BDC
:101CF00029F489859A85F801938B828BFFEFEF1A7F
:101D0000FF0A0A5E1F4F88E0E816F10409F72A96D9
:101D10000FB6F894DEBF0FBECDBFDF91CF911F91FC
:101D20000F91FF90EF90DF90CF90BF90AF909F907A
:101D30008F9008950F931F93CF93DF93833030F5E7
:101D4000633020F5493010F5C42FD0E0CC0FDD1FF3
:101D500022E1629FC00DD11D112436E3839FC00D87
:101D6000D11D1124CE0187960E944834082F10E01F
:101D7000102F0027CE0188960E9448349801282B06
:101D8000C901DF91CF911F910F91089590E080E0FC
:101D9000F8CF462F20914D0330914E03232B91F421
:101DA0007E3F39F46E3F71F480914B0390914C0368
:101DB0000895833038F4733028F4693018F4672FAD
:101DC0000C949A0E90E080E00895CF92DF92FF92FB
:101DD0000F931F93CF93DF936C010091FD048091CB
:101DE0001002082BC7E0D0E010E0FC2EC8010C2E3A
:101DF00002C0959587950A94E2F780FD0CC0219763
:101E0000A0F7F12C8F2DDF91CF911F910F91FF90B3
:101E1000DF90CF900895B6018C2F0E94C90E0E94CA
:101E20008709019761F3EECFCF93DF93EC010E9416
:101E3000E50EBE010E94C90EDF91CF910C94870977
:101E4000FC0186819781009791F00E948709929505
:101E50009F709630B9F080F4925F9F70923080F45A
:101E6000803F19F058F4883E58F481E0089580814D
:101E700091810E94140FEBCF9A5FEFCF843FA9F3BB
:101E800080E00895883E88F3813FD1F7EECF1F931D
:101E9000CF93DF9300D000D00F92CDB7DEB7FC0117
:101EA000268137812115310541F525E0DE011196A6
:101EB00001900D922A95E1F7FC01228189819A8196
:101EC0002223B9F06623A9F00E94E50E182F682F8F
:101ED00089819A810E94970B69817A81812F0F9065
:101EE0000F900F900F900F90DF91CF911F910C9456
:101EF000C90E0E946A0B182FEFCFC9010F900F90E7
:101F00000F900F900F90DF91CF911F91089583E272
:101F100090E00E944834803889F484E290E00E9486
:101F20004834893259F485E290E00E94483491E0C7
:101F3000813709F090E0892F8170089580E0FCCF0F
:101F4000CF9384E090E00E944834C82F82E290E072
:101F50000E944834982F8C2FCF9108958F929F9292
:101F6000AF92BF92CF92DF92EF92FF920F931F93A7
:101F7000CF93DF93CDB7DEB72A970FB6F894DEBFC5
:101F80000FBECDBF03ED12E081ECC82E82E0D82E4B
:101F900099E6E92EFF24F39427E0922E30ECA32E4D
:101FA00032E0B32E88248394D6010D931D936D01E6
:101FB0004AE050E0B701CE0101960E943834F801A2
:101FC0003896DF01892D1D928A95E9F789819A81DA
:101FD000D80111969C938E938F8112968C931297B1
:101FE0008D8113968C931397888514968C931497F0
:101FF000898515968C9315978B819C8117969C9358
:102000008E93169718961C9218978A8587FF4BC057
:102010001E961C921E921D9780FF03C0D801189631
:102020008C9281FF04C0F80190859260908782FFB6
:1020300007C0D80118969C911897946018969C93A5
:1020400083FF04C0F80190859860908784FF07C0E3
:10205000D80118969C911897906118969C9385FFCB
:1020600004C0F801808580628087015F1F4FFAE01D
:10207000EF0EF11C89EBE81681E0F80609F094CF29
:102080002A960FB6F894DEBF0FBECDBFDF91CF9179
:102090001F910F91FF90EF90DF90CF90BF90AF9086
:1020A0009F908F900895F801B686A586B5CFCF9200
:1020B000DF92EF92FF920F931F93CF93DF93CDB7F1
:1020C000DEB72A970FB6F894DEBF0FBECDBFE0E7AC
:1020D000F2E080E5DF011D928A95E9F7E3EBF3E09A
:1020E00088E3DF011D928A95E9F780E7C82E82E038
:1020F000D82E7F0109E111E0F701D182C0824AE0C8
:1021000050E0B801CE0101960E94383488E0FE010B
:102110003196D60101900D928A95E1F789859A85CD
:10212000D70113969C938E931297BAE0CB0ED11CD5
:10213000E7E0EE0EF11C065F1F4F0936F1E01F07C6
:10214000D9F62A960FB6F894DEBF0FBECDBFDF9149
:10215000CF911F910F91FF90EF90DF90CF90089556
:1021600060910105669570E041E050E08FE091E0FC
:102170000E941734892B19F481E080935C020E943D
:10218000490590935602809355020895CF92DF92AD
:10219000EF92FF926B017C010E943207B701A6010A
:1021A00088E090E0FF90EF90DF90CF900C946E3439
:1021B000EF92FF920F931F93CF93DF9300D00F9274
:1021C000CDB7DEB7F82E062F142FE22E8091010531
:1021D00080FF28C0E82FE695F0E0E75AFE4F908197
:1021E00090935B028E7F823039F59E012F5F3F4FC7
:1021F0008F2D0E9441074B8169818A810E94CB0CFF
:10220000F09202050093030510930405EE2051F0AF
:10221000609101057091020580910305909104057C
:102220000E94C6100F900F900F90DF91CF911F91D9
:102230000F91FF90EF900895923011F710910405DF
:10224000DFCFE1E0F5E0438128E0421B08F440E005
:1022500021E0628181810C94D810E1E0F5E04381B6
:1022600028E0420F08F44FEF21E0628181810C9455
:10227000D810E1E0F5E0628128E0621B08F460E03C
:1022800021E0438181810C94D810E1E0F5E0628186
:1022900028E0620F08F46FEF21E0438181810C9404
:1022A000D810E1E0F5E0818121E04381628188502E
:1022B0000C94D810E1E0F5E0818121E04381628156
:1022C000885F0C94D81080910505882319F08150FF
:1022D00080930505609101057091020580910305C9
:1022E000909104050C94C61080910505833018F474
:1022F0008F5F8093050560910105709102058091C3
:102300000305909104050C94C6109091010590FF6F
:1023100036C09170811129C09260909301056623A7
:1023200051F0609101057091020580910305909133
:1023300004050E94C61060910105669570E041E0B9
:1023400050E08FE091E00E941734892BA9F01092A1
:102350005C0281E08093580220E040910405609186
:102360000305809102050C94D810863010F09A6015
:10237000D4CF880F982BD1CF0E94B010EACF089508
:10238000809101058695815009F485E061E00C9407
:1023900085118091010586958F5F863008F081E078
:1023A00061E00C9485118091010580FF07C086953E
:1023B00082588F77833010F40C94C91161E082E069
:1023C0000C948511E1E0F5E083E0808311828FEFCA
:1023D00082838383148260817181828193810C94D2
:1023E000C61069EE7EEF90E080E00E947A3460E0F3
:1023F00082E090E00E945C3460E083E090E00E9424
:102400005C341092100260E084E090E00E945C3442
:1024100060E082E290E00E945C3460E085E090E061
:102420000E945C3460E086E090E00E945C346FEFD4
:1024300087E090E00E945C3440E050E0BA0188E020
:1024400090E00E946E3460E08DE090E00E945C3489
:1024500040E050E0BA0188E190E00E946E3460E014
:1024600087E190E00E945C3440E050E0BA018CE1EA
:1024700090E00E946E3470E060E080E290E00E94A4
:102480007A3440E050E0BA0188E190E00E946E3476
:1024900080E00E944F0D0E94210E40E050E0BA0102
:1024A0008FE090E00E946E3440E050E0BA0183E19A
:1024B00090E00C946E344F925F926F927F928F9265
:1024C0009F92AF92BF92CF92DF92EF92FF920F93C3
:1024D0001F93CF93DF9300D000D000D0CDB7DEB7ED
:1024E0008E010F5F1F4F86E0F80111928A95E9F780
:1024F0009DE4E92E91E0F92E680120E5422E21E0CD
:10250000522E66246394712C49E5842E41E0942E6A
:10251000F70181917F018F3F09F445C0F894E82FBE
:10252000E295EF70F0E021A18F70A30102C0440F8B
:10253000551F8A95E2F7CA01922F982B91A392A179
:102540008095892382A3789400C0E0E5F1E021E042
:1025500030E0B12CA12C41914F3F09F46DC0A42F64
:10256000A295AF70B0E090968C9190E04F7002C051
:10257000959587954A95E2F780FD5EC0C901A82A26
:10258000B92A220F331F8E169F0629F7F7013197BC
:1025900080818F3F11F00E942D0950EA5A95F1F782
:1025A000F601B182A082F2E0CF0ED11C4E145F047E
:1025B00009F0AECF46E050E0B80184E192E00E941D
:1025C0002434FF24F394009709F4F12C892BB9F1FA
:1025D00086E0F801A4E1B2E001900D928A95E1F75E
:1025E00081E0809313020E94490590931202809328
:1025F000110280911102909112020E942E050597FE
:1026000010F180911402909115029093280280930A
:102610002702809116029091170290932A028093CC
:102620002902809118029091190290932C028093B4
:102630002B021092130207C090E080E0A0CF80919F
:1026400013028111D6CF8F2D26960FB6F894DEBFD8
:102650000FBECDBFDF91CF911F910F91FF90EF90F3
:10266000DF90CF90BF90AF909F908F907F906F90B2
:102670005F904F900895CF9380910A0490910B043E
:10268000892B8093700180910F02882339F10E9479
:10269000490520910D0230910E02821B930B883860
:1026A000934110F00E940F0B8091700190910F02E6
:1026B000892B8093700180911301882309F446C00F
:1026C0008091C90487FF42C08EE1E2E7F1E090E02B
:1026D000815008F03DC091110E940F0BC09103047E
:1026E000C09580917001C82380910404C82BC093C9
:1026F000700140E250E06DEE71E080E791E00E94F1
:102700002434892B59F180E2E0E7F1E0ADEEB1E04D
:1027100001900D928A95E1F7E091C004F091C10417
:102720003097E1F080911301882349F08091C9042A
:1027300087FF05C0C093710186E08093700102801D
:10274000F381E02D80E791E0CF91099486E0BDCF41
:102750002191222309F4BCCF9F5FBACFCF91089576
:10276000EF92FF920F931F93CF93DF93EC018A8533
:10277000811134C0EB80FC8087E5F81A26E12E9D9C
:10278000C0012F9D900D1124DC01A25FBB4F149658
:10279000ED91FC911597309731F054966D917C91A5
:1027A0008C5E9B4F099586E18E9D80018F9D100D5B
:1027B0001124025F1B4FF80187810E94210BF80151
:1027C00080850E941A0B0E943B13188219861B8673
:1027D0001E821D8210920D0410920C04DF91CF9185
:1027E0001F910F91FF90EF900895CF93DF93EC012D
:1027F000898981111BC081E0898B80910A049F81A6
:10280000892B80930A0480910B049885892B8093EF
:102810000B040E943B13EA81FB81309739F06C89ED
:102820007D89CE010696DF91CF910994DF91CF91FA
:10283000089590E080E00E94A00590E080E00E9472
:102840008A0510920B040E943B1386E0E4E3F2E059
:10285000DF011D928A95E9F710922E0210922D0247
:1028600010922F020C94D7078093FD040C94191436
:102870008091FD04982F9670963019F488600C941E
:102880003414877FFCCF21E030E001C0220F8A950D
:10289000EAF720958091FD0482230C9434149091E2
:1028A000EC01809589238093EC01282F277091F407
:1028B000282F082E000C330B9217130659F0909115
:1028C000CA0492FD07C08595859585950E9443149D
:1028D0000C94280B08959091CA0492FB222720F9AA
:1028E000281769F080FB92F99093CA048091C9047B
:1028F0009091CA040E946C0D82E00C944F140895CC
:1029000021E030E001C0220F8A95EAF78091FD04B2
:10291000822B0C9434149091CA0492FD10C098E05C
:10292000899F90011124622B6093EC010E94801416
:102930000E9449059093EB018093EA0108950C945D
:102940008014809310020C94191410920A04809140
:102950001301E2E7F1E0882359F08091C90487FF71
:1029600007C08EE1DF011D928A95E9F70C941914D6
:1029700086E0F8CF1F93CF93DF93CDB7DEB7AA974A
:102980000FB6F894DEBF0FBECDBF85EF94E0209167
:10299000F100DC012D93CD01B4E08D3F9B07B9F729
:1029A0008091F604833009F472C0B8F4813009F4E0
:1029B00049C0823009F4B3C08091E80083FF96C219
:1029C0008091F5049091F6049A3008F08FC2E92FB7
:1029D000F0E0E656FB4C0C94E7338A3009F48EC0E5
:1029E0008B3009F471C0893039F78091F504813258
:1029F00019F78091F9049091FA04009711F0029769
:102A0000D9F68091E800877F8093E8008091E80004
:102A100082FF38C09091F3008091F200029731F468
:102A20008091F100813011F0863021F48091F10025
:102A30008093D0048091E8008B778093E8000E9417
:102A40000904BACF8091F504813A09F0B5CF80919D
:102A5000E800877F8093E8008091F9049091FA0460
:102A6000892B61F460E281ED94E070E00E94BB0488
:102A70008091E8008B778093E8009ECF60E090E043
:102A800080E0F3CF8091F3048111C0CF95CF809186
:102A9000F504813A09F090CF8091F9049091FA04FD
:102AA000892B09F089CF8091E800877F8093E80027
:102AB0008091E80080FFFCCF809113018093F100AA
:102AC0008091E8008E77B9CF8091F504813209F0CA
:102AD00073CF8091F9049091FA04892B09F06CCF9F
:102AE0008091E800877F8093E8000E94090480912C
:102AF000F704809313010E94A5145ECF8091F50422
:102B0000813209F059CF8091E800877F8093E800F7
:102B10000E9409048091F8048093CF044DCF8091E6
:102B2000F504813A09F048CF8091E800877F8093CF
:102B3000E8008091E80080FFFCCF8091CF04BECFF9
:102B4000803899F0823809F0D1C18091F9048F70F2
:102B5000873008F0CBC18093E9008091EB0085FBC2
:102B6000882780F91092E90006C08091F1049091C5
:102B7000F204911182609091E800977F9093E800B1
:102B80008093F1001092F1008091E8008E77AAC145
:102B9000882309F498C1823009F0A8C18091F70414
:102BA00081119BC18091F9048F702FEF280F26307F
:102BB00008F09CC18093E9002091EB0020FF8DC1BB
:102BC000933031F48091EB0080628093EB0085C1FB
:102BD0009091EB0090619093EB0021E030E001C018
:102BE000220F8A95EAF72093EA001092EA0080917A
:102BF000EB008860EACF811179C11091F7041F774B
:102C00008091E3008078812B8093E3008091E8003D
:102C1000877F8093E8000E9409048091E80080FF8C
:102C2000FCCF8091E30080688093E30082E0111183
:102C300083E08093F3045AC18058823008F056C173
:102C40002091F7043091F8042C3DE3E03E07A1F514
:102C500083E08A838AE289834FB7F894DE01139672
:102C600020E03EE051E2E32FF0E050935700E49182
:102C700020FF03C0E295EF703F5FEF708E2F90E072
:102C8000EA30C0F0C7968D939D932F5F243159F79A
:102C90004FBF8091E800877F8093E8006AE270E090
:102CA000CE0101960E94BB048091E8008B7780934F
:102CB000E8001CC1C096E7CF8091F9049091FA0416
:102CC000432F55274330510509F44AC078F5413068
:102CD000510509F485C08BE590E0E0E3F6E0423071
:102CE000510509F003C12091E800277F2093E800F7
:102CF0002091FB043091FC048217930708F49C0197
:102D000040E02115310509F070C041116EC080917D
:102D1000E80082FDC9CF8091F304882329F2853031
:102D200019F28091E80083FFF2CFBECF4132510506
:102D300009F447C04232510509F0D8C083309105EB
:102D400008F0D4C0FC01EE0FFF1FEE59FE4F0190BA
:102D5000F081E02D815A9E4FDC018C9190E01DC0E6
:102D6000332721303105E9F02115310579F0223082
:102D70003105F9F02330310509F0B8C0EDE9F6E08E
:102D8000E4918E2F90E0EDE9F6E007C0EBEDF6E080
:102D9000E4918E2F90E0EBEDF6E0009709F4A6C0E9
:102DA000A2CFEBECF6E0E4918E2F90E0EBECF6E0B6
:102DB000F4CFEBEBF6E0E4918E2F90E0EBEBF6E056
:102DC000ECCF8330910508F091C0880F991FFC016A
:102DD000E859FE4F0190F081E02D89E090E083CF2B
:102DE00082E190E0EBE8F6E07ECF8091F304882367
:102DF00009F45ACF853009F457CF8091E80083FD5C
:102E000053CF8091E80082FD82CF8091E80080FF5F
:102E100078CF9091F3008091F2002115310519F0DF
:102E20008830910550F041E0089709F040E080912A
:102E3000E8008E778093E80064CF44914093F100DE
:102E40003196215031090196E8CF803809F04EC003
:102E50008091E800877F8093E8008091F40480935C
:102E6000F10092CE811142C01091F7041230F0F5BA
:102E70008091E800877F8093E8001093F4040E941B
:102E80000904112311F084E005C08091E30087FD5F
:102E9000FACF81E08093F30442E061EC81E00E948C
:102EA000280442E261EC84E00E94280442E261ECE2
:102EB00082E00E94280442E260EC83E00E94280441
:102EC0008091F30413C08091F704813079F481E09C
:102ED000933009F080E08093F2041092E900809131
:102EE000E800877F8093E8000E9409048091E80051
:102EF00083FF0AC08091E800877F8093E80080917B
:102F0000EB0080628093EB00AA960FB6F894DEBFC8
:102F10000FBECDBFDF91CF911F910895882321F07F
:102F20000E941A0B0C943B130895882339F090915A
:102F30000B04982B90930B040C943B130895882357
:102F400021F00E94210B0C943B130895882339F043
:102F500090910A04982B90930A040C943B130895C3
:102F6000882361F19CEF980F913A20F40E94350B71
:102F70000C943B1390E2980F983050F4877091E0D6
:102F800001C0990F8A95EAF7892F0E94210BF0CF93
:102F90009BE5980F933020F490E080E00C94A0051E
:102FA00098E5980F973120F490E080E00C948A0522
:102FB000803F20F00E94FE070C94D7070895FF92EF
:102FC0000F931F93CF93DF93F82E00910804109175
:102FD00009040115110509F449C010920704109263
:102FE00006041092030410920404D8011696CD91A1
:102FF000DC919E013A9521153F4108F4D07ED1E045
:10300000C11101C0D0E0D8011996ED91FC911A9739
:10301000309731F01B966D917C9180E00995D82313
:10302000DD2339F08CEF8C0F813A38F58C2F0E941C
:10303000350BFF2099F0E0910804F0910904808598
:1030400084FD0CC080910504882341F0808191812A
:103050009C0121503109253A3D45A8F00E943B13BF
:10306000109209041092080410920504C801DF911F
:10307000CF911F910F91FF9008950E943B138C2FC9
:103080000E94B017D6CF0E94C205E8CFCF93C82FB9
:10309000882309F46CC08CEF8C0F813AA8F58091DD
:1030A0001301882301F18091C90487FF1CC0EC2F14
:1030B000E695E695E695F0E0E059FE4F828190E0D6
:1030C0004C2F477021E030E002C0220F331F4A9599
:1030D000E2F782239323892B79F08C2F0E94350B02
:1030E0000E943B1309C0E2E7F1E08191C817A9F300
:1030F00081E0E837F807C9F76C2F80E791E00E947C
:103100005505CF910C943B1380E28C0F883068F406
:10311000C77021E030E001C0220FCA95EAF7809124
:103120000A04822B80930A04ECCFEBE5EC0FE3302A
:1031300040F4F0E0E45EFE4F808190E0CF910C948B
:10314000A005E8E5EC0FE73150F4F0E0EE0FFF1FCB
:10315000E15EFE4F80819181CF910C948A05C03F42
:1031600030F08C2F0E94C308CF910C94D707CF91D9
:1031700008951F93CF93DF93182FD0E0C0E08933D9
:1031800011F4C0E5D0E0812F0E944618209731F459
:10319000812FDF91CF911F910C94B0178FE99FE0A1
:1031A0000197F1F700C000002197F0CF0F931F9314
:1031B000CF93DF93C62FD42F022FFC018281882367
:1031C000A1F0609300050E9449059093FF0480934D
:1031D000FE04C77081E001C0880FCA95EAF7DF914D
:1031E000CF911F910F910C94A61780910005681341
:1031F00035C08091FE049091FF040E942E05883C0A
:10320000910560F510E21D0FCD17B9F080E28C0F2B
:10321000883040F4C77081E001C0880FCA95EAF792
:103220000E949F17183048F481E09D2F977001C0CD
:10323000880F9A95EAF70E94A617802F0E94B91866
:10324000183098F4D77081E001C0880FDA95EAF75A
:10325000DF91CF911F910F910C949F17C77081E060
:1032600001C0880FCA95EAF7F3CFDF91CF911F9184
:103270000F910895AF92BF92CF92DF92EF92FF929B
:103280000F931F93CF93DF93EC018AE0A82E288140
:10329000222309F48CC02130C9F599818A819130AB
:1032A00021F422960E94B91805C0923029F4229682
:1032B0000E9446182196EBCF933021F422960E946B
:1032C000B017F8CF943011F02196F4CF229630E069
:1032D00020E0AE014F5F5F4F8053990B8A3091051C
:1032E00050F02150310930F38FE99FE00197F1F759
:1032F00000C00000F6CFA29EB001A39E700D112465
:103300009C01260F371F8981EA01E3CFE22FF0E00D
:10331000E650FE4FB490822F86958695869590E074
:10332000FC01E651FE4FE4902770F12C022E02C002
:10333000F594E7940A94E2F731E0E322FF24FC01DC
:10334000E652FE4FC490D12C022E02C0D594C794F1
:103350000A94E2F731E0C322DD24FC01E653FE4F7C
:10336000049110E002C0159507952A95E2F70170C7
:103370001127E114F10419F081EE0E944618C114DE
:10338000D10419F086EE0E9446188B2D0E94B918C0
:10339000CD2819F086EE0E94B017EF2819F081EEC3
:1033A0000E94B017012B09F485CF8CE27BCFDF910F
:1033B000CF911F910F91FF90EF90DF90CF90BF9032
:1033C000AF900895CF93DF93EC010E94D20B9E0142
:1033D000205E31092830310510F0209739F40E9421
:1033E000A6178C2FDF91CF910C9446180E94951749
:1033F000F8CF2F923F924F925F926F927F928F926F
:103400009F92AF92BF92CF92DF92EF92FF920F9373
:103410001F93CF93DF9300D000D000D00F92CDB791
:10342000DEB77C01DC0113968D919C911497892B5A
:1034300039F08C9111969C9189238F3F09F014C724
:1034400027960FB6F894DEBF0FBECDBFDF91CF91A8
:103450001F910F91FF90EF90DF90CF90BF90AF90B2
:103460009F908F907F906F905F904F903F902F90A4
:103470000895D60116968C9116978823D1F0199647
:103480008D919C910817190739F480910C04909143
:103490000D040817190769F0F6019786148703874A
:1034A000C6010E94F513C60106960E94B013109241
:1034B0000B04FFEFAF1ABF0A26E1C20ED11CECC607
:1034C000C80182519F45409708F0C2C68FEF93E034
:1034D0000E9448346EEED62ED00E09EB11E0882300
:1034E000F9F08091EC01877009F4AACFD701129608
:1034F0008C91882309F4A4CF8091CA0482FDA0CFC7
:1035000082E00E944F149CCF011534E0130749F369
:10351000C8010E944834811101C0DA940F5F1F4F27
:10352000D110F2CF19821A821B821C8299249A949C
:1035300068014FEFC41AD40AC8010E944834898335
:103540001A82882371F2813009F073C0580152E069
:10355000A50EB11CC6010E944834C82E8A83882358
:1035600009F4BFCFC5010E944834D82E8FEF8C0DCF
:10357000833068F4580183E0A80EB11CDB82DD20A3
:1035800021F0CE0101960E943A198501D1CF8BEF2F
:103590008C0D833030F5C8010396DB825C01DD20A1
:1035A000A1F35801A4E0AA0EB11C0E9448348C83F8
:1035B000882359F38B819C818130BFEF9B0710F0EA
:1035C000982F8827E6E0CE1631F0F7E0CF1631F0DD
:1035D0000E949A29DACF0E946A29D7CF0E94CA286E
:1035E000D4CF24E0C212D1CF580134E0A30EB11CD5
:1035F000C80103960E944834DD2009F472CF882365
:1036000009F46FCF8150990B989E9001999E300DCF
:1036100011244D2D4150550BCA01820F931F019764
:1036200008F4B3CFAFE9BFE01197F1F700C0000095
:10363000F6CFCE0101960E943A195601A6CF81E03D
:103640000E9480140E9438144CCF81E00E944314E1
:10365000F9CF82E0FBCF823009F068C680916A0220
:1036600090916B02892B09F461C626E12C9DC00163
:103670002D9D900D1124825F9B4FDC0150961C9272
:103680000E94F51353C60F3B5CE5150709F44AC0C9
:1036900098F1003C9CE5190709F05FC690915D0226
:1036A000892F8695869586958F5F8F719770843068
:1036B00008F059C0880F880F880F892B80935D020E
:1036C00080915D0210C083E00E94160780915D0228
:1036D0000E94670D06CF80915D02982F987FE9F1D7
:1036E000885080935D02887F91E009F490E080919A
:1036F0005D0290FB80F913C080915D02982F969532
:1037000096959695933040F49F5F990F990F990F76
:103710008770892B80935D0280915D028160809328
:103720005D0219C080915D0280FF09C08E7F809389
:103730005D020E94670D80E00E947206D2CE80FD7D
:10374000D0CE816080935D02813019F489E080934E
:103750005D0280915D020E94670D80915D028695F9
:1037600086958695E9CF90935D02AACF81E08093FC
:103770000001B7CE80910001882309F4A6C4480156
:10378000F0EE8F1A910840900F028091E901482ACB
:1037900080910A04482A28E08216910408F086C025
:1037A00098012770332781E090E001C0880F2A95A7
:1037B000EAF7552009F477C0482AD7018D919C91EA
:1037C0000E946A0B21E030E0F90102C0EE0FFF1FFA
:1037D0008A95E2F7FF83EE83209008043090090475
:1037E00060909001709091011D822D81E22FF0E098
:1037F000EE0FFF1FEF53FD4FC080D180C114D104E5
:1038000009F411C5411005C0D60112968C918111A1
:1038100089C0F601838190E02E813F81822393232A
:10382000892B09F47FC08085982F977009F487E071
:1038300038E08316910408F053C0552009F44CC0B9
:1038400086958170882309F46DC0D601AD90BC9037
:103850000A151B0519F4552009F464C0C214D304D9
:1038600009F460C0D6011D96ED91FC91309721F0CE
:103870008081882309F456C0642DC6010E94130676
:10388000882309F44FC00A151B0509F08CC50115E2
:10389000110509F48DC551108DC5A614B70409F0A2
:1038A00041C0512C87C58095482287CF552009F407
:1038B000A3C410939101009390010E943D05609371
:1038C000FF0370930004809301049093020410920C
:1038D00007041092060471CF82FB882780F9B2CFCB
:1038E000552001F18170AECF0E94B01781C50497B9
:1038F000813A910558F46A2D80E791E00E945505C0
:10390000552009F4E2C30E943B13EBCD0E943B1308
:103910008FE39CE90197F1F700C000008A2D0E9417
:103920004618EECF9D819F5F9D835FCFFC01208174
:1039300031810217130709F0C1C35110C1C310929E
:10394000050480E082C4882309F40EC4FA01818949
:10395000882309F409C4C5018C5E9B4F0E94B013F3
:1039600003C4033FFCE51F0739F188F4083D3CE53B
:103970001307F1F0093D4CE5140751F1073D5CE5F3
:10398000150709F0F1C326E241EE61EE0DC0053FD7
:103990008CE51807C9F0A0F027E245EE66EE063F79
:1039A000ACE51A0709F0E0C3C7010E94D61899CD0B
:1039B00027E245EE65EEF8CF26E241EE60EEF4CF69
:1039C00027E245EE64EEF0CF26E241EE62EEECCF68
:1039D00028E241E0EFCF01363DE5130709F4DAC3F1
:1039E000053A4DE5140709F4D5C30631ACE51A07CD
:1039F00009F032C580910A048A7A91E009F490E0D6
:103A00009093920169E2811165E380E791E00E9461
:103A1000550579CF8091C904806207304CE51407C1
:103A200009F494C08091C904806108301C4508F4F1
:103A30008DC08091C904806489C00D308CE5180761
:103A400009F499C098F48091C9048E7F0B30ACE5DD
:103A50001A0709F47BC08091C9048C600C301C45A6
:103A600008F474C08091C9048D7F70C08091C9042E
:103A70008F7E0F30ECE51E0709F468C08091C90401
:103A8000877F00311C4508F461C08091C9048F7D97
:103A90005DC00D3F2CE5120709F475C038F50531FE
:103AA0004CE5140709F481C080F403318CE5180754
:103AB00009F477C008F46FC00E94A5149091C9045E
:103AC000892F97FB87F9805841C00B3FACE51A0757
:103AD00009F447C008F053C08091CA0481600A3FCE
:103AE0001C4509F080C38093CA047DC30130FDE505
:103AF0001F0709F466C0B8F48091CA048C7F0F3F99
:103B00003CE5130781F38091CA04836001151D45CC
:103B100050F38091CA04982F909591708E7F892BD5
:103B200090FB81F9E0CF01365DE5150709F44FC040
:103B3000053A8DE5180709F451C002301D4509F01A
:103B400052C360E03FC08091C90482608093C90481
:103B50004AC38091C9048460F9CF8091C904886008
:103B6000F5CF8091CA048260BECF0E94A5148091D7
:103B7000C9048068EBCF8091C9048B7FE7CF809127
:103B8000CA048E7FB0CF8091CA048D7FACCF809164
:103B9000C9048F7BDBCF0E94A5148091C9048F7765
:103BA000D5CF8091C904837FD1CF8091C90482FB96
:103BB000992790F921E0922790FB82F990FB83F9F5
:103BC000C5CF61E08EE090E00E945C340CC3909120
:103BD000C904892F8F7E94FF8061B8CF9091C9046A
:103BE000892F8E7F90FF8160B1CF85E3D9C381603B
:103BF0008093010561E086950E94851172CC40ECAE
:103C000051E169EC71E10E942C076BCC49EC51E168
:103C100060EC71E1F8CF41E551E16AE571E1F3CF84
:103C20004AE551E161E571E1EECF49E351E165E437
:103C300071E1E9CF41E251E16DE271E1E4CF61E090
:103C400081E0DACF0E94A5142FEF34E34CE021503D
:103C500030404040E1F700C000000E941D0581E0B7
:103C60001BC480E019C4828100811181882369F01E
:103C7000C8010E94E50ED82E682FC8010E94970B3C
:103C8000B8018D2D0E94C90E0FC4C8010E946A0B95
:103C9000D82EF6CF212F2F70D22E107F19F0D2946C
:103CA00090EFD922CC20B9F0DD2069F080E2800FBE
:103CB000883010F0011109C080910A04D82AD092EE
:103CC0000A040E943B13802F46C080910B04D82A1F
:103CD000D0920B04F6CF802F0E94B017DD20E9F1BF
:103CE00080E2800F883010F0011104C08D2D0E94F9
:103CF000210B03C08D2D0E941A0B0E943B132DC077
:103D0000312F3F70D32E107F103219F0D29480EFF4
:103D1000D822002381F0013009F48DC0CC2009F4B1
:103D200096C0BB2009F46BC0F701858180FFCBCF23
:103D30008F70858364C08091CA0482FF3BC0CC2011
:103D400099F1DD2039F080910A04D82AD0920A0432
:103D50000E943B1380E00E944618292D2850330B07
:103D60002430310520F40E94B6050E94C70BAA201A
:103D7000B1F08091EC0180FD12C0D70112961C9227
:103D80008595859585950E948014C7010E94F91933
:103D90008091EC018595859585950E94431460E09E
:103DA000C7010E94470F4CCB80E00E94B017DD2076
:103DB000A1F29CCFCC2039F1B11004C080910F0248
:103DC0008D291EC041E0B41210C082FDC6CF809183
:103DD0000F02D82AD81609F20E94490590930E02C4
:103DE00080930D02D0920F02B8CF55E0B512E6CF06
:103DF0000E940F0B8091E901D812D092E9018D2D1C
:103E00000E94A617AACFB11006C00E940F0B8D2DDD
:103E10000E949F17A2CF81E0B81208C080910A04C7
:103E20008D2109F49ACF0E942F0BEFCF95E0B916A0
:103E300009F493CFEACFCC2029F0A5E0AB1508F424
:103E40008CCFDDCFB4E0BB1508F487CFE0CFBB202B
:103E5000F1F2093349F4FFEF27EE33E0F15020404F
:103E60003040E1F700C00000802F0E94B01775CFEE
:103E7000812F86958695837061F0813009F06DCF32
:103E8000C8019370C11002C090E080E00E948A05D2
:103E900064CFC8019370C11002C090E080E00E941E
:103EA000A0055BCF802FCC2029F00E94C3080E9480
:103EB000D70753CF0E94FE07FACF812F837089F571
:103EC000C1104BCF402F429546954770440F440F89
:103ED000802F8F70042E01C0880F0A94EAF7202FDC
:103EE000207104FF07C02FE030E001C0220F4A9587
:103EF000EAF72095169516951370123069F050F474
:103F000030911002113029F0822B83230E94A114DA
:103F100024CF832B822BFACF282B8091100282276B
:103F2000F5CF8695CC2011F0812F8170882309F47C
:103F300014CF402F429546954770440F440F802F71
:103F40008F70042E01C0880F0A94EAF7202F207189
:103F500004FF07C02FE030E001C0220F4A95EAF7C6
:103F60002095169516951370123069F050F4309123
:103F7000FD04113029F0822B83230E943414EDCEEE
:103F8000832B822BFACF282B8091FD048227F5CF3B
:103F90001F70CC2029F0812F0E948014802F30CFF9
:103FA000802F0E949F17812F0E944314D6CE023F7C
:103FB00081F160F4003FB9F0013F81F0CC2009F4B9
:103FC0006DC0B11080CE812F8F7127C0033F41F1AA
:103FD000043FA1F78091CA0482FF2DC0812F8F7109
:103FE000CC2011F31AC0CC2079F044E04B1508F432
:103FF000B4CE1F7181E090E001C0880F1A95EAF7F6
:104000009091FD048927B9CF55E05B1508F4A5CE42
:10401000F0CF812F8F71C110C7CF0E9480149DCE29
:1040200080E0CC2009F4A9CF1F7181E001C0880F86
:104030001A95EAF7A2CF8091E901CC20D9F00E942D
:10404000210B8091EC018770843041F40E94280B91
:10405000812F8F710E944314A12C7FCE84E08B1599
:10406000D8F31F71812F0E94801463E0812F0E947A
:104070008B14F2CF90910A04982B90930A0494E049
:104080009B1540F40E94280B0E942F0B64E0812FA7
:104090008F71EDCF81E00E944F14DECFBB2059F02D
:1040A000093309F0E1CEAFEFB7EEE3E0A150B04045
:1040B000E040E1F7D7CE812F8F7176CF552029F0E0
:1040C000DC0118968C9185FF3CCCC80197558F3F39
:1040D000910511F008F045CC20910D0130910E01B1
:1040E0002817390724F490930E0180930D01F701EE
:1040F000228136E1389F5001399FB00C1124A5016F
:10410000425F5B4F6A01DA0150962C93509792817F
:1041100016968C911697992309F415CC1A961C9330
:104120000E9319978F5F16968C930E944905F6019E
:104130009687858780910F02878380910B049091E9
:104140000A04892B80870190F081E02D309741F09F
:10415000D60154966D917C91C5018C5E9B4F09955B
:1041600010930D0400930C04F7018281882309F455
:104170000DC1109200050330FDE51F0708F02BCCA0
:104180000A3F2CE5120730F4C80182509C45449741
:1041900008F02BCC0E94A00F9093CA048093C9040E
:1041A00001315CE5150709F4F2CC08F072CC093056
:1041B0009CE5190709F4D9CC08F03FCC0530BCE5E3
:1041C0001B0709F4CACC08F025CC0330FCE51F0717
:1041D00009F4B9CC08F0BDCC8091C90481600230EB
:1041E0001C4509F4B3CC8091C9049091CA040E9483
:1041F0006C0D0E94A51475C9809190019091910158
:104200000817190781F410929101109290011092F1
:10421000FF03109200041092010410920204109205
:1042200007041092060480910804909109040097F5
:1042300009F44BCFA8E08A16910408F077CB642DDF
:104240000E941306811141CF81E00E94DF173DCF0C
:104250000031FFE51F0709F4F2C901312FE512070C
:1042600009F064C082E0ECC961E0C7010E94470F19
:104270008C01D70112968C918823B1F080910D01A9
:1042800090910E01019681F07EE0C72E74E0D72E4A
:10429000B12CA12C9924939480910D0190910E0141
:1042A0008A159B050CF0E5C8F7018281811108C9C8
:1042B00000313FE5130709F4C8C901314FE5140780
:1042C00009F4C7C96801E7E5DE1AFFEFCF16D1048C
:1042D00009F060F566E672E08C2D0E94300E892BA5
:1042E00029F586E18C9DF0018D9DF00D1124E25F92
:1042F000FB4F8681813009F0AEC9809166029091B2
:104300006702892B99F08091680290916902892B4C
:1043100069F080916A0290916B0220916C02309159
:104320006D02822B932B892B09F49FC9F7015280D0
:10433000552009F41FCA0D3BFCE51F0709F4CBC942
:1043400008F0A1C90B3B3CE5130709F4BCC980E0A8
:104350000C3B4CE5140709F4B7C90F35ADE51A0756
:1043600009F404CA0036BDE51B0751F00E35EDE532
:104370001E0709F0FFC980910001882309F4F6C9DE
:104380001092000180E00E94DF17ABC80631BCE547
:104390001B0709F0BDC080919201811126CC89E2F2
:1043A0000E94350BB0CAA114B10409F076CA512C91
:1043B000B12CA12C80E00E94DF17D0920904C0929A
:1043C000080481E080930504F6018581809303044D
:1043D00051100EC0AB2861F0F601808191819C01E3
:1043E00024503109213A310508F07ECA0E94350B6C
:1043F000D6011696AD90BC90C5019A9581159F4146
:1044000010F4E0EEBE2277247394C5010197853A3B
:104410009D4508F0712CD6011996ED91FC911A97E3
:10442000309731F01B966D917C9181E0099578224F
:10443000772079F0F601868197810E94D20B8093D4
:104440000404C501F8E08F16910408F050CA0E94D8
:10445000C2050E943B1354CA0A35EDE51E0709F454
:10446000FECB58F401152CE5120709F4EBCB0E3DF9
:104470001C45A1F40E94F11134C80B354DE5140719
:1044800009F4EFCB0C351D4549F48091CA0482FB39
:10449000882780F991E089270E946B14F7018681B3
:1044A0009781009709F4DFCB0E9487098C01F701FF
:1044B000C280B580B2943FE0B3228091EC01877056
:1044C000C1F0AC2CCC20B1F0812F807F803421F062
:1044D00080E2800F883068F08091CA0482FD09C0B4
:1044E00082E00E944F148091EC018770AA24A3946B
:1044F0008111A12C912E92942FE09222FBE0F915CC
:1045000008F42BCCE92DF0E0EC55FB4C0C94E73390
:1045100080910A048272093C9CE5190709F48ACB50
:10452000E8F5053CBCE51B0709F475CB58F5033CE1
:10453000FCE51F0709F463CB08F068CB023C1C457F
:1045400009F0ACCF8091010580FF51CB8E7F809325
:10455000010560910105709102058091030590911C
:1045600004050E94C61010925C02BFEFE0E7F2E083
:10457000B150E040F040E1F700C000000E94960C0E
:104580000C94711A073C4CE5140709F44ECB08F45F
:1045900047CB45E451E169E371E135CB0D3C9CE546
:1045A000190709F44CCBB0F443E651E164E771E13B
:1045B0000B3CBCE51B0709F426CB4DE251E161E25F
:1045C00071E10C3C1C4508F41ECB44E751E163E665
:1045D00071E119CB063DFCE51F0748F40F3C1C4573
:1045E00010F00C94711A0E94D3110C94711A0D35AD
:1045F0001D4511F40C94711A51CFCF93DF93809124
:10460000A401807FA1F48091A101882381F0809191
:10461000E801D091A70160919F017091A001A09144
:10462000A201B091A301C62FC723D81303C0DF9105
:10463000CF91089590E0109711F0CF3F19F40196B3
:104640008770F3CF9C0143E0220F331F4A95E1F7B7
:10465000F901E855FE4F41814713F1CF40814613E0
:10466000EECF42814111EBCF438154814A1B5B0B5A
:10467000483C510520F78091A4018F7080618093A0
:10468000A401F901E355FE4F80818F708061808322
:104690008FE991E00E94F919DF91CF910C94600BA2
:1046A000AF92BF92CF92DF92EF92FF920F931F9340
:1046B000CF93DF93CDB7DEB765970FB6F894DEBF23
:1046C0000FBECDBF8C0185E0F801DE01519601904F
:1046D0000D928A95E1F7F801E2806FE9A62E61E07C
:1046E000B62E6091A2017091A3016115710509F4C4
:1046F00068C190919F014091A001892F84238F3F31
:1047000009F45FC120813181C380D480F090A10180
:10471000F601E61BF70BFF2009F41DC18091A401EF
:10472000582F507FE83CF10508F0D0C0511181C0EE
:10473000FE2C43132BC0921329C06091A5017091E8
:10474000A601F8014681578164177507F9F4E11055
:104750001DC08F7080618093A401C5010E94F9196A
:104760008091A401F80185838F2D65960FB6F8948A
:10477000DEBF0FBECDBFDF91CF911F910F91FF9094
:10478000EF90DF90CF90BF90AF900895CD2829F0A3
:10479000822F83238F3F09F02FC180E0F82FF17023
:1047A000DF2E80FF3CC08091E8014091A701841377
:1047B00015C0298B3A8B89899A890E94140F292F59
:1047C00022952F702230F8F0243020F59F70F9F0F8
:1047D000F8019581907FD9F4D12C1FC090E0FC01A5
:1047E00053E0EE0FFF1F5A95E1F7E855FE4F518158
:1047F000351306C05081251303C05281E5120FC046
:1048000001968770D4CF9F7011F0882329F3805EC2
:10481000883010F3C8010E94F919FD2CA5CFEE20B5
:1048200009F4A2CF8091A40181608093A401F12CAE
:104830009BCF43131BC0921319C04091A501509107
:10484000A601F801268137814217530779F4E11058
:104850000DC08583C8010E94F91988E0F801AFE90D
:10486000B1E001900D928A95E1F77ECFC8010E94D8
:10487000200F882339F1EE2029F18091A4018032A4
:10488000A0F020919F013091A0013A8729871B86D3
:10489000DD86CC868E878091A5019091A601988BAC
:1048A0008F87CE0109960E94F91988E0F801AFE9D7
:1048B000B1E001900D928A95E1F70E94FD22FF245C
:1048C000F39452CFC8010E94F919F9CF51110AC0CF
:1048D0008FE991E00E94F91988E0F50111928A951B
:1048E000E9F7A5CF431318C0921316C04091A50154
:1048F0005091A601F801268137814217530761F4D0
:10490000E1100AC08583C8010E94F91988E0F50109
:1049100011928A95E9F728CFC8010E94200F8823B9
:1049200089F2EE2079F28091A401803208F4BDCFA3
:1049300020919F013091A0013A8329831B82DD825F
:10494000CC828E838091A5019091A60198878F8358
:10495000CE010196A8CFE83CF105C0F6FE2CEE2072
:1049600009F4B0CF43131FC092131DC02091A501BD
:104970003091A601F801868197812817390799F4AB
:104980009091A40190FD69CF907F09F466CF80914A
:10499000A4018583903F09F45DCF982F907F905FAD
:1049A0008F70892B56CFC8010E94200F81117DCFB7
:1049B0008091A40181608093A401C8010E94F9192B
:1049C000D3CEEE2009F47ECFC8010E94200FF82E2E
:1049D000882309F477CF88E0F801AFE9B1E00190CE
:1049E0000D928A95E1F780919F019091A0010E941C
:1049F000140F0E94FD22B8CE81E08E25CFCECF933A
:104A0000DF93CDB7DEB760970FB6F894DEBF0FBE69
:104A1000CDBF29873A874B875C876D877E878F87D5
:104A2000988BCE0109960E945023811112C088E014
:104A3000FE013996DE01119601900D928A95E1F7FB
:104A40008C859D85892B29F089859A8589238F3FBF
:104A5000A9F58091E8019091A70189131CC0609687
:104A60000FB6F894DEBF0FBECDBFDF91CF91089592
:104A700093E0AA0FBB1F9A95E1F7A855BE4F98E0A7
:104A8000FE01319601900D929A95E1F78093A7016E
:104A90000E94600BDECFB8E08B9FC00111248855C7
:104AA0009E4F0E9450238823D1F28091E80190E02C
:104AB0000196877099278093E801CBCFA091A70139
:104AC000B0E0CD010196877099272091E801281761
:104AD000190671F60E94A5141092A7011092E80120
:104AE00088E0EFE9F1E0DF011D928A95E9F7B1CFA7
:104AF0000F931F93CF93DF9380915203E091510363
:104B0000CCE081111AC0DF91CF911F910F910895D0
:104B1000D1E0DE0FD09351030E2F10E0EC9FF00197
:104B20001124ED5AFC4F83819481892B29F08081D7
:104B3000918189238F3F51F4ED2F80915203E81723
:104B400038F31092520310925103DDCFC09FD00171
:104B5000C19FB00D1124AD5ABC4F16968D919C91FA
:104B60001797892B29F418968D919C91019651F4F1
:104B70002081318142815381648175818681978151
:104B80000E94FF24C09FF001C19FF00D1124ED5A37
:104B9000FC4F1482138210920B04CECF1092F603B6
:104BA0001092F503109212018091F4038093F303A5
:104BB0000E9461060C9478253F924F925F926F920B
:104BC0007F928F929F92AF92BF92CF92DF92EF929D
:104BD000FF920F931F93CF93DF93C091F30397E05E
:104BE000892E01E010E02CE0322E3EEF932E44247B
:104BF00043948091F4038C1315C00E947825DF91B3
:104C0000CF911F910F91FF90EF90DF90CF90BF90C9
:104C1000AF909F908F907F906F905F904F903F905C
:104C20000C946106D0E0FE01EE0FFF1FE551FC4F32
:104C300080819181889ED001899EB00D1124AD5450
:104C4000BC4F14962C911497211157C050905203C9
:104C5000E3E5F3E030E020E0712C5D01251508F07C
:104C60004AC0E284F384D501CD90DC906FEF7FEFF2
:104C7000612C462D50E0DA01AA0FBB1FAC0DBD1D03
:104C80000D90BC91A02D109731F0EA16FB0609F4A7
:104C9000BA016394EECF6F3F7607A1F1D80102C04D
:104CA000AA0FBB1F6A95E2F77A2AB80102C0660F05
:104CB000771F6A94E2F7AB0141505109741615064B
:104CC000F9F4329EF001339EF00D1124ED5AFC4FA1
:104CD000889ED001899EB00D1124AD54BC4F129610
:104CE0002D913C91139737832683908291829187EF
:104CF000808715964C920E9433062196C37079CF17
:104D0000148213822F5F3F4F3C96A8CF2F923F9281
:104D10004F925F926F927F928F929F92AF92BF92CB
:104D2000CF92DF92EF92FF920F931F93CF93DF9377
:104D3000CDB7DEB769970FB6F894DEBF0FBECDBF13
:104D4000498B5A8B6B8B7C8B8D8B611110920B0472
:104D50001D861E861F86188A85E0FE017196DE017B
:104D6000199601900D928A95E1F78091CA0482FD0F
:104D70001CC00E9449052091EA013091EB01821B81
:104D8000930B8838934120F08091EC0182FFFEC1A3
:104D90000E94490520910D0230910E02821B930B57
:104DA0008838934110F00E940F0B8C859D85892BCC
:104DB00031F089859A8589238F3F09F0D3C12985F0
:104DC0003A854B855C856D857E858F8598890E94A7
:104DD000FF24C2C048EFC4164CE5D40629F488234A
:104DE00079F00E94CE25EBCF69EFC6166CE5D606AA
:104DF00039F4882329F0809112018111F2CFC2C1C8
:104E000003EB13E0E12CB12CA12C88248394912C8A
:104E10002EEF522E44244394F801408151816624A0
:104E20006A94762C20E0822F90E0FC01EE0FFF1FA9
:104E3000E40FF51F608171816115710531F0C616AF
:104E4000D70609F43C012F5FEECFF12CFFEF6F1670
:104E50007F0609F443C0F8014481F09012018F2DC0
:104E6000411180E0F82FF170FF2EF8012580868136
:104E70009B85992309F406C1FF2009F403C1211081
:104E800013C0A40101C0440F6A94EAF7842B8683FF
:104E900080914F0390915003C29730F462E370E029
:104EA0007093500360934F03C40102C0880F991F91
:104EB0002A95E2F70197F80126812817190671F45F
:104EC0008091F5039091F603009709F45EC00E946B
:104ED0002E05C39708F459C0F8014482EF28FFEF6C
:104EE000AF1ABF0A095F1F4F28E0A216B10409F0EC
:104EF00093CF8B85882309F420C1EE2009F41DC1CE
:104F00000E9449059093F6038093F5038091520324
:104F1000883010F591E0980F9093520398E0FE01CD
:104F20003996DE01119601900D929A95E1F73CE0D9
:104F3000839FC00111248D5A9C4F28E0FE013196B9
:104F4000DC0101900D922A95E1F72FEF3FEFFC0174
:104F500031872087D386C28669960FB6F894DEBF64
:104F60000FBECDBFDF91CF911F910F91FF90EF90BA
:104F7000DF90CF90BF90AF909F908F907F906F9079
:104F80005F904F903F902F9008958091F303509140
:104F9000F403982FF0E0E0E0851314C09093F3033E
:104FA0000E171F0709F49ACF90E0FC01EE0FFF1FC8
:104FB000E551FC4FB182A0820196837099278093BE
:104FC000F4038CCF282E312CF101EE0FFF1FE55199
:104FD000FC4F20813181F7E0F29FD001F39FB00DAB
:104FE0001124AD54BC4F2D913C911197398F288FCE
:104FF00040E020E030E0E32FF0E0EE0FFF1F688D8F
:10500000798DE60FF71F6080718061147104E1F003
:10501000F8010190F081E02DFF8BEE8B20E005C0C0
:105020006616770609F44F2D2F5FE22FF0E0EE0FA2
:10503000FF1F6E897F89E60FF71F608171816115FF
:10504000710571F73F5FD7CF4423C9F0F8012317EB
:1050500008F0FD014482E017F10721F49093F30377
:10506000F42E3CCF981305C0EA17FB0711F49F5F9D
:10507000937091012F5F3F4F822F83708DCFF0E0AF
:10508000E0E0F7CF90E021101FC0B40102C0660F2E
:10509000771F2A95E2F79B01215031098217930768
:1050A00031F4442309F447C0C5010E943306C4010A
:1050B00001C0880F6A94EAF7982F9095F8018681CD
:1050C00089238683F22C0ACF9C01062C02C03595D9
:1050D00027950A94E2F7A90141705527BC01615058
:1050E000710986239723892B11F5452B01F1F801CE
:1050F00082819381892BC1F01B821C821D821E82BA
:1051000059825A820E9449058160582F9D838C8361
:10511000F801828193818F83988729813A814B811D
:105120006D817E810E94FF24F8011582C0CFF22F8D
:10513000F1702F2EBCCF2F2CBACF9091F30380911A
:10514000F403981731F00E94DC25EE2009F437CEE5
:1051500003CF0E9478251092F6031092F5030E9467
:105160006106F3CF61E0CE0109960E94470F6C0102
:105170008B85F7EFCF16FCE5DF0609F02BCE8823F1
:1051800009F43ECE81E08093120119CE82E00E94A4
:105190004F14FECD0F931F93CF93DF9300D000D019
:1051A0000F92CDB7DEB78C0190934C0380934B03E5
:1051B000011580E2180720F5802F0E94B017C80162
:1051C0000E94D20B9801205E31092830310510F081
:1051D000012B59F40F900F900F900F900F90DF91CB
:1051E000CF911F910F910C949F170F900F900F90DC
:1051F0000F900F90DF91CF911F910F910C948E170C
:105200008EEF89838A831B820E9449058160782FF3
:105210009D838C8349815A816B818D810F900F9082
:105220000F900F900F90DF91CF911F910F910C94E1
:1052300086260F931F93CF93DF938C01EB0166E6D5
:1052400072E08C2F0E94300E892B71F4DD27C25A38
:10525000DD4F8881F80110821882833009F148F40B
:10526000813059F0823081F0DF91CF911F910F9101
:1052700008958430D1F08530B9F78091660290911D
:105280006702009789F306C08091680290916902D5
:10529000009799F3DF91CF911F910F910C94CA2839
:1052A00080916A0290916B02F3CF80916C02909191
:1052B0006D02009779F72091660230916702809124
:1052C00068029091690221153105D9F2009711F712
:1052D000C901E0CFCF93DF9300D000D00F92CDB7BC
:1052E000DEB790934C0380934B03811520E2920725
:1052F00048F40F900F900F900F900F90DF91CF9187
:105300000C94E2198EEF89838A8381E08B830E945B
:1053100049058160782F9D838C8349815A816B81F7
:105320008D810F900F900F900F900F90DF91CF9184
:105330000C948626CF93DF93EC010E946A29CE015C
:10534000DF91CF910C94CA280F931F93CF93DF93D3
:105350008C01862F66E672E00E94300E892BC9F41C
:10536000C0916602D0916702209799F0F801808180
:10537000833069F4CE010E949A29CE010E949A29B5
:10538000CE01DF91CF911F910F910C949A29843017
:10539000B8F7DF91CF911F910F9108950F931F934D
:1053A000CF93DF938C01EB0166E672E08C2F0E94B5
:1053B000300E892B09F064C0FE01FF27D8018C91C3
:1053C000E25AFD4F8130D9F419969C91199799238F
:1053D00011F080830CC01A969C919923D1F382E03E
:1053E000808380916802909169020097D9F480913E
:1053F000660290916702009709F442C013C08230A0
:10540000E9F519968C91199781112DC01A968C91F6
:1054100081110EC083E0808380916A0290916B02BB
:10542000009719F1DF91CF911F910F910C946A2988
:1054300084E0808380916C0290916D02009791F7D7
:1054400080916602909167020097F9F00E949A2974
:105450008091680290916902009721F7809166021D
:1054600090916702DFCF85E0808380916602909102
:105470006702009729F00E949A29F0CF86E0808386
:10548000DF91CF911F910F910895809168029091C3
:105490006902B1CF90E080E00E945634893E9E4F71
:1054A00011F40C94870F80E008950E944A2A81111C
:1054B0000AC00E94F11180915D028470896180931D
:1054C0005D020E94670D86E090E00E944834809360
:1054D0005D02803220F08770886180935D02909138
:1054E0005D02892F817090FF04C0892F8695869573
:1054F00086950C9472061F920F920FB60F9211248C
:105500002F933F934F935F936F937F938F939F93CB
:10551000AF93BF93CF93DF93EF93FF93D091E900C5
:10552000DF708091EC00C82FC17080FDC0E8109240
:10553000E9008091F000877F8093F00078940E94CA
:10554000BA141092E9008091F00088608093F00016
:10555000CD2BCF70C093E900FF91EF91DF91CF91F8
:10556000BF91AF919F918F917F916F915F914F917B
:105570003F912F910F900FBE0F901F9018951F9283
:105580000F920FB60F9211242F933F934F935F9377
:105590006F937F938F939F93AF93BF93EF93FF93FB
:1055A0008091E10082FF09C08091E20082FF05C086
:1055B0008091E1008B7F8093E1008091DA0080FF91
:1055C00024C08091D80080FF20C08091DA008E7FB7
:1055D0008093DA008091D90080FF9DC080E189BD71
:1055E00082E189BD09B400FEFDCF81E08093F30420
:1055F0008091CE04811109C00E948F030E945A0439
:105600008091E20084608093E2008091E10080FF5D
:1056100017C08091E20080FF13C08091E2008E7F6E
:105620008093E2008091E20080618093E2008091AB
:10563000D80080628093D80019BC85E08093F30481
:105640008091E10084FF2BC08091E20084FF27C09D
:1056500080E189BD82E189BD89B5982F917080FF75
:10566000FBCF8091D8008F7D8093D8008091E1009E
:105670008F7E8093E1008091E2008F7E8093E20034
:105680008091E20081608093E2008091F40488239D
:1056900009F447C084E08093F3048091F30480917F
:1056A000E10083FF27C08091E20083FF23C0809147
:1056B000E100877F8093E10082E08093F304109201
:1056C000F4048091E1008E7F8093E1008091E200FC
:1056D0008E7F8093E2008091E20080618093E200FF
:1056E00042E060E080E00E9428048091F000886041
:1056F0008093F000FF91EF91BF91AF919F918F91B7
:105700007F916F915F914F913F912F910F900FBEBD
:105710000F901F90189519BC1092F3041092CE04AC
:1057200074CF8091E30087FD93E09093F304B5CFAD
:1057300078941F921FB61F9211248F939F93AF935B
:10574000BF938091C5049091C604A091C704B09105
:10575000C8040196A11DB11D8093C5049093C60491
:10576000A093C704B093C804BF91AF919F918F914C
:105770001F901FBE1F9018951F921FB61F921124D5
:105780008F939F93AF93BF938091C404811113C0F3
:105790008091C5049091C604A091C704B091C8043B
:1057A0004196A11DB11D8093C5049093C604A0939A
:1057B000C704B093C804BF91AF919F918F911F9080
:1057C0001FBE1F901895CDB7DEB7E4970FB6F894BB
:1057D000DEBF0FBECDBF84B7877F84BF0FB6F894FE
:1057E000A8958091600088618093600010926000AD
:1057F0000FBE80E890E00FB6F8948093610090931C
:1058000061000FBE85B7806885BF85B7806885BF9A
:105810008BE299E090936F0180936E010E94440E99
:105820000E9457100E94AE0F0E948F030E945A04DC
:105830008091E20084608093E20078948091F30488
:105840008823A1F01091E9001F709091EC00892F3E
:10585000817090FD80E8182B1092E9008091E8009B
:1058600083FD0E94BA141F701093E90082E084BD8A
:1058700093E095BD9AEF97BD80936E000E94870FCD
:10588000811102C00E94210E87EF0E942D0986EC33
:105890000E942D0984E30E942D0900E511E089E5AD
:1058A000E82E81E0F82ED8018D918D018F3F11F007
:1058B0000E942D09E016F106B1F786E0E7E2F2E07A
:1058C000DF01282F1D922A95E9F7E4E1F2E0DF01DC
:1058D0001D928A95E9F70E944A2A811102C00E940E
:1058E000F11182E090E00E94483480931D020E94F2
:1058F000A00F9093CA048093C9040E945B12EFE347
:10590000FCE93197F1F700C000000E945B12809122
:10591000270280FF08C06FEF7FEF90E080E00E94D9
:105920007A340E941D0583E090E00E9448340E9472
:10593000A114269A2E98509A5898259A2D9882E864
:105940008093800089E1809381008FEF9FEF909397
:105950008700809386000E94552A0E94552A8091D4
:105960001A02811133C00E944A2A811104C00E9488
:10597000F1110E94E21188E090E00E94503460939F
:1059800001057093020580930305909304056E7FD3
:1059900071F40E94E21188E090E00E94503460931C
:1059A00001057093020580930305909304050E94FE
:1059B000320710925C028091010580FF04C060E014
:1059C00086950E94851181E080931A028091C90416
:1059D00080688093C9048091C9049091CA040E9490
:1059E0006C0D81E091E09093C1048093C004B8E114
:1059F0006B2E712C552453948091F30410E102E135
:105A0000853009F481C20E945B1281110E943D051C
:105A1000A7E28A2EA2E09A2E0EE112E0412C312C50
:105A2000D401AD90BD904D01F801C080D180CA1461
:105A3000DB0499F1CA24DB24212CEE24E394F12C1D
:105A4000C6018E219F21892B11F12BA63CA621E0B6
:105A5000C5018E219F21892B09F420E02DA70E94EA
:105A600049058160782F9FA78EA74BA55CA56DA5E2
:105A70008FA50E948626D8018D919C9111978E2525
:105A80009F258D939C934394B3E0B415F0F0239439
:105A9000EE0CFF1CE9E02E12D3CF33940E5F1F4FA4
:105AA000F3E03F12BDCF411010C08FEF88AB89AB40
:105AB0001AAA0E9449058160782F9CAB8BAB48A93C
:105AC00059A96AA98CA90E94862680910604909102
:105AD0000704892B09F43EC04091FB035091FC035D
