:100000000C94E2030C9429040C9429040C94290404
:100010000C9429040C9429040C9429040C942904AC
:100020000C9429040C9429040C94D0240C94A3253A
:100030000C94A71B0C9429040C9429040C942904F7
:100040000C9429040C9429040C9429040C9429047C
:100050000C9429040C940F1C0C9429040C9429046E
:100060000C9429040C9429040C9429040C9429045C
:100070000C9429040C9429040C9429040C9429044C
:100080000C9429040C9429040C9429040C9429043C
:100090000C9429040C9429040C9429040C9429042C
:1000A0000C9429040C9429040C94290414001A00BB
:1000B0000800150017001C0018000C001300046154
:1000C0001600070009000A000B000D000E001200C8
:1000D0001D621B00060019002C4105001100106272
:1000E0000F4229001E001F0020002E000100010009
:1000F00052002A0001002100220023002D003800B8
:1001000050004F0001002762240025002600010056
:100110002E022502510028003A003B003C003D0021
:100120003E003F0001004B004C00400041004200F7
:100130004300440045004A004D00010037003600EE
:10014000340034020100260227024E0001000100A3
:100150000100010001000100010001000100010097
:100160000100010001000100010001000100010087
:100170000100010001000100010001000100010077
:100180000100010001000100010001000100010067
:1004000001000100010001000100010064321464D8
:100410003214783C1E1E140A050000000001010180
:100420000202030405050607090A0B0C0E0F111240
:10043000141517191B1D1F212325282A2C2F313491
:1004400036393B3E414346494C4F5255585A5D61FF
:1004500064676A6D707376797C7F8386898C8F92EE
:1004600095989B9EA2A5A7AAADB0B3B6B9BCBEC1D4
:10047000C4C6C9CBCED0D3D5D7DADCDEE0E2E4E621
:10048000E8EAEBEDEEF0F1F3F4F5F6F8F9FAFAFB41
:10049000FCFDFDFEFEFEFFFFFFFFFFFFFFFEFEFE79
:1004A000FDFDFCFBFAFAF9F8F6F5F4F3F1F0EEEDE8
:1004B000EBEAE8E6E4E2E0DEDCDAD7D5D3D0CECB77
:1004C000C9C6C4C1BEBCB9B6B3B0ADAAA7A5A29EE9
:1004D0009B9895928F8C898683807C797673706DDA
:1004E0006A6764615D5A5855524F4C494643413ED4
:1004F0003B393634312F2C2A282523211F1D1B1967
:1005000017151412110F0E0C0B0A09070605050426
:1005100003020201010100000000000000000101CF
:1005200001010101010101020202020202020202B2
:100530000303030303030303040404040404050581
:100540000505050606060606070707070808080842
:100550000909090A0A0A0A0B0B0B0C0C0C0D0D0DEC
:100560000E0E0F0F0F10101111111212131314147D
:10057000151516161717181819191A1A1B1C1C1DF1
:100580001D1E1F1F20202122222324252526272748
:1005900028292A2B2B2C2D2E2F2F30313233343576
:1005A00036363738393A3B3C3D3E3F404142434482
:1005B000464748494A4B4C4D4F5051525355565758
:1005C000585A5B5C5E5F606263646667696A6C6D03
:1005D0006E707173747678797B7C7E80818384867B
:1005E000888A8B8D8F91929496989A9B9D9FA1A3B8
:1005F000A5A7A9ABADAFB1B3B5B7B9BBBDBFC1C4BA
:10060000C6C8CACCCFD1D3D6D8DADCDFE1E4E6E87D
:10061000EBEDF0F2F5F7FAFCFF12036B00650079E1
:100620000062006F00610072006400000016037138
:10063000006D006B006200750069006C006400656D
:1006400000720000000403090409026D00040100A7
:10065000A0FA0904000001030101000921110100B1
:10066000012240000705810308000A090401000176
:1006700003010200092111010001224D000705823A
:100680000308000A09040200010300000009211107
:100690000100012236000705830308000A0904034C
:1006A00000010300000009211101000122390007A7
:1006B0000584032000011201100100000008EDFE76
:1006C000606001000102000105010906A1010507A2
:1006D00019E029E715002501950875018102050833
:1006E000190129059505750191029501750391017F
:1006F0000507190029F71500250195F875018102F4
:10070000C005010980A10185021601002603001A17
:1007100081002A8300751095018100C0050C090134
:10072000A1018503160100269C021A01002A9C02E1
:10073000751095018100C005010902A1010901A1FF
:100740000005091901290515002501950575018187
:1007500002950175038101050109300931158125D3
:100760007F95027508810609381581257F950175E9
:10077000088106050C0A38021581257F9501750848
:100780008106C0C005010906A101050719E029E796
:1007900015002501950875018102950175088101F3
:1007A0000508190129059505750191029501750343
:1007B00091010507190029FF150026FF0095067510
:1007C000088100C011241FBECFEFDAE0DEBFCDBF2D
:1007D00004B603FE27C08091570290915802A09161
:1007E0005902B0915A028730904BA740B04BD1F4D8
:1007F00010925702109258021092590210925A0207
:1008000014BE84B7877F84BF0FB6F894A8958091F3
:100810006000886180936000109260000FBEE0E08D
:10082000F8E3099511E0A0E0B1E0E2EFF1E502C0E4
:1008300005900D92A433B107D9F722E0A4E3B1E00B
:1008400001C01D92A735B207E1F70E941D220C944A
:10085000F7280C94000090E080E008950895089532
:1008600081E0089580FF07C0269A2E9881FF05C079
:10087000509A589808952698F8CF5098FACF81E06A
:1008800008950C9430040E9406142FEF84E39CE03A
:10089000215080409040E1F700C000000C94341CCF
:1008A000FF920F931F93CF93DF938C01FC01C081C4
:1008B000D18180917901811148C08281882309F416
:1008C0003FC0CE010E946D19F82E682FCE010E9404
:1008D0001319BE018F2D0E942A06EC01B8010E9457
:1008E0004104882309F478C0B801CE010E945A0857
:1008F000882309F471C0C633F0E7DF0709F484C028
:10090000C0F5C53190E7D90728F5C230E0E7DE072A
:1009100008F099C0C115F0E7DF0709F458C0C130ED
:10092000D04709F460C081E080933601809337019D
:10093000C801DF91CF911F910F91FF900C943F045C
:10094000CE010E944219F82EC4CFCE010E946D192B
:10095000BE01C1CFC43390E7D90709F44EC0C533F7
:10096000D04709F7F80182818823B1F10E94560C23
:1009700033C0CA33F0E7DF0709F457C070F4F80159
:100980008281C833F0E7DF0709F44AC008F443C0A6
:10099000882311F10E949A0B1FC0CC33E0E7DE07D9
:1009A00009F4D5C008F448C0CD33D04709F0BBCF17
:1009B000F8018281882309F4F1C0109237010E9466
:1009C000D91B909335018093340180E2CDC0F801AA
:1009D000828181110E94430480E0DF91CF911F91B9
:1009E0000F91FF900895F80182818823A9F38091E7
:1009F000F30181608093F301EFCFF80182818823B6
:100A000059F30E94600CE8CFF8018281882321F31A
:100A10000E944B0BE1CF8823F9F20E94630BDCCFDD
:100A20008823D1F20E94820BD7CFF80182818823DC
:100A300099F20E94B20BD0CFF8018281882361F233
:100A40000E94CA0BC9CFF8018281882309F470CFB4
:100A50000E942A1B811102C00E94041B0E94471B96
:100A600090E09093480280934702FE01E350F047E4
:100A7000809147028160E231F105C8F4EE5BFA4FE4
:100A80000C94A92854056005640568056C0570057B
:100A9000740578057C058005840588058C0590051E
:100AA000940598059C05A00580914702826080937B
:100AB0004702809147020E944B1B0E9406148CCF74
:100AC000809147028460F3CF809147028860EFCF26
:100AD000809147028061EBCF809147028062E7CF2F
:100AE000809147028064E3CF809147028068DFCF26
:100AF000809147028460EACF809147028E7FD7CFF2
:100B0000809147028D7FD3CF809147028B7FCFCFDB
:100B100080914702877FCBCF809147028F7EC7CFDE
:100B2000809147028F7DC3CF809147028F7BBFCFDB
:100B3000809147028F77BBCF809147028B7FEACFAE
:100B400090914702892F97FB87F98058B0CFF80121
:100B50008281882361F0109236010E94D91B909304
:100B600035018093340182E00E94701135CF80916D
:100B7000360181110FC080913401909135010E949E
:100B8000E51B883C910530F486E20E94451086E220
:100B90000E94211182E00E9477111ECF80913701BF
:100BA00081110FC080913401909135010E94E51BA5
:100BB000883C910530F487E20E94451087E20E944C
:100BC000211180E2E8CF0C94AB08259A2D988FEF85
:100BD0009FEF909387008093860082E88093800047
:100BE00089E1809381000C94D21F0E94E5050C944A
:100BF000A908282F2D9880918000211108C08F7797
:100C00008093800010928900109288000895806877
:100C100080938000233039F48FEF9FEF9093890009
:100C200080938800089583E090E0821B9109880FEB
:100C3000991F2FEF3FEF02C0369527958A95E2F76F
:100C4000309389002093880008950C9432040C940A
:100C500025060895972F70E029E0929F600D711D81
:100C60001124FB019BE1899FE00DF11D1124EE0F82
:100C7000FF1FE455FF4F859194910895FC01EE0FFD
:100C8000FF1FE45FFB4F8591949108950E942A060F
:100C90000E94D907811520E5920708F040C0811510
:100CA00030E4930708F0FAC0883E910518F5803EBD
:100CB000910508F07DC1883A910580F4853A910547
:100CC00008F087C08130910509F472C120F08430AA
:100CD000910508F06DC190E080E008958D3B91058D
:100CE00008F482C0803C9105B0F3805C91090E94B9
:100CF0003E060895811540E2940750F4811521E0E5
:100D0000920708F055C1803F910528F3906508953A
:100D1000811530E3930708F0BEC09F70E8CF8115BE
:100D200045E5940760F5811524E5920708F0E5C0D4
:100D3000811532E5930750F4811541E5940708F4D5
:100D4000B0C0982F8827816F906A0895282F269524
:100D50002695AC01437055278115934508F0BEC018
:100D600081E090E002C0880F991F4A95E2F740E2C7
:100D7000249F90011124822B932B9C68089580332B
:100D800040E7940798F4803220E7920708F0BFC04C
:100D9000811536E5930708F4B5C09C0130569F7065
:100DA0002115304108F097CF90620895813320E7F4
:100DB000920709F4B3C008F4AEC0823340E7940749
:100DC00009F4AFC08333904709F085CF80E093EDFD
:100DD0000895853A910509F4A7C0863A910509F06E
:100DE000A6C082E890E40895883A910509F4A2C06B
:100DF000893A910509F4A1C08A3A910509F4A0C085
:100E00008B3A910509F49FC08C3A910509F49EC074
:100E10008B3B910509F49DC08C3B910509F49CC066
:100E20008D3A910509F49BC0803B910509F49AC065
:100E30008E3A910509F499C08F3A910509F498C04A
:100E4000813B910509F497C0823B910509F496C056
:100E5000833B910509F495C0843B910509F494C046
:100E6000853B910509F493C0863B910509F492C036
:100E7000873B910509F491C0883B910509F490C026
:100E8000893B910509F48FC08A3B910509F48EC016
:100E900080E094E408959927906C08959F70906A7B
:100EA00008959C0154E0369527955A95E1F7922FC5
:100EB0009370482F437021E030E002C0220F331FAF
:100EC0004A95E2F73C68392B86958695837040E217
:100ED000849FC0011124822B932B089581E090E020
:100EE00002C0880F991F4A95E2F740E2249F9001C3
:100EF0001124822B932B9A680895982F8827846F4A
:100F0000906A0895982F882788279F714DCF805227
:100F10009047946D089580E091ED089580E090ED04
:100F2000089580E092ED089581E890E4089583E8C3
:100F300090E4089582EE94E4089589EE94E408958F
:100F40008AEE94E4089585EB94E4089586EB94E4A6
:100F5000089583EB94E4089584EB94E4089587EB7B
:100F600094E408958CEC94E408958DEC94E4089551
:100F700083E895E408958AE895E4089582E995E484
:100F8000089584E995E4089581E296E4089583E262
:100F900096E4089584E296E4089585E296E408953F
:100FA00086E296E4089587E296E408958AE296E45C
:100FB00008958238910549F1B0F48133910509F41F
:100FC0005CC048F48932910509F452C08A32910517
:100FD00009F458C008958533910509F444C0893354
:100FE000910599F00895833E910531F138F4803EE2
:100FF000910591F0823E9105B1F00895863E9105EC
:1010000011F1873E910541F1089520914702237027
:10101000C9F080EE90E008952091470220FF12C0B1
:1010200089E390E008952091470222FF0BC024FF3E
:101030002EC090E080E008952091470222FD2AC052
:1010400024FDF7CF08952091470223FFFBCF24FD15
:10105000F0CF87EE90E008952091470223FFF0CF74
:1010600086EE90E008952091470225FD16C0089570
:101070002091470225FD14C008952091470226FDC6
:1010800012C008952091470226FD10C0089583EEF6
:1010900090E0089582EE90E0089589E290E008954E
:1010A00085E390E008958AE290E0089581E390E07E
:1010B000C9CF08950F931F93CF938C01FB018281B9
:1010C000811106C0C1E08C2FCF911F910F9108951F
:1010D000C0914501C11125C00531104799F70E9403
:1010E000590881E0809345010E94D91B90934401E7
:1010F000809343011092380110923A011092390105
:1011000010923C0110923B0110923E0110923D0161
:101110001092400110923F01109242011092410141
:10112000D2CF80914301909144010E94E51B883CFD
:10113000910540F680913801E82FF0E0EE0FFF1F97
:10114000E75CFE4F118300838F5F80933801C0E01E
:10115000BACF0C942E040C942F04CF93DF9385B751
:10116000806885BF85B7806885BFADE1B1E040E2AA
:1011700051E0C1E0D0E08D91E82FE295EF70F0E012
:1011800061A18F709E0101C0220F8A95EAF7922F0C
:101190009095962391A382A1822B82A34A175B0785
:1011A00051F7A4E1B1E04DE151E0C1E0D0E08D9113
:1011B000E82FE295EF70F0E061A18F709E0101C011
:1011C000220F8A95EAF7922F9095962391A382A1F8
:1011D000822B82A34A175B0751F710924D011092A0
:1011E0004C01109247011092460110924F0110924B
:1011F0004E01109249011092480110925101109233
:10120000500110924B0110924A01DF91CF910C9442
:10121000F5056F927F929F92AF92BF92CF92DF922D
:10122000EF92FF920F931F93CF93DF93C6E4D1E029
:101230000DE111E0EE24E394F12CBB24B394C880BB
:10124000D98019821882D8018D918D01E82FE295FD
:10125000EF70F0E091A18F70970101C0220F8A9585
:10126000EAF7892F822B81A382A1A22EA0948A2142
:1012700082A3B0EABA95F1F784E1682E81E0782E76
:1012800090E080E0D3017D913D01472F42954F7062
:1012900050E0DA0190969C90488159817F70D70187
:1012A00002C0AA0FBB1F7A95E2F7BD01692109F0C0
:1012B0005FC0B701082E02C0660F771F0A94E2F7DD
:1012C000462B572B59834883019689309105D1F6D7
:1012D00081A18A2181A382A1282B22A388819981BF
:1012E000C816D90641F0B09252010E94D91B9093C2
:1012F0005401809353012296B1E000321B0709F09C
:101300009ECF80915201882311F1809153019091D9
:1013100054010E94E51B0697D0F080914601909100
:10132000470190934D0180934C0180914801909129
:10133000490190934F0180934E0180914A01909111
:101340004B019093510180935001109252010E94E1
:10135000E30581E0DF91CF911F910F91FF90EF9016
:10136000DF90CF90BF90AF909F907F906F90089547
:1013700070E060E0A5CFE82FF0E0EE0FFF1FE45B28
:10138000FE4F808191810895089535B1242F2095D5
:10139000232335B1432B3FB7F894FC01680F791F25
:1013A000E617F70711F43FBF0895819198E045B91A
:1013B000000000C087FF25B9880F000000C000C0F2
:1013C00000C025B900C09A9591F7EACF24B1242B2B
:1013D00024B99B01220F331F620F731F0E94C5099E
:1013E00087EC90E00197F1F700C00000089544E019
:1013F0000C94E609CF92DF92EF92FF920F931F9326
:10140000CF93DF93E901662309F466C0E42EF12C43
:10141000EFEFF0E0E61BF109EE9D8001EF9D100D6E
:10142000FE9D100D1124212FE12FFF27EE1AFF0A38
:101430005CE3C52ED12CB6010E948128FB01BC01C2
:10144000E69EC001E79E900DF69E900D1124B60118
:101450000E948128E230F10589F168F4812F262F5E
:10146000210F309781F0242F461B319761F080E0E7
:1014700020E040E008C0E430F10551F128F1842F6C
:10148000861B3597A1F7E42FF0E0E75EFA4F449111
:10149000E22FF0E0E75EFA4F9491E82FF0E0E75E8C
:1014A000FA4FE49149839883EA83DF91CF911F91AA
:1014B0000F91FF90EF90DF90CF900895862F810FCE
:1014C000E42F412F2E2FDFCFE42FE61B842FF9CFFF
:1014D000842F462F410FD7CF842F242FD4CF88E0DD
:1014E00090E00C94B728AB01BC0188E090E00C942C
:1014F000D528E0E2F2E083E08083109221028FEFB2
:101500008283838360912002709121028091220264
:10151000909123020C94730A80912002E8E2F2E099
:1015200080FF06C069E070E088E292E00C94F70961
:10153000118210821282339682E0E334F807C1F7F9
:10154000F1CFE8E2F2E0818360834283339692E058
:10155000E334F907C1F70C948C0AEF92FF920F93D2
:101560001F93CF93DF9300D01F92CDB7DEB7182F14
:10157000E92EF62E042F8091200290912102A09155
:101580002202B09123028093240290932502A0931B
:101590002602B09327028091200280FF1FC09E0187
:1015A0002F5F3F4F812F9E2D0E94FA0980912402C8
:1015B00010FB87F98093240216958091250280788C
:1015C000812BE0FA87F980932502F092260200939E
:1015D00027024B8169818A810E94A10A0F900F9096
:1015E0000F90DF91CF911F910F91FF90EF90089591
:1015F0000F931F93CF93DF93EC01062F142F90913D
:10160000200290FF43C0892F8E77823021F5CE01D2
:101610000E94AD0A80912002C0FB87F980932002CE
:10162000C695809121028078C82BD0FBC7F9C09362
:1016300021020093220210932302609120027091F4
:1016400021028091220290912302DF91CF911F917C
:101650000F910C94730A892F86958F732EE3280FB0
:101660002F73243018F410912302D4CF865C8F732B
:10167000893080F6991F9927991FD0912102CD2F8B
:10168000CC0FC92BD7FBDD27D0F9C4CFDF91CF9189
:101690001F910F910895E0E2F2E02081221F22279E
:1016A000221F30912102432F440F842F822B37FBBE
:1016B000992790F9089668E671E00E949528438181
:1016C00062810C94F80A20912002221F2227221FF7
:1016D00030912102432F440F842F822B37FB99270F
:1016E00090F98830910540F4805A9E4F4091230232
:1016F000609122020C94F80A089768E671E00E9453
:101700009528F4CF60912202683F90F4685F809141
:101710002002881F8827881F90912102292F220FDD
:1017200097FB992790F940912302822B0C94F80A99
:101730006FEFEDCF60912202683090F06850809199
:101740002002881F8827881F90912102292F220FAD
:1017500097FB992790F940912302822B0C94F80A69
:1017600060E0EDCF40912302483F90F4485F8091C4
:101770002002881F8827881F90912102292F220F7D
:1017800097FB992790F960912202822B0C94F80A1A
:101790004FEFEDCF40912302483090F048508091B8
:1017A0002002881F8827881F90912102292F220F4D
:1017B00097FB992790F960912202822B0C94F80AEA
:1017C00040E0EDCF9091200290FF3BC091788111D5
:1017D00026C09260909320026091200270912102B5
:1017E00080912202909123020E94730A809120022C
:1017F000982F9E779230D9F410926A01881F88271B
:10180000881F90912102292F220F97FB992790F989
:101810004091230260912202822B0C94F80A8931B4
:1018200010F09063D7CF8F73880F982BD3CF982F5A
:101830009695925C9F73963108F791E090936A01B8
:10184000DDCF08958091F30181608093F30181E001
:1018500080936B010E942A1B811104C00E94041B0B
:101860000E94790A0E946F0A6093200270932102FD
:1018700080932202909323026E7761F40E94790A8A
:101880000E946F0A609320027093210280932202CB
:101890009093230281E080936A018091200280FF6F
:1018A00004C086958F730C94E20B089580912002FA
:1018B00086958F738F5F893108F081E00C94E20B7D
:1018C00090912002892F8E7F90FF8160809320026B
:1018D0006091200270912102809122029091230256
:1018E0000E94730A8091200280FF04C086958F7346
:1018F0000C94E20B10926A012FEF80E792E02150E6
:1019000080409040E1F700C000000C948C0ACF9317
:10191000C82F80916801909169010E94E51BEC2F0E
:10192000F0E0EB5EFB4FE491E817190609F010F5C3
:101930000E94D91B9093690180936801E09167012F
:10194000F0E0E75EFB4F449180912002881F8827DA
:10195000881F90912102292F220F97FB992790F938
:1019600060912202822B0E94AD0A809167018F5FF5
:1019700080936701CF910895CF93C82F809165011F
:10198000909166010E94E51BEC2FF0E0EE5EFB4FAC
:10199000E491E817190609F0E8F40E94D91B909326
:1019A000660180936501409123026091220280913B
:1019B0006301909164010E94AD0A8091630190914E
:1019C0006401019668E671E00E94812890936401A9
:1019D00080936301CF910895CF92DF92FF920F938E
:1019E0001F93CF93DF93F82E809161019091620154
:1019F0000E94E51BEF2DE695F0E0EE5EFB4FE491D3
:101A0000E817190609F0A8F50E94D91B9093620106
:101A10008093610108E212E0D0E0C0E088E6C82EC1
:101A2000DD24D39480915F01909160018C0F9D1F04
:101A3000B6010E9481289801409123026091220200
:101A40000E94FA09A8960D5F1F4FC83681E0D8079B
:101A500049F70E948C0A80915F0190916001F0FE2D
:101A600010C00196BE010E9481289093600180936E
:101A70005F01DF91CF911F910F91FF90DF90CF9089
:101A800008950197F2CFAF92BF92CF92DF92EF927B
:101A9000FF920F931F93CF93DF93C82FFF24FA94E5
:101AA00080FD02C0FF24F39480915D0190915E015E
:101AB0000E94E51BC695EC2FF0E0E15FFB4FE4913F
:101AC000E817190611F008F053C00E94D91B909333
:101AD0005E0180935D01C8E2D2E010E000E097E093
:101AE000C92ED12C198218821A8287E0A82EB12C17
:101AF000E12C80915C018E0D87FD875F082E000C24
:101B0000990B08171907E9F4209123022A9DC001B7
:101B10002B9D900D1124B6010E949528462F80918F
:101B20002002881F8827881F90912102592F550F66
:101B300097FB992790F99E0160912202852B0E94C4
:101B4000FA09EF0C81E0A81AB10899F60F5F1F4F50
:101B500023960930110531F60E948C0A80915C01B0
:101B600091E0F91212C081110EC088E080935C01EF
:101B7000DF91CF911F910F91FF90EF90DF90CF9069
:101B8000BF90AF9008958150F1CF90E00196B801D9
:101B90000E949528EBCFBF92CF92DF92EF92FF92F7
:101BA0000F931F93CF93DF93CDB7DEB76B970FB62D
:101BB000F894DEBF0FBECDBF182F80915A019091CF
:101BC0005B010E94E51BE12FF0E0E45FFB4FE49135
:101BD000E817190611F008F077C00E94D91B9093FE
:101BE0005B0180935A01CE0101967C0110E000E078
:101BF0006C01D70111961C9211971C9212961C929F
:101C0000B12C9091000180915901B99E800D112451
:101C100089300CF088E087FD80E0082E000C990BDD
:101C200008171907A1F480912002881F8827881FB0
:101C300090912102592F550F97FB992790F9970101
:101C40004091230260912202852B0E94FA09B394ED
:101C5000B7E0BB12D6CF0F5F1F4FE3E0EE0EF11CD3
:101C60000930110531F628E232E059E0E52EF12C79
:101C7000C801B7010E949528FC01EE0FFF1FE80F75
:101C8000F91FEC0DFD1D8181D90111968C931197DF
:101C900080818C93828112968C930F5F1F4F2D5FF2
:101CA0003F4F0231110521F70E948C0A90910001EB
:101CB000809159019130E1F48A3FB4F489EF809327
:101CC00059018FEF809300016B960FB6F894DEBF39
:101CD0000FBECDBFDF91CF911F910F91FF90EF907D
:101CE000DF90CF90BF900895815080935901ECCF41
:101CF00080312CF08FE08093590181E0E3CF8F5F3A
:101D0000F4CFFF920F931F93CF93DF9380915701EE
:101D1000909158010E94E51B883E9340C8F10E94B3
:101D2000D91B909358018093570180915501909150
:101D30005601019681709927909356018093550121
:101D400029E0289F8001299F100D1124C8E2D2E0CC
:101D500080E5F82EC801817099279E0140912302E9
:101D600060912202FC01FE9EC001FF9E900D112495
:101D70000E94FA09075F1F4F2396F2E0C334DF0782
:101D800049F7DF91CF911F910F91FF900C948C0A2E
:101D9000DF91CF911F910F91FF90089580916A017B
:101DA000882371F18091200286958F739EE3980FAE
:101DB0009F73943018F482500C94870C9AE3980F18
:101DC0009F73933018F486500C94BC0C97E3980FD3
:101DD0009F73963018F489500C94EC0C91E3980F93
:101DE0009F73963018F48F500C94430D9BE2980F1C
:101DF0009F73933018F485510C94CB0D0C94810E85
:101E0000089590937101809370010895E09170019D
:101E1000F0917101309721F00190F081E02D09944B
:101E200080E00895E0917001F0917101309721F008
:101E30000280F381E02D09940895E0917001F09102
:101E40007101309721F00480F581E02D0994089507
:101E500020916E0130916F012817390771F090932E
:101E60006F0180936E01E0917001F09171013097E4
:101E700021F00680F781E02D0994089520916C01EE
:101E800030916D012817390771F090936D0180939F
:101E90006C01E0917001F0917101309721F00084A4
:101EA000F185E02D0994089508950C94540F0E9433
:101EB000D01B0E94AD080E94A11C0E94D21F0C944E
:101EC000220C5F926F927F928F929F92AF92BF92FD
:101ED000CF92DF92EF92FF920F931F93CF93DF93F6
:101EE000CDB7DEB72A970FB6F894DEBF0FBECDBFD1
:101EF0000E94090993E7A92E91E0B92E10E000E0B5
:101F000088248394912C502E802F0E94BB097C0141
:101F1000F501C190D1905F01C816D90609F45EC0E1
:101F20008091F30181FD0E94C40990E080E0CE24FD
:101F3000DF243401082E02C0660C771C0A94E2F7F5
:101F4000960126213721232B09F443C08E835F821B
:101F5000E620F72081E0EF2809F480E088870E94DE
:101F6000D91B8160782F9A8789874E815F81688528
:101F70008A850E941B10000F111FF801ED58FE4FBB
:101F80008081918168267926718260820E94241F57
:101F90000E94060F909172018917B9F10E94060FF5
:101FA000809372012A960FB6F894DEBF0FBECDBFA4
:101FB000DF91CF911F910F91FF90EF90DF90CF9025
:101FC000BF90AF909F908F907F906F905F900C9498
:101FD000270601968930910509F0ABCF0F5F1F4F9F
:101FE0000330110509F08FCF8FEF89838A831B821D
:101FF0000E94D91B8160782F9D838C8349815A81EF
:102000006B818D810E941B10C1CF2A960FB6F89468
:10201000DEBF0FBECDBFDF91CF911F910F91FF901B
:10202000EF90DF90CF90BF90AF909F908F907F9078
:102030006F905F900895CF93DF93CDB7DEB72B9766
:102040000FB6F894DEBF0FBECDBF4F8358876987A8
:102050007A878B871E821D8285E0FE013796DE011E
:10206000119601900D928A95E1F749815A816B8111
:102070007C818D819E812B960FB6F894DEBF0FBEBA
:10208000CDBFDF91CF910C94B816882309F4D8C046
:10209000823871F40E94060F81FDD2C089E30E944C
:1020A0000D1A0E94D51A89E30E944A1A0C94D51A77
:1020B000833859F40E94060F80FDC2C083E50E9458
:1020C0000D1A0E94D51A83E5EFCF843859F40E9487
:1020D000060F82FDB5C087E40E940D1A0E94D51A32
:1020E00087E4E2CF9CEF980F913A18F40E940D1A02
:1020F000DDCF90E2980F983050F4877091E001C0E6
:10210000990F8A95EAF7892F0E948C1ACFCF9BE509
:10211000980F933070F4853A31F0863A39F083E8BD
:1021200090E00C94280F81E890E0FBCF82E890E0EB
:10213000F8CF98E5980F953108F082C0883A09F4F5
:1021400040C0893A09F440C08A3A09F440C08B3A49
:1021500009F440C08C3A09F440C08B3B09F440C0FC
:102160008C3B09F440C08D3A09F440C0803B09F42F
:1021700040C08E3A09F440C08F3A09F440C0813B18
:1021800009F440C0823B09F440C0833B09F440C0DD
:10219000843B09F440C0853B09F440C0863B09F408
:1021A00040C0873B09F440C0883B09F440C0893BEC
:1021B00009F440C08A3B09F440C090E080E00C94F0
:1021C0003E0F82EE90E0FBCF89EE90E0F8CF8AEEF2
:1021D00090E0F5CF85EB90E0F2CF86EB90E0EFCF8B
:1021E00083EB90E0ECCF84EB90E0E9CF87EB90E0DD
:1021F000E6CF8CEC90E0E3CF8DEC90E0E0CF83E88D
:1022000091E0DDCF8AE891E0DACF82E991E0D7CFA3
:1022100084E991E0D4CF81E292E0D1CF83E292E0F1
:10222000CECF84E292E0CBCF85E292E0C8CF86E2C7
:1022300092E0C5CF87E292E0C2CF8AE292E0BFCFC0
:102240000895882309F44BC0823871F40E94060F68
:1022500081FF45C089E30E940D1A0E94D51A89E3C7
:102260000E944A1A0C94D51A833859F40E94060F1A
:1022700080FF35C083E50E940D1A0E94D51A83E5C0
:10228000EFCF843859F40E94060F82FF28C087E4FC
:102290000E940D1A0E94D51A87E4E2CF9CEF980F96
:1022A000913AF0F290E2980F983050F4877091E0F4
:1022B00001C0990F8A95EAF7892F0E94921AD2CF0E
:1022C0009BE5980F933020F490E080E00C94280F69
:1022D000885A853120F490E080E00C943E0F0895F8
:1022E000882321F00E948C1A0C94D51A0895882313
:1022F00021F00E94921A0C94D51A08958F929F9201
:10230000AF92BF92DF92EF92FF920F931F93CF9302
:10231000DF937C01D62FC72FFC01058102950F703A
:10232000128111110E94AB1A0E94061AD82E88231E
:1023300071F0112321F180E28D0F883000F182E0ED
:102340000E94F0190E94061A91E0D82ED926EC2F8F
:10235000E295EF70F0E0E155FE4E0C94A928C11112
:10236000C1111112111253126F12EE11EE117A12E5
:10237000EE111213121385138E13EE11AE13D12C1E
:10238000E6CF0C2F0F70C07F11F00295007F112354
:10239000A9F0002359F080E28D0F883010F0D111A0
:1023A00009C0802F0E948C1A0E94D51A8D2F0E947E
:1023B000451014C0802F0E949D1AF6CF8D2F0E94C9
:1023C0002111002359F080E28D0F883010F0D111D7
:1023D00024C0802F0E94921A0E94D51ADD2009F491
:1023E000C4C10E94E31980FDC0C1F70112820E949E
:1023F000DD190E945718C7010E94C1130E94DD1900
:10240000DF91CF911F910F91FF90EF90DF90BF90E0
:10241000AF909F908F900C947818802F0E94A31AF1
:10242000DBCFFC2FFF70BF2EC07FC03219F0B294FB
:1024300080EFB822DD2369F0D13029F1112369F151
:10244000002359F0F701858180FFB0CF8F7085831D
:1024500004C0112361F0011104C08B2D0E94701182
:10246000BDCF8B2D0130D1F70E94BF1AB7CF01111C
:1024700006C00E94C21A8B2D0E947711AFCF013087
:1024800009F4ACCFF6CF112321F0063008F0A6CF27
:10249000E4CF053008F0A2CFEECF002361F38D2FFB
:1024A0000E9421119BCF8C2F86958695837069F0B1
:1024B000813009F093CF8D2F9C2F9370111102C0A2
:1024C00090E080E00E943E0F89CF8D2F9C2F93706B
:1024D000111102C090E080E00E94280F7FCF8D2F65
:1024E000112329F00E942D1E0E94191F77CF0E94F0
:1024F000951EFACF8C2F837009F047C011116ECF53
:102500002D2F229526952770220F220F6D2F6F7089
:10251000862E912CB12CA12C022E04C0880C991C63
:10252000AA1CBB1C0A94D2F760E070E0CB01D4FF78
:102530000FC06FE070E080E090E004C0660F771F8E
:10254000881F991F2A95D2F7609570958095909570
:10255000C695C695C370C23051F080F468297929B8
:102560008A299B29C13071F00E94001837CF682951
:1025700079298A299B290E941C1830CF0E940018B3
:10258000C501B4010E94E41729CF8695112311F0EB
:102590008C2F8170882309F421CF2D2F2295269529
:1025A0002770220F220F6D2F6F70862E912CB12C69
:1025B000A12C022E04C0880C991CAA1CBB1C0A94D6
:1025C000D2F760E070E0CB01D4FF0FC06FE070E0A5
:1025D00080E090E004C0660F771F881F991F2A953E
:1025E000D2F76095709580959095C695C695C37005
:1025F000C23051F080F4682979298A299B29C13099
:1026000071F00E94DA18EACE682979298A299B2973
:102610000E94F618E3CE0E94DA18C501B4010E94A8
:10262000BE18DCCEE0E2ED0FE53108F062C0F0E06C
:10263000E45EFC4E0C94A92831133113311331138D
:10264000311331133113311331133113311331136A
:1026500031133113311331133E134C1353135A13E7
:102660006413DF708C2F8F71112321F00E94571893
:102670008D2FF4CE0E9478188D2FFECE112341F0BD
:10268000053008F0ABCE8C2F8F710E949D18A6CE1E
:10269000063008F0A3CEF7CF8C2F8F71112339F0BD
:1026A0000E9457189BCE8C2F8F711123C9F30E9463
:1026B000781894CE112329F08C2F8F710E94421824
:1026C0008DCE0E9438188ACE112349F0CF718C2FFD
:1026D0000E94571863E08C2F0E94E7197FCE81E09B
:1026E0000E94F019023008F479CE82E00E94F019BD
:1026F00075CE112329F0011159CE8C2F8F71D0CFB7
:102700000111CDCE8C2F8F71D2CF4C2F4F706D2FEA
:10271000C7010E942B040E94611760CE11115ECE8A
:10272000CF70C230A9F040F4CC2379F0C13009F069
:1027300055CE0E94FB1F52CEC33069F0C43009F061
:102740004DCE8D2F0E944A2049CE0E94E31F46CED7
:102750000E94142043CE0E94272040CE4C2F4F7061
:102760006D2FC7010E94290639CEDF91CF911F91AD
:102770000F91FF90EF90DF90BF90AF909F908F9060
:1027800008950F931F93CF93DF93EC019881898174
:102790002B813C81232B39F08F3F19F481E09F3F3F
:1027A00019F080E001C081E080FD17C0CE010E94D9
:1027B0005004882391F0688179818A810E94B91937
:1027C0008C010E9412190E94D917B801CE01DF9125
:1027D000CF911F910F910C947E11DF91CF911F919A
:1027E0000F9108950E94AB1A0E94BC1A0E947E1A93
:1027F0000E94D51A0E94C61F0E94191F90E080E017
:102800000E94280F90E080E00C943E0F0E949A1ADC
:102810000C94F2130E94AF19E92FE295EF70E25089
:10282000EE30E0F4F0E0E95EFB4E0C94A9282514AC
:1028300025142E142E1430142E142E142E14251498
:10284000251435142E142E143514803F19F020F45D
:10285000803E20F481E00895843FE1F380E0089514
:10286000803EC0F3813FD1F7F5CF93FB882780F9F5
:102870000895CF93DF9300D000D01F92CDB7DEB77D
:102880000F900F900F900F900F90DF91CF910895C0
:10289000CF93DF9300D000D000D0CDB7DEB726961F
:1028A0000FB6F894DEBF0FBECDBFDF91CF91089574
:1028B0001F93CF93DF93C0917A0116E080917B0143
:1028C0008C1304C0DF91CF911F910895D0E01C9F1D
:1028D000F0011D9FF00D1124E458FE4F40815181FD
:1028E00062817381848195810E9448142196C7700A
:1028F000E5CF4091AC015091AD016091AE01709176
:10290000AF018091B0019091B1010C9448141F93D4
:10291000CF93DF938091B101807FD1F48091AE019C
:102920008823B1F080917A01D0917B01B091AC0104
:10293000C091AD014091AF015091B001A1E0BF3F06
:1029400009F0A0E0BA016095709516E0D81304C0B4
:10295000DF91CF911F91089521E04115510521F09C
:102960002A2FCF3F09F020E090E020FD38C0189FCB
:10297000F001199FF00D1124E458FE4F21812C1312
:102980002EC020812B132BC02281211128C023812E
:1029900034812417350700F1241B350B283C310501
:1029A000F0F42091B1012F7020612093B10126E055
:1029B000289FF001299FF00D1124EF57FE4F8081D1
:1029C0008F70806180838CEA91E00E94C113DF9157
:1029D000CF911F910C945814260F371FDFCF01960B
:1029E0008770B4CFAF92BF92CF92DF92EF92FF92F7
:1029F0000F931F93CF93DF93CDB7DEB761970FB6D9
:102A0000F894DEBF0FBECDBF8C0185E0F801DE017A
:102A10001D9601900D928A95E1F7D8014C9111967F
:102A20005C9111971296EC903091AC016091AD01E0
:102A30008091AF019091B00121E0009731F06F3F9C
:102A400019F421E03F3F09F020E0B22FB170BB2E16
:102A500020FD80C1F801C380D480A090AE01AA20DF
:102A600009F427C1C816D906D0F1D601A81BB90BA5
:102A7000CD01FF24F394883C910508F0F12C80915E
:102A8000B101982F907FFF2009F4CAC0911187C02F
:102A9000FE2C651329C0341327C0E11025C08F70A8
:102AA00080618093B1010E9479148CEA91E00E94C8
:102AB000C1138091B101F80185838F2D61960FB606
:102AC000F894DEBF0FBECDBFDF91CF911F910F9164
:102AD000FF90EF90DF90CF90BF90AF9008958095DA
:102AE00090958C0D9D1DC5CF81E0CD2831F05F3FC5
:102AF00019F481E04F3F09F080E080FD24C081E0BF
:102B00008E25F82FF170DF2E80FF3FC080917A0173
:102B100020917B0136E0821318C04D875E878D853A
:102B20009E850E94AF19292F22952F70223008F11F
:102B3000243030F59F7009F1D80115969C91907F53
:102B4000E1F4FB2CBACF80E0DCCF90E0389FF001BD
:102B5000399FF00D1124E458FE4F6181561306C0D1
:102B60006081461303C062816E110FC001968770A9
:102B7000D2CF9F7011F0882321F3805E883008F354
:102B8000C8010E94C113BD2CDCCFEE2009F495CF03
:102B90008091B10181608093B101F12C8ECF6513DA
:102BA00012C0341310C0E1100EC0F8018583C801B3
:102BB0000E94C11386E0F801ACEAB1E001900D92E9
:102BC0008A95E1F741C04D875E878D859E850E947D
:102BD0000A14882309F4C8C0EE2009F4C5C0809106
:102BE000B101803270F02091AC013091AD01388795
:102BF0002F831986DB86CA868C87CE0107960E94B2
:102C0000C11386E0F801ACEAB1E001900D928A951B
:102C1000E1F70E9487140E947914FF24F3944DCFAA
:102C2000911115C07C2DD98AC88A6E2D89890E9480
:102C300039148CEA91E00E94C11386E0ECEAF1E0DD
:102C4000DF011D928A95E9F70E94791436CF65134A
:102C500012C0341310C0E1100EC0F8018583C80102
:102C60000E94C113ECEAF1E086E0DF011D928A9533
:102C7000E9F7FA2C22CF4D875E878D859E850E94CD
:102C80000A14882309F470C0EE2009F46DC0809105
:102C9000B101803208F4B5CF2091AC013091AD0183
:102CA0003A8329831B82DD82CC828E83CE010196FA
:102CB000A6CFC816D90638F1F601E81BF90BCF01EB
:102CC000F12C883C910508F03DC0FE2CEE2009F463
:102CD0004BC0651326C0341324C08091B10180FD20
:102CE00017C0982F907FA1F0D80115968C93159757
:102CF000903F09F45CCF982F907F905F8F70892B65
:102D000015968C9354CF809590958C0D9D1DD8CFA2
:102D100086E0F801ACEAB1E001900D928A95E1F706
:102D2000CCCE4D875E878D859E850E940A148111C9
:102D300068CF8091B10181608093B101C8010E9488
:102D4000C113BBCE7C2DD98AC88A6E2D89890E9479
:102D5000391473CFEE2041F04D875E878D859E85B7
:102D60000E940A1481114DCFC8010E94C11355CF92
:102D70001F93CF93DF93CDB7DEB72C970FB6F894A0
:102D8000DEBF0FBECDBF4F83588769877A878B8799
:102D90009C87CE0107960E94F214882309F442C052
:102DA0009F8188852A853B85232B39F08F3F19F435
:102DB00081E09F3F19F080E001C081E080FD08C004
:102DC0004F81588569857A858B859C850E9448143A
:102DD00016E080917A0190917B01891709F467C010
:102DE000819FC001112484589E4F0E94F2148823B1
:102DF00009F45DC0E0917A011E9FF0011124E458AE
:102E0000FE4F4081518162817381848195810E944E
:102E1000481480917A0190E00196877099278093F9
:102E20007A01D7CF86E0FE013796DE011196019038
:102E30000D928A95E1F79F8188852A853B85232B12
:102E400039F08F3F19F481E09F3F19F080E001C015
:102E500081E080FDBDCF20917B0130E0C90101966A
:102E60008770992740917A014817190699F096E0E2
:102E7000929FD001939FB00D1124A458BE4FFE0124
:102E8000319601900D929A95E1F780937B010E9413
:102E900058149ECF0E94061410927B0110927A0162
:102EA00086E0ECEAF1E0DF011D928A95E9F72C96C5
:102EB0000FB6F894DEBF0FBECDBFDF91CF911F914B
:102EC0000895EF92FF920F931F93CF93DF938C019E
:102ED000892B81F0F12CEE24E394E8012196F8018E
:102EE0008491843770F4843008F05FC08130B1F091
:102EF0008230A1F1DF91CF911F910F91FF90EF9060
:102F00000895853709F44CC008F43DC09CE7980F3C
:102F1000903780F78F770E94211149C00E5F1F4FB5
:102F2000FE01849190E2980F983060F48770FE2D36
:102F300001C0FF0F8A95EAF78F2F0E94AE1A0E94F8
:102F4000D51A02C00E9445108F2D815030F2EFE952
:102F5000FFE03197F1F700C00000F7CF0E5F1F4F81
:102F6000FE01849190E2980F983050F48770FE2D06
:102F700001C0FF0F8A95EAF78F2F0E94B41ADFCFA6
:102F80000E942111E1CF0E5F1F4FFE01C491C1507D
:102F9000D8F28FE99FE00197F1F700C00000F7CF6A
:102FA0000E5F1F4FFE01F490CFCF0E9445108E019F
:102FB000CBCF08956093CA017093CB018093CC016D
:102FC0009093CD010C94F2130F931F930091CA01BB
:102FD0001091CB012091CC013091CD01DC01CB01CE
:102FE000802B912BA22BB32B8093CA019093CB0102
:102FF000A093CC01B093CD011F910F910C94F213CB
:103000000F931F930091CA011091CB012091CC0125
:103010003091CD01DC01CB0180239123A223B32386
:103020008093CA019093CB01A093CC01B093CD01C2
:103030001F910F910C94F2130F931F930091CA01EB
:103040001091CB012091CC013091CD01DC01CB015D
:1030500080279127A227B3278093CA019093CB01A1
:10306000A093CC01B093CD011F910F910C94F2135A
:103070001092C6011092C7011092C8011092C901A6
:103080000C94F21341E050E060E070E004C0440FA3
:10309000551F661F771F8A95D2F74093C60150933C
:1030A000C7016093C8017093C9010C94F21341E009
:1030B00050E060E070E004C0440F551F661F771FAA
:1030C0008A95D2F78091C6019091C701A091C8015D
:1030D000B091C901842B952BA62BB72B8093C601E9
:1030E0009093C701A093C801B093C9010C94F21347
:1030F00041E050E060E070E004C0440F551F661FDF
:10310000771F8A95D2F7409550956095709580917C
:10311000C6019091C701A091C801B091C901842353
:103120009523A623B7238093C6019093C701A0934C
:10313000C801B093C9010C94F21341E050E060E083
:1031400070E004C0440F551F661F771F8A95D2F7A1
:103150008091C6019091C701A091C801B091C901A9
:1031600084279527A627B7278093C6019093C70188
:10317000A093C801B093C9010C94F2130F931F934D
:103180000091C6011091C7012091C8013091C90179
:10319000DC01CB01802B912BA22BB32B8093C6019A
:1031A0009093C701A093C801B093C9011F910F91DB
:1031B0000C94F2130F931F930091C6011091C70155
:1031C0002091C8013091C901DC01CB0180239123FA
:1031D000A223B3238093C6019093C701A093C80193
:1031E000B093C9011F910F910C94F2130F931F9389
:1031F0000091C6011091C7012091C8013091C90109
:10320000DC01CB0180279127A227B3278093C60139
:103210009093C701A093C801B093C9011F910F916A
:103220000C94F213089529E0929F800D1124982F99
:10323000977071E001C0770F9A95EAF786958695A9
:10324000869525E0829FC001112450E040E0A62F22
:10325000B0E0FC01E40FF51FEE54FE4F60819D01CC
:10326000042E02C0369527950A94E2F72170219525
:1032700026272723262720834F5F5F4F45305105A0
:1032800041F7089529E0929F800D1124982F97709F
:1032900086958695869525E0829FA001112470E091
:1032A00060E080E0FA01E60FF71FEE54FE4F208148
:1032B00030E0092E02C0369527950A94E2F7217076
:1032C0003327062E01C0220F0A94EAF7822B6F5F84
:1032D0007F4F6530710531F70895BF92CF92DF922D
:1032E000EF92FF920F931F93CF93DF938C01C090C7
:1032F000C601D090C701E090C801F090C90180914B
:10330000CA019091CB01A091CC01B091CD01C82A06
:10331000D92AEA2AFB2ACFE1D0E0BC2ED701C60188
:103320000C2E04C0B695A795979587950A94D2F769
:1033300080FD0EC0219788F7B12C8B2DDF91CF91A6
:103340001F910F91FF90EF90DF90CF90BF90089565
:10335000B8018C2F0E944606019761F3EECFCF9300
:10336000DF93EC010E946D19BE01DF91CF910C94A7
:1033700046061F93CF93DF93EB0190917901992338
:1033800031F0CB01DF91CF911F910C94AF198823BD
:1033900079F0CB010E946D19182F682FCE010E9481
:1033A0001319BE01812FDF91CF911F910C94460616
:1033B000CB010E944219182FF4CF8091CE01859540
:1033C0008595859508958091CE018770089598E040
:1033D000899F90011124622B6093CE010C945718A1
:1033E0009091CE01809589238093CE01282F27705C
:1033F00061F4282F082E000C330B9217130629F0C6
:103400008595859585950C94781808959091CE01B1
:10341000977081E009F480E0089590911301992359
:10342000E1F09091470297FF18C0E82FE695E695E6
:10343000E695EF3139F12091010130910201E20F5F
:10344000F32FF11D877021E030E001C0220F8A9533
:10345000EAF78181822B81830895209101013091C7
:103460000201F90132969FEF40E05191851751F02A
:103470009F3F19F4511101C0942F4F5F4E31A9F7AE
:103480009F3F09F40895290F311D97FD3A95F901E1
:1034900082830895909113019923F1F0909147024E
:1034A00097FF1AC0E82FE695E695E695EF3129F1EA
:1034B0002091010130910201E20FF32FF11D282F1D
:1034C000277081E090E001C0880F2A95EAF7809587
:1034D0009181892381830895209101013091020116
:1034E000F9013296205E3F4F9191891303C0DF01AD
:1034F00011971C92E217F307B9F7089581E090E065
:10350000E0910101F0910201E80FF91F108201968C
:1035100080329105A9F708959091F201892B80934B
:10352000F2010895982F90958091F201892380935C
:10353000F20108951092F20108959091F101892B02
:103540008093F1010895982F90958091F10189233E
:103550008093F10108951092F10108959091F00186
:10356000892B8093F0010895982F90958091F00118
:1035700089238093F00108951092F00108958093BB
:10358000CF0108951092CF0108952091010130914B
:103590000201F9013196205E3F4F80E09191911137
:1035A0008F5FE217F307D1F70895E0910101F091E1
:1035B00002018091F2018083E0910101F09102010A
:1035C00080819091F101892B8083E0910101F0913C
:1035D000020180819091F001892B80839091CF012D
:1035E000992361F0E0910101F09102018081892B22
:1035F00080830E94C51A81111092CF018091010130
:10360000909102010C94120F6DEE7EEF90E080E03D
:103610000E94E12860E082E090E00E94C32860E020
:1036200083E090E00E94C32860E084E090E00E9484
:10363000C32860E085E090E00E94C32860E086E057
:1036400090E00E94C32840E050E0BA0188E090E09A
:103650000C94D52890E080E00E94BD2821E08D3EAA
:103660009E4F09F020E0822F089582E090E00C94B4
:10367000AF28682F82E090E00C94C32883E090E0AC
:103680000C94AF28682F83E090E00C94C32884E06A
:1036900090E00C94AF28682F84E090E00C94C3284D
:1036A00086E090E00C94AF28682F86E090E00C94C0
:1036B000C32880914E02843051F11092F40188E1C8
:1036C00090E020E40FB6F894A895809360000FBEB8
:1036D0002093600080E00E94F90580E00E942706A8
:1036E00083B7817F846083BF83B7816083BF789411
:1036F000889583B78E7F83BF0FB6F894A895809185
:103700006000886180936000109260000FBE089591
:1037100008950895CF930E94881B0E9409090E9472
:10372000891BC0E08C2F0E94BB09892B31F4CF5F2D
:10373000C330C1F780E0CF91089581E0FCCF0E94B3
:1037400006140E94D21F0E94060F0C9427061F9297
:103750000F920FB60F9211248F939F93AF93BF9345
:103760008091F401811113C0809143029091440231
:10377000A0914502B09146024196A11DB11D8093D2
:10378000430290934402A0934502B0934602BF9136
:10379000AF919F918F910F900FBE0F901F90189532
:1037A00082E084BD93E095BD9AEF97BD80936E0053
:1037B00008952FB7F8948091430290914402A0910C
:1037C0004502B09146022FBF0895CF92DF92EF924B
:1037D000FF920F931F932FB7F8944091430250919B
:1037E000440260914502709146022FBF6A017B013D
:1037F000EE24FF248C0130E020E0C016D106E20662
:10380000F30650F0481B590BCA011F910F91FF900E
:10381000EF90DF90CF90089541505109F3CF1F9260
:103820000F920FB60F9211248F939F93AF93BF9374
:103830008091430290914402A0914502B0914602CA
:103840000196A11DB11D8093430290934402A09361
:103850004502B0934602BF91AF919F918F910F9017
:103860000FBE0F901F9018950E945524F8942FEFCB
:1038700087EA91E6215080409040E1F700C00000C7
:1038800087E090EBDC018093570290935802A0935D
:103890005902B0935A0288E19CE00FB6F894A895BB
:1038A000809360000FBE90936000FFCFAF92BF92F5
:1038B000CF92DF92EF92FF920F931F93CF93C0E0CE
:1038C000CC24C394D12CE82EF12C8C2F0E94BB0960
:1038D0005C0110E000E0C601002E02C0880F991FB5
:1038E0000A94E2F78A219B21892B99F40F5F1F4FDD
:1038F0000930110581F7CF5FC33039F780E0CF91F0
:103900001F910F91FF90EF90DF90CF90BF90AF90FD
:103910000895602F7C2F80E00E942A06E816F906A1
:1039200029F781E0ECCFCF93C82F8CE20E94561C80
:10393000882321F08C2FCF910C94561C80E0CF91DE
:103940000895CF930E942A1B811102C00E94041B7C
:10395000C5E608C00E9409098FE39CE90197F1F7C9
:1039600000C00000C150B1F789E20E94931C811190
:10397000EFC08AE20E94931C81110E94041B85E023
:103980000E94931C81110E94341C0E94351B80935D
:10399000F30187E00E94931C882371F08BE10E9461
:1039A000931C882309F4B1C09091F301892F8D7F76
:1039B00091FF82608093F3018091F3010E94391B93
:1039C0000E94471B90E0909348028093470280EE4C
:1039D0000E94931C882341F090914702892F8E7F8B
:1039E00090FF81608093470289E30E94931C8823A3
:1039F00041F090914702892F8D7F91FF82608093E3
:103A0000470282EE0E94931C882341F09091470266
:103A1000892F8B7F92FF84608093470286EE0E94FD
:103A2000931C882341F090914702892F877F93FF51
:103A300088608093470283EE0E94931C882341F0A4
:103A400090914702892F8F7E94FF80618093470277
:103A500085E30E94931C882341F090914702892FAF
:103A60008F7D95FF80628093470281E30E94931CC3
:103A7000882341F090914702892F8F7B96FF8064C5
:103A80008093470281E10E94931C882341F090912A
:103A90004702892F97FB87F98058809347028091CE
:103AA00047020E944B1B87E20E94931CC82F8EE1A5
:103AB0000E94931C8111C2608FE10E94931C8111AE
:103AC000C46080E20E94931C8111C86081E20E9460
:103AD000931C8111C06182E20E94931C8111C0621B
:103AE00083E20E94931C8111C06484E20E94931CB3
:103AF000882341F1C0688C2F0E94421B6C2F70E01C
:103B000090E080E0CF910C94DA178EE00E94931C35
:103B1000882339F09091F301892F8B7F92FF846085
:103B200049CF80E10E94931C9091F301882329F0F2
:103B3000892F877F93FF88603DCF892F8E7F90FFED
:103B4000816038CFC111D7CF0E943E1B682FD7CFDD
:103B5000CF9108958091F70180FF12C06091060116
:103B600085E0689FB00111247595679575956795F7
:103B700060387105A8F561157105A1F1862F0895CA
:103B800081FF09C06091060185E0689FB0011124A2
:103B900075956795EDCF82FF07C06091060185E0BE
:103BA000689FB0011124E4CF2091F8012223A9F0ED
:103BB000909105016091060185E0689FB001112494
:103BC0002917B0F6269FA001279F500D1124692FB9
:103BD00070E0CA010E949528CBCF65E070E0CECF9F
:103BE0008FE7089581E008958091F70180FF0CC070
:103BF0006091040170E075956795759567956115FD
:103C0000710549F1862F089581FF06C06091040176
:103C100070E075956795F3CF6091040182FD0BC04C
:103C20009091F8019923A1F0609103018091040122
:103C3000961738F0682F70E06038710500F38FE751
:103C40000895899FC001112470E00E949528F4CF47
:103C500061E070E0D7CF81E00895803F31F40E94A9
:103C6000AA1D81958093FB010895813F19F40E945C
:103C7000AA1DF8CF823F31F40E94AA1D819580933E
:103C8000FA010895833F19F40E94AA1DF8CF893FD5
:103C900029F40E94F41D8093FC0108958A3F21F4C9
:103CA0000E94F41D8195F7CF8B3F31F40E94F41DE3
:103CB00081958093FD0108958C3F19F40E94F41DB5
:103CC000F8CF843F31F48091F90181608093F9014C
:103CD0000895853F21F48091F9018260F7CF863FF6
:103CE00021F48091F9018460F1CF873F21F4809124
:103CF000F9018860EBCF883F21F48091F901806160
:103D0000E5CF8D3F31F48091F70181608093F70119
:103D100008958E3F21F48091F7018260F7CF8F3FA5
:103D2000B9F78091F7018460F1CF803FC1F48091B1
:103D3000FB0187FD1092FB018091FA0181110EC0F9
:103D40008091FB0181110AC08091FC01811106C0A4
:103D50008091FD01811102C01092F8010895813F08
:103D600029F48091FB0118162CF3E6CF9091FA010B
:103D7000823F29F497FFE0CF1092FA01DDCF833F15
:103D800019F41916CCF3D8CF893F39F48091FC018E
:103D9000181694F61092FC01CFCF8A3F29F4809137
:103DA000FC0187FFC9CFF6CF8B3F39F48091FD012D
:103DB00087FFC2CF1092FD01BFCF8C3F29F48091C5
:103DC000FD011816BCF3B8CF843F31F48091F9019E
:103DD0008E7F8093F901B0CF853F21F48091F90166
:103DE0008D7FF7CF863F21F48091F9018B7FF1CF52
:103DF000873F21F48091F901877FEBCF883F21F441
:103E00008091F9018F7EE5CF8D3F31F48091F701EC
:103E10008E7F8093F70190CF8E3F21F48091F70140
:103E20008D7FF7CF8F3F09F087CF8091F7018B7F90
:103E3000F0CF89EF91E00E941D0F0E94D91B909353
:103E4000F6018093F50108951F93CF93DF9380913E
:103E5000F5019091F6010E94E51BAC019091F801EB
:103E60002091070130E0911106C0209108018AE0FD
:103E7000289F900111244217530780F08091FA0186
:103E8000C091FB011091FC01D091FD0181110AC08C
:103E9000C11178C0111176C0D11174C0DF91CF91DA
:103EA0001F9108959F3F19F09F5F9093F801181696
:103EB00024F40E94AA1D8093FA018091FA0187FFE1
:103EC00005C00E94AA1D81958093FA011C1624F456
:103ED0000E94AA1D8093FB018091FB0187FF05C012
:103EE0000E94AA1D81958093FB016091FA016623CF
:103EF00031F1C091FB01CC2311F1062E000C770BA0
:103F0000880B990B0E94882723E333E343E35FE3A5
:103F10000E94EC270E9450276093FA016C2FCC0F6F
:103F2000770B880B990B0E94882723E333E343E345
:103F30005FE30E94EC270E9450276093FB0111165B
:103F400024F40E94F41D8093FC018091FC0187FF02
:103F500005C00E94F41D81958093FC011D1624F478
:103F60000E94F41D8093FD018091FD0187FF05C033
:103F70000E94F41D81958093FD01DF91CF911F91E7
:103F80000C94191F9F3F09F08FCFA0CF85E0E9EF78
:103F9000F1E0DF011D928A95E9F71092F801109285
:103FA000F70108950E942A1B811102C00E94041B80
:103FB0000E94501B8093490280FF03C086950C9499
:103FC000F90580E0FCCF80914902982F96959330B7
:103FD00030F49F5F990F8170892B80934902809103
:103FE00049028160809349020E94541B80914902DA
:103FF00086950C94F90580914902982F9E7F79F05F
:104000008250809349028E7F91E009F490E0809184
:10401000490290FB80F9809349020E94541B8091D1
:10402000490286950C94F90590914902892F8E7F5B
:1040300090FF8160809349020E94541B8091490245
:1040400080FF03C086950C94F90580E0FCCF909129
:104050004902892F86958F5F8F7791708430B8F4ED
:10406000880F892B80934902809149028E7F91E0CD
:1040700009F490E08091490290FB80F98093490215
:104080000E94541B8091490286950C94F9059093E7
:104090004902EACF90914902292F26958227880F5D
:1040A0009170982B909349029E7F21E009F420E0C3
:1040B0008091490220FB80F9809349020E94541BA1
:1040C0008091490286950C94F90580911E0208950D
:1040D000CF93DF9300D01F92CDB7DEB79C018091C4
:1040E0004E02843019F593E099833B832A839093A1
:1040F000E9008FEF9091E800815095FD06C095EDA5
:104100009A95F1F700008111F5CF8091E80085FFC5
:104110000DC050E040E063E070E0CE0101960E94E7
:10412000C5228091E8008E778093E8000F900F9071
:104130000F90DF91CF910895CF93DF9300D01F921E
:10414000CDB7DEB720914E02243031F522E029832D
:10415000805891099B838A8383E08093E9008FEFE5
:104160009091E800815095FD06C095ED9A95F1F784
:1041700000008111F5CF8091E80085FF0DC050E06F
:1041800040E063E070E0CE0101960E94C52280917C
:10419000E8008E778093E8000F900F900F90DF91EA
:1041A000CF9108959C0180914E028430F9F482E011
:1041B0008093E9009FEF8091E800915085FD06C053
:1041C00085ED8A95F1F700009111F5CF8091E80017
:1041D00085FF0CC050E040E065E070E0C9010E943E
:1041E000C5228091E8008E778093E8000895CF93F0
:1041F000DF93EC0180914E028430F1F49091130131
:104200009923E9F09091470297FF19C08093E90044
:104210008FEF9091E800815095FD06C095E19A9549
:10422000F1F700008111F5CF8091E80050E040E007
:1042300060E270E085FD1AC0DF91CF91089581E0C2
:104240008093E9008FEF9091E800815095FD06C0C2
:1042500095ED9A95F1F700008111F5CF8091E80076
:1042600085FFEACF50E040E068E070E0CE010E94B8
:10427000C5228091E8008E778093E80080E2FE01FD
:10428000AEEFB1E001900D928A95E1F7D5CF809124
:104290004D02811109C00E9455240E94B2248091D0
:1042A000E20084608093E200089510924D02089528
:1042B000089508950C949F1B42E061EC81E00E94F8
:1042C000D32342E061EC82E00E94D32342E061EC20
:1042D00083E00E94D32342E261EC84E00C94D32378
:1042E00080915002833009F455C030F4813071F16F
:1042F000823009F491C008958A3009F47DC08B3072
:1043000009F463C0893009F044C080914F028132C2
:1043100009F03FC08091530290915402009711F030
:104320000397B9F58091E800877F8093E80080913A
:10433000E80082FF2AC08091F10080931E028091E4
:10434000E8008B778093E8000C94072480914F025B
:10435000813AF9F48091E800877F8093E8008091AA
:10436000530290915402892B61F460E28EEF91E048
:1043700070E00E9414238091E8008B778093E8001E
:10438000089560E090E080E0F3CF80914E028111CB
:10439000CECF089580914F02813AD9F78091530290
:1043A00090915402892BA9F78091E800877F809330
:1043B000E8008091E80080FFFCCF8091130180939A
:1043C000F1008091E8008E77BDCF80914F0281325D
:1043D00001F78091530290915402892BD1F680917C
:1043E000E800877F8093E8000E94072480915102B3
:1043F000809313010C94061480914F02813249F688
:104400008091E800877F8093E8000E9407248091D4
:10441000520280931F02089580914F02813A09F061
:10442000B8CF8091E800877F8093E8008091E80012
:1044300080FFFCCF80911F02C2CF84B7877F84BFEB
:104440000FB6F894A8958091600088618093600011
:10445000109260000FBE80E88093610010926100AE
:104460000E94550F0E9455240E94B2248091E200C0
:1044700084608093E20078940E9434270E94570F52
:1044800089E091E00E94010F80914E02853029F071
:104490000E94610F0E94CE0EF7CF0E94591B80919F
:1044A0004C02882389F30E948A1B882369F30E94A7
:1044B000AF22EACF292F33272330310579F158F481
:1044C00021303105F1F02230310519F190E080E022
:1044D00030E020E01AC02132310599F12232310555
:1044E000A9F7643098F770E0FB01EE0FFF1FEC5D59
:1044F000FE4F20813181605E7E4FFB01808190E024
:1045000004C082E190E026EB36E0FA01318320839B
:1045100008958DE690E029E436E0F7CF99278130C1
:10452000910561F028F0029789F6E9E1F6E002C012
:10453000E5E4F6E0849190E09F01E7CFEDE2F6E05C
:10454000F9CF643008F0C2CFE62FF0E0EE0FFF1F86
:10455000E45DFE4F2081318189E090E0D6CF80E19B
:1045600089BD82E189BD09B400FEFDCF8091D800EC
:104570008F7D8093D8008091E00082608093E0007E
:104580008091E00081FDFCCF0895AF92BF92CF9261
:10459000DF92FF920F931F93CF93DF936C01EB0198
:1045A0008A010E942624F82E811123C001151105CD
:1045B00039F0F80180819181C81BD90BC80ED91E32
:1045C000B12CA12C2097A9F08091E80085FD22C094
:1045D0008091E8008E778093E80001151105A1F025
:1045E000F80180819181A80EB91EB182A08285E078
:1045F000F82E8F2DDF91CF911F910F91FF90DF90BB
:10460000CF90BF90AF9008950E9426248823D1F2C6
:10461000F82EEFCFF60181916F018093F100219781
:10462000FFEFAF1ABF0ACECFFC01809155029091E7
:10463000560286179707A0F06115710529F490912D
:10464000E8009E779093E80090E06115710551F4C1
:10465000911108C08091E80082FF35C080E0089584
:10466000BC01F2CF80914E028823C9F18530C9F197
:104670008091E80083FD31C08091E80082FDEACF9F
:104680008091E80080FFE1CF2091F3008091F2005B
:10469000322F282F6115710519F02830310558F097
:1046A00091E02830310509F090E02091E8002E7764
:1046B0002093E800CACF81918093F1006150710985
:1046C0002F5F3F4FE7CF80914E02882341F0853026
:1046D00041F08091E80083FFBDCF81E0089582E042
:1046E000089583E00895FC0180915502909156024F
:1046F00086179707A0F06115710529F48091E800ED
:104700008E778093E80090E06115710551F4911166
:1047100008C08091E80082FF36C080E00895BC01A7
:10472000F2CF80914E028823D1F18530D1F1809172
:10473000E80083FD32C08091E80082FDEACF8091DD
:10474000E80080FFE1CF2091F3008091F200322F4A
:10475000282F6115710519F02830310558F091E0C6
:104760002830310509F090E08091E8008E77809341
:10477000E800CACF84918093F100319661507109AD
:104780002F5F3F4FE6CF80914E02882341F0853066
:1047900041F08091E80083FFBCCF81E0089582E082
:1047A000089583E00895982F973028F08F708093B4
:1047B000E90081E008959093E900242F762F50E0DE
:1047C000981731F07091EC002091ED005091F000BD
:1047D00021FD02C09F5FE8CF3091EB003E7F309318
:1047E000EB003091ED003D7F3093ED003091EB0018
:1047F00031603093EB007093EC002093ED00509308
:10480000F0002091EE0027FDE5CF80E00895809133
:104810004F0287FF13C08091E80082FF06C080919D
:10482000E8008B778093E80004C080914E028111EC
:10483000F2CF089580914E028823D9F38091E80049
:1048400080FFF8CF8091E8008E77ECCF2091E400D4
:104850003091E50085E69091EC0090FF06C09091C4
:10486000E80090FF06C080E008959091E80092FD76
:10487000FACF90914E02992391F0953091F090915A
:10488000EB0095FD10C04091E4005091E500241725
:10489000350709F381509A01F1F684E0089582E02A
:1048A000089583E0089581E008950E94C3240E9442
:1048B000CB24E0EEF0E0808181608083E8EDF0E0E1
:1048C00080818F77808319BCA7EDB0E08C918E7FBB
:1048D0008C9380818F7E808310924D0208950F9378
:1048E0001F93CF93DF930E94C3240E94CB24C8ED73
:1048F000D0E088818F7788838881806888838881E9
:104900008F7D888319BC10924E0210924A02109239
:104910004C0210924B0200EE10E0F80180818B7F78
:10492000808388818160888342E060E080E00E942B
:10493000D323E1EEF0E080818E7F8083E2EEF0E031
:10494000808181608083808188608083F80180819C
:104950008E7F8083888180618883DF91CF911F91D2
:104960000F910895E8EDF0E080818F7E8083E7ED80
:10497000F0E080818160808384E082BF81E0809369
:104980004D020C946F24E8EDF0E080818E7F8083EF
:104990001092E20008951092DA001092E10008955A
:1049A0001F920F920FB60F9211242F933F934F93A4
:1049B0005F936F937F938F939F93AF93BF93EF9387
:1049C000FF938091E10082FF0BC08091E20082FFA3
:1049D00007C08091E1008B7F8093E1000E94332724
:1049E0008091DA0080FF19C08091D80080FF15C047
:1049F0008091DA008E7F8093DA008091D90080FF69
:104A000094C080E189BD82E189BD09B400FEFDCF7B
:104A100081E080934E020E9447218091E10080FF57
:104A200019C08091E20080FF15C08091E2008E7F66
:104A30008093E2008091E20080618093E2008091A7
:104A4000D80080628093D80019BC85E080934E0224
:104A50000E9459218091E10084FF29C08091E200E9
:104A600084FF25C080E189BD82E189BD09B400FED3
:104A7000FDCF8091D8008F7D8093D8008091E10098
:104A80008F7E8093E1008091E2008F7E8093E20030
:104A90008091E20081608093E20080914A02882345
:104AA00009F449C084E080934E020E945A2180910B
:104AB000E10083FF29C08091E20083FF25C080913F
:104AC000E100877F8093E10082E080934E021092A4
:104AD0004A028091E1008E7F8093E1008091E200A4
:104AE0008E7F8093E2008091E20080618093E200FB
:104AF00042E060E080E00E94D3238091F000886073
:104B00008093F0000E945821FF91EF91BF91AF91E7
:104B10009F918F917F916F915F914F913F912F91D5
:104B20000F900FBE0F901F90189519BC10924E0257
:104B30000E94552172CF8091E30087FD02C081E081
:104B4000B2CF83E0B0CF1F920F920FB60F92112415
:104B50002F933F934F935F936F937F938F939F9385
:104B6000AF93BF93CF93EF93FF93C091E900CF70C2
:104B70008091EC001092E9008091F000877F809393
:104B8000F00078940E94DF251092E9008091F000F7
:104B900088608093F000C093E900FF91EF91CF917E
:104BA000BF91AF919F918F917F916F915F914F9145
:104BB0003F912F910F900FBE0F901F9018951F934C
:104BC000CF93DF93CDB7DEB7AA970FB6F894DEBFC9
:104BD0000FBECDBFEFE4F2E08091F100819322E0BF
:104BE000E735F207C9F70E9470218091E80083FF42
:104BF00042C080914F02909150029A3008F03BC021
:104C0000E92FF0E0EA5FF94D0C94A928102634262C
:104C10003B2634263B268F26B1263B260627132724
:104C2000803879F0823839F5809153028F70809303
:104C3000E9008091EB0085FB882780F91092E9005C
:104C400006C080914B0290914C029111826090912C
:104C5000E800977F9093E8008093F1001092F100B4
:104C60008091E8008E772DC0282F2D7F21F4882396
:104C7000D1F0823059F18091E80083FF0AC0809121
:104C8000E800877F8093E8008091EB00806280934A
:104C9000EB00AA960FB6F894DEBF0FBECDBFDF9132
:104CA000CF911F91089580915102813021F7933067
:104CB00009F080E080934C021092E9008091E800B6
:104CC000877F8093E8000E940724D5CF809151020E
:104CD0008111F2CF809153028F7069F28093E900C5
:104CE0002091EB0020FFE8CF933031F48091EB006E
:104CF00080628093EB00E0CF9091EB009061909305
:104D0000EB0021E030E001C0220F8A95EAF7209302
:104D1000EA001092EA008091EB008860EACF8111EE
:104D2000AACF109151021F778091E3008078812BE8
:104D30008093E3008091E800877F8093E8000E94E1
:104D400007248091E80080FFFCCF8091E300806819
:104D50008093E30083E0111101C082E080934E0252
:104D60008ACF8058823008F086CF8091510290918E
:104D700052028C3D23E09207A1F583E08A838AE208
:104D800089834FB7F894DE01139620E03EE051E2AC
:104D9000E32FF0E050935700E49120FF03C0E29529
:104DA000EF703F5FEF708E2F90E0EA30C0F0C79653
:104DB0008D939D932F5F243159F74FBF8091E80069
:104DC000877F8093E8006AE270E0CE0101960E943E
:104DD00014238091E8008B778093E8004CCFC09635
:104DE000E7CFAE014F5F5F4F609153020E945A229E
:104DF000BC01892B09F43FCF9091E800977F9093F5
:104E0000E80089819A810E947323E3CF803809F0FA
:104E100032CF8091E800877F8093E80080914A023A
:104E20008093F1001DCF811126CF909151029230D5
:104E300008F021CF8091E800877F8093E80090936D
:104E40004A020E94072480914A02882331F084E0BC
:104E500080934E020E945C210ECF8091E30087FD7B
:104E6000F6CF81E0F5CF0895CF9380914E0288234D
:104E700099F0C091E900CF708091EC0080FD0EC0E8
:104E800080E0C82B1092E9008091E80083FD0E9429
:104E9000DF25CF70C093E900CF91089580E8F1CF6E
:104EA0000E9457276894B1110C94E62708950E9438
:104EB000CB2788F09F5798F0B92F9927B751B0F0BA
:104EC000E1F0660F771F881F991F1AF0BA95C9F78E
:104ED00014C0B13091F00E94E527B1E008950C9420
:104EE000E527672F782F8827B85F39F0B93FCCF3D3
:104EF000869577956795B395D9F73EF4909580950B
:104F0000709561957F4F8F4F9F4F0895E89409C02A
:104F100097FB3EF490958095709561957F4F8F4FEC
:104F20009F4F9923A9F0F92F96E9BB279395F69502
:104F3000879577956795B795F111F8CFFAF4BB0F80
:104F400011F460FF1BC06F5F7F4F8F4F9F4F16C0E4
:104F5000882311F096E911C0772321F09EE8872F6E
:104F6000762F05C0662371F096E8862F70E060E02A
:104F70002AF09A95660F771F881FDAF7880F9695A3
:104F8000879597F9089557FD9058440F551F59F08C
:104F90005F3F71F04795880F97FB991F61F09F3F26
:104FA00079F087950895121613061406551FF2CF4F
:104FB0004695F1DF08C0161617061806991FF1CF9F
:104FC00086957105610508940895E894BB276627C6
:104FD0007727CB0197F908950E94FF270C9470283A
:104FE0000E94622838F00E94692820F0952311F071
:104FF0000C9459280C945F2811240C94E6270E94E5
:10500000C32770F3959FC1F3950F50E0551F629F22
:10501000F001729FBB27F00DB11D639FAA27F00D11
:10502000B11DAA1F649F6627B00DA11D661F829F38
:105030002227B00DA11D621F739FB00DA11D621F1D
:10504000839FA00D611D221F749F3327A00D611D3A
:10505000231F849F600D211D822F762F6A2F11241C
:105060009F5750409AF0F1F088234AF0EE0FFF1F4F
:10507000BB1F661F771F881F91505040A9F79E3FA6
:10508000510580F00C9459280C94E6275F3FE4F317
:10509000983ED4F3869577956795B795F795E795FC
:1050A0009F5FC1F7FE2B880F911D9695879597F905
:1050B000089597F99F6780E870E060E008959FEF9A
:1050C00080EC089500240A9416161706180609069F
:1050D000089500240A94121613061406050608956E
:1050E000092E0394000C11F4882352F0BB0F40F4F6
:1050F000BF2B11F460FF04C06F5F7F4F8F4F9F4F36
:105100000895AA1BBB1B51E107C0AA1FBB1FA6170E
:10511000B70710F0A61BB70B881F991F5A95A9F760
:1051200080959095BC01CD01089597FB072E16F44C
:10513000009407D077FD09D00E94812807FC05D094
:105140003EF4909581959F4F0895709561957F4F9E
:105150000895EE0FFF1F0590F491E02D0994F99941
:10516000FECF92BD81BDF89A992780B50895A6E13A
:10517000B0E044E050E00C94E928A8E1B0E042E05F
:1051800050E00C94E928262FF999FECF92BD81BDFD
:10519000F89A019700B4021639F01FBA20BD0FB675
:1051A000F894FA9AF99A0FBE08950396272F0E9451
:1051B000C4280E94C328252F0E94C428242F0C94A1
:1051C000C4280196272F0E94C4280C94C328DC0110
:1051D000CB01FC01F999FECF06C0F2BDE1BDF89A02
:1051E000319600B40D9241505040B8F70895F894AC
:0251F000FFCFEF
:1051F200FFD0012808140A321E6520F720D2209C15
:10520200206820019766949133F4F531F6F7C6349D
:10521200404D3639840737070107C8065B06740616
:045222008D06A60649
:00000001FF
